{
  "contractName": "KulfyV3",
  "abi": [
    {
      "inputs": [],
      "stateMutability": "nonpayable",
      "type": "constructor"
    },
    {
      "anonymous": false,
      "inputs": [
        {
          "indexed": true,
          "internalType": "address",
          "name": "owner",
          "type": "address"
        },
        {
          "indexed": true,
          "internalType": "address",
          "name": "approved",
          "type": "address"
        },
        {
          "indexed": true,
          "internalType": "uint256",
          "name": "tokenId",
          "type": "uint256"
        }
      ],
      "name": "Approval",
      "type": "event"
    },
    {
      "anonymous": false,
      "inputs": [
        {
          "indexed": true,
          "internalType": "address",
          "name": "owner",
          "type": "address"
        },
        {
          "indexed": true,
          "internalType": "address",
          "name": "operator",
          "type": "address"
        },
        {
          "indexed": false,
          "internalType": "bool",
          "name": "approved",
          "type": "bool"
        }
      ],
      "name": "ApprovalForAll",
      "type": "event"
    },
    {
      "anonymous": false,
      "inputs": [
        {
          "indexed": false,
          "internalType": "uint256",
          "name": "id",
          "type": "uint256"
        },
        {
          "indexed": false,
          "internalType": "string",
          "name": "tokenURI",
          "type": "string"
        },
        {
          "indexed": false,
          "internalType": "string",
          "name": "assetURI",
          "type": "string"
        },
        {
          "indexed": false,
          "internalType": "string",
          "name": "kid",
          "type": "string"
        },
        {
          "indexed": false,
          "internalType": "address payable",
          "name": "author",
          "type": "address"
        }
      ],
      "name": "KulfyCreated",
      "type": "event"
    },
    {
      "anonymous": false,
      "inputs": [
        {
          "indexed": false,
          "internalType": "uint256",
          "name": "id",
          "type": "uint256"
        },
        {
          "indexed": false,
          "internalType": "string",
          "name": "hash",
          "type": "string"
        },
        {
          "indexed": false,
          "internalType": "string",
          "name": "kid",
          "type": "string"
        },
        {
          "indexed": false,
          "internalType": "uint256",
          "name": "tipAmount",
          "type": "uint256"
        },
        {
          "indexed": false,
          "internalType": "address payable",
          "name": "author",
          "type": "address"
        },
        {
          "indexed": false,
          "internalType": "address",
          "name": "tipper",
          "type": "address"
        }
      ],
      "name": "KulfyTipped",
      "type": "event"
    },
    {
      "anonymous": false,
      "inputs": [
        {
          "indexed": true,
          "internalType": "address",
          "name": "previousOwner",
          "type": "address"
        },
        {
          "indexed": true,
          "internalType": "address",
          "name": "newOwner",
          "type": "address"
        }
      ],
      "name": "OwnershipTransferred",
      "type": "event"
    },
    {
      "anonymous": false,
      "inputs": [
        {
          "indexed": true,
          "internalType": "address",
          "name": "from",
          "type": "address"
        },
        {
          "indexed": true,
          "internalType": "address",
          "name": "to",
          "type": "address"
        },
        {
          "indexed": true,
          "internalType": "uint256",
          "name": "tokenId",
          "type": "uint256"
        }
      ],
      "name": "Transfer",
      "type": "event"
    },
    {
      "inputs": [
        {
          "internalType": "address",
          "name": "to",
          "type": "address"
        },
        {
          "internalType": "uint256",
          "name": "tokenId",
          "type": "uint256"
        }
      ],
      "name": "approve",
      "outputs": [],
      "stateMutability": "nonpayable",
      "type": "function"
    },
    {
      "inputs": [
        {
          "internalType": "address",
          "name": "owner",
          "type": "address"
        }
      ],
      "name": "balanceOf",
      "outputs": [
        {
          "internalType": "uint256",
          "name": "",
          "type": "uint256"
        }
      ],
      "stateMutability": "view",
      "type": "function",
      "constant": true
    },
    {
      "inputs": [],
      "name": "gasLimit",
      "outputs": [
        {
          "internalType": "uint256",
          "name": "",
          "type": "uint256"
        }
      ],
      "stateMutability": "view",
      "type": "function",
      "constant": true
    },
    {
      "inputs": [
        {
          "internalType": "uint256",
          "name": "tokenId",
          "type": "uint256"
        }
      ],
      "name": "getApproved",
      "outputs": [
        {
          "internalType": "address",
          "name": "",
          "type": "address"
        }
      ],
      "stateMutability": "view",
      "type": "function",
      "constant": true
    },
    {
      "inputs": [
        {
          "internalType": "address",
          "name": "owner",
          "type": "address"
        },
        {
          "internalType": "address",
          "name": "operator",
          "type": "address"
        }
      ],
      "name": "isApprovedForAll",
      "outputs": [
        {
          "internalType": "bool",
          "name": "",
          "type": "bool"
        }
      ],
      "stateMutability": "view",
      "type": "function",
      "constant": true
    },
    {
      "inputs": [
        {
          "internalType": "uint256",
          "name": "",
          "type": "uint256"
        }
      ],
      "name": "kulfys",
      "outputs": [
        {
          "internalType": "uint256",
          "name": "id",
          "type": "uint256"
        },
        {
          "internalType": "string",
          "name": "kid",
          "type": "string"
        },
        {
          "internalType": "string",
          "name": "tokenURI",
          "type": "string"
        },
        {
          "internalType": "string",
          "name": "assetURI",
          "type": "string"
        },
        {
          "internalType": "uint256",
          "name": "tipAmount",
          "type": "uint256"
        },
        {
          "internalType": "address payable",
          "name": "author",
          "type": "address"
        }
      ],
      "stateMutability": "view",
      "type": "function",
      "constant": true
    },
    {
      "inputs": [],
      "name": "name",
      "outputs": [
        {
          "internalType": "string",
          "name": "",
          "type": "string"
        }
      ],
      "stateMutability": "view",
      "type": "function",
      "constant": true
    },
    {
      "inputs": [],
      "name": "owner",
      "outputs": [
        {
          "internalType": "address",
          "name": "",
          "type": "address"
        }
      ],
      "stateMutability": "view",
      "type": "function",
      "constant": true
    },
    {
      "inputs": [
        {
          "internalType": "uint256",
          "name": "tokenId",
          "type": "uint256"
        }
      ],
      "name": "ownerOf",
      "outputs": [
        {
          "internalType": "address",
          "name": "",
          "type": "address"
        }
      ],
      "stateMutability": "view",
      "type": "function",
      "constant": true
    },
    {
      "inputs": [],
      "name": "renounceOwnership",
      "outputs": [],
      "stateMutability": "nonpayable",
      "type": "function"
    },
    {
      "inputs": [
        {
          "internalType": "address",
          "name": "from",
          "type": "address"
        },
        {
          "internalType": "address",
          "name": "to",
          "type": "address"
        },
        {
          "internalType": "uint256",
          "name": "tokenId",
          "type": "uint256"
        }
      ],
      "name": "safeTransferFrom",
      "outputs": [],
      "stateMutability": "nonpayable",
      "type": "function"
    },
    {
      "inputs": [
        {
          "internalType": "address",
          "name": "from",
          "type": "address"
        },
        {
          "internalType": "address",
          "name": "to",
          "type": "address"
        },
        {
          "internalType": "uint256",
          "name": "tokenId",
          "type": "uint256"
        },
        {
          "internalType": "bytes",
          "name": "_data",
          "type": "bytes"
        }
      ],
      "name": "safeTransferFrom",
      "outputs": [],
      "stateMutability": "nonpayable",
      "type": "function"
    },
    {
      "inputs": [
        {
          "internalType": "address",
          "name": "operator",
          "type": "address"
        },
        {
          "internalType": "bool",
          "name": "approved",
          "type": "bool"
        }
      ],
      "name": "setApprovalForAll",
      "outputs": [],
      "stateMutability": "nonpayable",
      "type": "function"
    },
    {
      "inputs": [
        {
          "internalType": "bytes4",
          "name": "interfaceId",
          "type": "bytes4"
        }
      ],
      "name": "supportsInterface",
      "outputs": [
        {
          "internalType": "bool",
          "name": "",
          "type": "bool"
        }
      ],
      "stateMutability": "view",
      "type": "function",
      "constant": true
    },
    {
      "inputs": [],
      "name": "symbol",
      "outputs": [
        {
          "internalType": "string",
          "name": "",
          "type": "string"
        }
      ],
      "stateMutability": "view",
      "type": "function",
      "constant": true
    },
    {
      "inputs": [],
      "name": "tokenIds",
      "outputs": [
        {
          "internalType": "uint256",
          "name": "_value",
          "type": "uint256"
        }
      ],
      "stateMutability": "view",
      "type": "function",
      "constant": true
    },
    {
      "inputs": [
        {
          "internalType": "uint256",
          "name": "tokenId",
          "type": "uint256"
        }
      ],
      "name": "tokenURI",
      "outputs": [
        {
          "internalType": "string",
          "name": "",
          "type": "string"
        }
      ],
      "stateMutability": "view",
      "type": "function",
      "constant": true
    },
    {
      "inputs": [
        {
          "internalType": "address",
          "name": "from",
          "type": "address"
        },
        {
          "internalType": "address",
          "name": "to",
          "type": "address"
        },
        {
          "internalType": "uint256",
          "name": "tokenId",
          "type": "uint256"
        }
      ],
      "name": "transferFrom",
      "outputs": [],
      "stateMutability": "nonpayable",
      "type": "function"
    },
    {
      "inputs": [
        {
          "internalType": "address",
          "name": "newOwner",
          "type": "address"
        }
      ],
      "name": "transferOwnership",
      "outputs": [],
      "stateMutability": "nonpayable",
      "type": "function"
    },
    {
      "inputs": [
        {
          "internalType": "address payable",
          "name": "author",
          "type": "address"
        },
        {
          "internalType": "string",
          "name": "_tokenURI",
          "type": "string"
        },
        {
          "internalType": "string",
          "name": "_assetURI",
          "type": "string"
        },
        {
          "internalType": "string",
          "name": "_kid",
          "type": "string"
        }
      ],
      "name": "mintNFT",
      "outputs": [
        {
          "internalType": "uint256",
          "name": "",
          "type": "uint256"
        }
      ],
      "stateMutability": "nonpayable",
      "type": "function"
    },
    {
      "inputs": [
        {
          "internalType": "uint256",
          "name": "_id",
          "type": "uint256"
        },
        {
          "internalType": "uint256",
          "name": "_gas",
          "type": "uint256"
        }
      ],
      "name": "tipKulfyAuthor",
      "outputs": [],
      "stateMutability": "payable",
      "type": "function",
      "payable": true
    },
    {
      "inputs": [
        {
          "internalType": "uint256",
          "name": "newGasLimit",
          "type": "uint256"
        }
      ],
      "name": "changeGasLimit",
      "outputs": [],
      "stateMutability": "nonpayable",
      "type": "function"
    }
  ],
  "bytecode": "0x6080604052611388600b553480156200001757600080fd5b506040518060400160405280600581526020017f4b554c46590000000000000000000000000000000000000000000000000000008152506040518060400160405280600381526020017f4b554c000000000000000000000000000000000000000000000000000000000081525081600090805190602001906200009c929190620001b4565b508060019080519060200190620000b5929190620001b4565b505050620000d8620000cc620000e660201b60201c565b620000ee60201b60201c565b6001600881905550620002c9565b600033905090565b6000600760009054906101000a900473ffffffffffffffffffffffffffffffffffffffff16905081600760006101000a81548173ffffffffffffffffffffffffffffffffffffffff021916908373ffffffffffffffffffffffffffffffffffffffff1602179055508173ffffffffffffffffffffffffffffffffffffffff168173ffffffffffffffffffffffffffffffffffffffff167f8be0079c531659141344cd1fd0a4f28419497f9722a3daafe3b4186f6b6457e060405160405180910390a35050565b828054620001c29062000264565b90600052602060002090601f016020900481019282620001e6576000855562000232565b82601f106200020157805160ff191683800117855562000232565b8280016001018555821562000232579182015b828111156200023157825182559160200191906001019062000214565b5b50905062000241919062000245565b5090565b5b808211156200026057600081600090555060010162000246565b5090565b600060028204905060018216806200027d57607f821691505b602082108114156200029457620002936200029a565b5b50919050565b7f4e487b7100000000000000000000000000000000000000000000000000000000600052602260045260246000fd5b613d2680620002d96000396000f3fe6080604052600436106101355760003560e01c80637791d3f3116100ab578063b88d4fde1161006f578063b88d4fde14610430578063baf539ee14610459578063c87b56dd14610482578063e985e9c5146104bf578063f2fde38b146104fc578063f68016b71461052557610135565b80637791d3f3146103585780637da7492e146103955780638da5cb5b146103b157806395d89b41146103dc578063a22cb4651461040757610135565b80633617b8a9116100fd5780633617b8a91461023157806342842e0e146102735780636352211e1461029c57806370a08231146102d9578063714cff5614610316578063715018a61461034157610135565b806301ffc9a71461013a57806306fdde0314610177578063081812fc146101a2578063095ea7b3146101df57806323b872dd14610208575b600080fd5b34801561014657600080fd5b50610161600480360381019061015c91906129a3565b610550565b60405161016e9190612ec8565b60405180910390f35b34801561018357600080fd5b5061018c610632565b6040516101999190612ee3565b60405180910390f35b3480156101ae57600080fd5b506101c960048036038101906101c491906129fd565b6106c4565b6040516101d69190612e61565b60405180910390f35b3480156101eb57600080fd5b5061020660048036038101906102019190612963565b610749565b005b34801561021457600080fd5b5061022f600480360381019061022a919061284d565b610861565b005b34801561023d57600080fd5b50610258600480360381019061025391906129fd565b6108c1565b60405161026a96959493929190613208565b60405180910390f35b34801561027f57600080fd5b5061029a6004803603810190610295919061284d565b610ab5565b005b3480156102a857600080fd5b506102c360048036038101906102be91906129fd565b610ad5565b6040516102d09190612e61565b60405180910390f35b3480156102e557600080fd5b5061030060048036038101906102fb9190612725565b610b87565b60405161030d9190613185565b60405180910390f35b34801561032257600080fd5b5061032b610c3f565b6040516103389190613185565b60405180910390f35b34801561034d57600080fd5b50610356610c4b565b005b34801561036457600080fd5b5061037f600480360381019061037a9190612752565b610cd3565b60405161038c9190613185565b60405180910390f35b6103af60048036038101906103aa9190612a2a565b610e58565b005b3480156103bd57600080fd5b506103c66112f2565b6040516103d39190612e61565b60405180910390f35b3480156103e857600080fd5b506103f161131c565b6040516103fe9190612ee3565b60405180910390f35b34801561041357600080fd5b5061042e60048036038101906104299190612923565b6113ae565b005b34801561043c57600080fd5b50610457600480360381019061045291906128a0565b6113c4565b005b34801561046557600080fd5b50610480600480360381019061047b91906129fd565b611426565b005b34801561048e57600080fd5b506104a960048036038101906104a491906129fd565b6114ac565b6040516104b69190612ee3565b60405180910390f35b3480156104cb57600080fd5b506104e660048036038101906104e1919061280d565b6115fe565b6040516104f39190612ec8565b60405180910390f35b34801561050857600080fd5b50610523600480360381019061051e9190612725565b611692565b005b34801561053157600080fd5b5061053a61178a565b6040516105479190613185565b60405180910390f35b60007f80ac58cd000000000000000000000000000000000000000000000000000000007bffffffffffffffffffffffffffffffffffffffffffffffffffffffff1916827bffffffffffffffffffffffffffffffffffffffffffffffffffffffff1916148061061b57507f5b5e139f000000000000000000000000000000000000000000000000000000007bffffffffffffffffffffffffffffffffffffffffffffffffffffffff1916827bffffffffffffffffffffffffffffffffffffffffffffffffffffffff1916145b8061062b575061062a82611790565b5b9050919050565b60606000805461064190613545565b80601f016020809104026020016040519081016040528092919081815260200182805461066d90613545565b80156106ba5780601f1061068f576101008083540402835291602001916106ba565b820191906000526020600020905b81548152906001019060200180831161069d57829003601f168201915b5050505050905090565b60006106cf826117fa565b61070e576040517f08c379a0000000000000000000000000000000000000000000000000000000008152600401610705906130a5565b60405180910390fd5b6004600083815260200190815260200160002060009054906101000a900473ffffffffffffffffffffffffffffffffffffffff169050919050565b600061075482610ad5565b90508073ffffffffffffffffffffffffffffffffffffffff168373ffffffffffffffffffffffffffffffffffffffff1614156107c5576040517f08c379a00000000000000000000000000000000000000000000000000000000081526004016107bc90613145565b60405180910390fd5b8073ffffffffffffffffffffffffffffffffffffffff166107e4611866565b73ffffffffffffffffffffffffffffffffffffffff16148061081357506108128161080d611866565b6115fe565b5b610852576040517f08c379a000000000000000000000000000000000000000000000000000000000815260040161084990612fe5565b60405180910390fd5b61085c838361186e565b505050565b61087261086c611866565b82611927565b6108b1576040517f08c379a00000000000000000000000000000000000000000000000000000000081526004016108a890613165565b60405180910390fd5b6108bc838383611a05565b505050565b60096020528060005260406000206000915090508060000154908060010180546108ea90613545565b80601f016020809104026020016040519081016040528092919081815260200182805461091690613545565b80156109635780601f1061093857610100808354040283529160200191610963565b820191906000526020600020905b81548152906001019060200180831161094657829003601f168201915b50505050509080600201805461097890613545565b80601f01602080910402602001604051908101604052809291908181526020018280546109a490613545565b80156109f15780601f106109c6576101008083540402835291602001916109f1565b820191906000526020600020905b8154815290600101906020018083116109d457829003601f168201915b505050505090806003018054610a0690613545565b80601f0160208091040260200160405190810160405280929190818152602001828054610a3290613545565b8015610a7f5780601f10610a5457610100808354040283529160200191610a7f565b820191906000526020600020905b815481529060010190602001808311610a6257829003601f168201915b5050505050908060040154908060050160009054906101000a900473ffffffffffffffffffffffffffffffffffffffff16905086565b610ad0838383604051806020016040528060008152506113c4565b505050565b6000806002600084815260200190815260200160002060009054906101000a900473ffffffffffffffffffffffffffffffffffffffff169050600073ffffffffffffffffffffffffffffffffffffffff168173ffffffffffffffffffffffffffffffffffffffff161415610b7e576040517f08c379a0000000000000000000000000000000000000000000000000000000008152600401610b7590613025565b60405180910390fd5b80915050919050565b60008073ffffffffffffffffffffffffffffffffffffffff168273ffffffffffffffffffffffffffffffffffffffff161415610bf8576040517f08c379a0000000000000000000000000000000000000000000000000000000008152600401610bef90613005565b60405180910390fd5b600360008373ffffffffffffffffffffffffffffffffffffffff1673ffffffffffffffffffffffffffffffffffffffff168152602001908152602001600020549050919050565b600a8060000154905081565b610c53611866565b73ffffffffffffffffffffffffffffffffffffffff16610c716112f2565b73ffffffffffffffffffffffffffffffffffffffff1614610cc7576040517f08c379a0000000000000000000000000000000000000000000000000000000008152600401610cbe906130c5565b60405180910390fd5b610cd16000611c61565b565b6000610cdf600a611d27565b6000610ceb600a611d3d565b9050610cf78682611d4b565b610d018186611f19565b6040518060c00160405280828152602001848152602001868152602001858152602001600081526020018773ffffffffffffffffffffffffffffffffffffffff1681525060096000838152602001908152602001600020600082015181600001556020820151816001019080519060200190610d7e929190612524565b506040820151816002019080519060200190610d9b929190612524565b506060820151816003019080519060200190610db8929190612524565b506080820151816004015560a08201518160050160006101000a81548173ffffffffffffffffffffffffffffffffffffffff021916908373ffffffffffffffffffffffffffffffffffffffff1602179055509050507fcfba13f74bc958f8f8d425c1da5c0c0d1fb2231ddffed937e6b5848e521a021f818686868a604051610e449594939291906131a0565b60405180910390a180915050949350505050565b600082118015610e715750610e6d600a611d3d565b8211155b610eb0576040517f08c379a0000000000000000000000000000000000000000000000000000000008152600401610ea790613125565b60405180910390fd5b600b54811115610ebf57600080fd5b6000600960008481526020019081526020016000206040518060c001604052908160008201548152602001600182018054610ef990613545565b80601f0160208091040260200160405190810160405280929190818152602001828054610f2590613545565b8015610f725780601f10610f4757610100808354040283529160200191610f72565b820191906000526020600020905b815481529060010190602001808311610f5557829003601f168201915b50505050508152602001600282018054610f8b90613545565b80601f0160208091040260200160405190810160405280929190818152602001828054610fb790613545565b80156110045780601f10610fd957610100808354040283529160200191611004565b820191906000526020600020905b815481529060010190602001808311610fe757829003601f168201915b5050505050815260200160038201805461101d90613545565b80601f016020809104026020016040519081016040528092919081815260200182805461104990613545565b80156110965780601f1061106b57610100808354040283529160200191611096565b820191906000526020600020905b81548152906001019060200180831161107957829003601f168201915b50505050508152602001600482015481526020016005820160009054906101000a900473ffffffffffffffffffffffffffffffffffffffff1673ffffffffffffffffffffffffffffffffffffffff1673ffffffffffffffffffffffffffffffffffffffff1681525050905060008160a0015190506000808273ffffffffffffffffffffffffffffffffffffffff1634869060405161113390612e4c565b600060405180830381858888f193505050503d8060008114611171576040519150601f19603f3d011682016040523d82523d6000602084013e611176565b606091505b5091509150816111bb576040517f08c379a00000000000000000000000000000000000000000000000000000000081526004016111b290612f65565b60405180910390fd5b3484608001516111cb91906133c2565b846080018181525050836009600088815260200190815260200160002060008201518160000155602082015181600101908051906020019061120e929190612524565b50604082015181600201908051906020019061122b929190612524565b506060820151816003019080519060200190611248929190612524565b506080820151816004015560a08201518160050160006101000a81548173ffffffffffffffffffffffffffffffffffffffff021916908373ffffffffffffffffffffffffffffffffffffffff1602179055509050507ffaf4ce3c97680022e76284ce8b5c5692f4ef12d5b18ebf3eeafa34d9069828188685604001518660200151876080015187336040516112e29695949392919061327e565b60405180910390a1505050505050565b6000600760009054906101000a900473ffffffffffffffffffffffffffffffffffffffff16905090565b60606001805461132b90613545565b80601f016020809104026020016040519081016040528092919081815260200182805461135790613545565b80156113a45780601f10611379576101008083540402835291602001916113a4565b820191906000526020600020905b81548152906001019060200180831161138757829003601f168201915b5050505050905090565b6113c06113b9611866565b8383611f8d565b5050565b6113d56113cf611866565b83611927565b611414576040517f08c379a000000000000000000000000000000000000000000000000000000000815260040161140b90613165565b60405180910390fd5b611420848484846120fa565b50505050565b61142e611866565b73ffffffffffffffffffffffffffffffffffffffff1661144c6112f2565b73ffffffffffffffffffffffffffffffffffffffff16146114a2576040517f08c379a0000000000000000000000000000000000000000000000000000000008152600401611499906130c5565b60405180910390fd5b80600b8190555050565b60606114b7826117fa565b6114f6576040517f08c379a00000000000000000000000000000000000000000000000000000000081526004016114ed90613085565b60405180910390fd5b600060066000848152602001908152602001600020805461151690613545565b80601f016020809104026020016040519081016040528092919081815260200182805461154290613545565b801561158f5780601f106115645761010080835404028352916020019161158f565b820191906000526020600020905b81548152906001019060200180831161157257829003601f168201915b5050505050905060006115a0612156565b90506000815114156115b65781925050506115f9565b6000825111156115eb5780826040516020016115d3929190612e28565b604051602081830303815290604052925050506115f9565b6115f48461216d565b925050505b919050565b6000600560008473ffffffffffffffffffffffffffffffffffffffff1673ffffffffffffffffffffffffffffffffffffffff16815260200190815260200160002060008373ffffffffffffffffffffffffffffffffffffffff1673ffffffffffffffffffffffffffffffffffffffff16815260200190815260200160002060009054906101000a900460ff16905092915050565b61169a611866565b73ffffffffffffffffffffffffffffffffffffffff166116b86112f2565b73ffffffffffffffffffffffffffffffffffffffff161461170e576040517f08c379a0000000000000000000000000000000000000000000000000000000008152600401611705906130c5565b60405180910390fd5b600073ffffffffffffffffffffffffffffffffffffffff168173ffffffffffffffffffffffffffffffffffffffff16141561177e576040517f08c379a000000000000000000000000000000000000000000000000000000000815260040161177590612f25565b60405180910390fd5b61178781611c61565b50565b600b5481565b60007f01ffc9a7000000000000000000000000000000000000000000000000000000007bffffffffffffffffffffffffffffffffffffffffffffffffffffffff1916827bffffffffffffffffffffffffffffffffffffffffffffffffffffffff1916149050919050565b60008073ffffffffffffffffffffffffffffffffffffffff166002600084815260200190815260200160002060009054906101000a900473ffffffffffffffffffffffffffffffffffffffff1673ffffffffffffffffffffffffffffffffffffffff1614159050919050565b600033905090565b816004600083815260200190815260200160002060006101000a81548173ffffffffffffffffffffffffffffffffffffffff021916908373ffffffffffffffffffffffffffffffffffffffff160217905550808273ffffffffffffffffffffffffffffffffffffffff166118e183610ad5565b73ffffffffffffffffffffffffffffffffffffffff167f8c5be1e5ebec7d5bd14f71427d1e84f3dd0314c0f7b2291e5b200ac8c7c3b92560405160405180910390a45050565b6000611932826117fa565b611971576040517f08c379a000000000000000000000000000000000000000000000000000000000815260040161196890612fc5565b60405180910390fd5b600061197c83610ad5565b90508073ffffffffffffffffffffffffffffffffffffffff168473ffffffffffffffffffffffffffffffffffffffff1614806119eb57508373ffffffffffffffffffffffffffffffffffffffff166119d3846106c4565b73ffffffffffffffffffffffffffffffffffffffff16145b806119fc57506119fb81856115fe565b5b91505092915050565b8273ffffffffffffffffffffffffffffffffffffffff16611a2582610ad5565b73ffffffffffffffffffffffffffffffffffffffff1614611a7b576040517f08c379a0000000000000000000000000000000000000000000000000000000008152600401611a72906130e5565b60405180910390fd5b600073ffffffffffffffffffffffffffffffffffffffff168273ffffffffffffffffffffffffffffffffffffffff161415611aeb576040517f08c379a0000000000000000000000000000000000000000000000000000000008152600401611ae290612f85565b60405180910390fd5b611af6838383612214565b611b0160008261186e565b6001600360008573ffffffffffffffffffffffffffffffffffffffff1673ffffffffffffffffffffffffffffffffffffffff1681526020019081526020016000206000828254611b519190613449565b925050819055506001600360008473ffffffffffffffffffffffffffffffffffffffff1673ffffffffffffffffffffffffffffffffffffffff1681526020019081526020016000206000828254611ba891906133c2565b92505081905550816002600083815260200190815260200160002060006101000a81548173ffffffffffffffffffffffffffffffffffffffff021916908373ffffffffffffffffffffffffffffffffffffffff160217905550808273ffffffffffffffffffffffffffffffffffffffff168473ffffffffffffffffffffffffffffffffffffffff167fddf252ad1be2c89b69c2b068fc378daa952ba7f163c4a11628f55a4df523b3ef60405160405180910390a4505050565b6000600760009054906101000a900473ffffffffffffffffffffffffffffffffffffffff16905081600760006101000a81548173ffffffffffffffffffffffffffffffffffffffff021916908373ffffffffffffffffffffffffffffffffffffffff1602179055508173ffffffffffffffffffffffffffffffffffffffff168173ffffffffffffffffffffffffffffffffffffffff167f8be0079c531659141344cd1fd0a4f28419497f9722a3daafe3b4186f6b6457e060405160405180910390a35050565b6001816000016000828254019250508190555050565b600081600001549050919050565b600073ffffffffffffffffffffffffffffffffffffffff168273ffffffffffffffffffffffffffffffffffffffff161415611dbb576040517f08c379a0000000000000000000000000000000000000000000000000000000008152600401611db290613065565b60405180910390fd5b611dc4816117fa565b15611e04576040517f08c379a0000000000000000000000000000000000000000000000000000000008152600401611dfb90612f45565b60405180910390fd5b611e1060008383612214565b6001600360008473ffffffffffffffffffffffffffffffffffffffff1673ffffffffffffffffffffffffffffffffffffffff1681526020019081526020016000206000828254611e6091906133c2565b92505081905550816002600083815260200190815260200160002060006101000a81548173ffffffffffffffffffffffffffffffffffffffff021916908373ffffffffffffffffffffffffffffffffffffffff160217905550808273ffffffffffffffffffffffffffffffffffffffff16600073ffffffffffffffffffffffffffffffffffffffff167fddf252ad1be2c89b69c2b068fc378daa952ba7f163c4a11628f55a4df523b3ef60405160405180910390a45050565b611f22826117fa565b611f61576040517f08c379a0000000000000000000000000000000000000000000000000000000008152600401611f5890613045565b60405180910390fd5b80600660008481526020019081526020016000209080519060200190611f88929190612524565b505050565b8173ffffffffffffffffffffffffffffffffffffffff168373ffffffffffffffffffffffffffffffffffffffff161415611ffc576040517f08c379a0000000000000000000000000000000000000000000000000000000008152600401611ff390612fa5565b60405180910390fd5b80600560008573ffffffffffffffffffffffffffffffffffffffff1673ffffffffffffffffffffffffffffffffffffffff16815260200190815260200160002060008473ffffffffffffffffffffffffffffffffffffffff1673ffffffffffffffffffffffffffffffffffffffff16815260200190815260200160002060006101000a81548160ff0219169083151502179055508173ffffffffffffffffffffffffffffffffffffffff168373ffffffffffffffffffffffffffffffffffffffff167f17307eab39ab6107e8899845ad3d59bd9653f200f220920489ca2b5937696c31836040516120ed9190612ec8565b60405180910390a3505050565b612105848484611a05565b61211184848484612219565b612150576040517f08c379a000000000000000000000000000000000000000000000000000000000815260040161214790612f05565b60405180910390fd5b50505050565b606060405180602001604052806000815250905090565b6060612178826117fa565b6121b7576040517f08c379a00000000000000000000000000000000000000000000000000000000081526004016121ae90613105565b60405180910390fd5b60006121c1612156565b905060008151116121e1576040518060200160405280600081525061220c565b806121eb846123b0565b6040516020016121fc929190612e28565b6040516020818303038152906040525b915050919050565b505050565b600061223a8473ffffffffffffffffffffffffffffffffffffffff16612511565b156123a3578373ffffffffffffffffffffffffffffffffffffffff1663150b7a02612263611866565b8786866040518563ffffffff1660e01b81526004016122859493929190612e7c565b602060405180830381600087803b15801561229f57600080fd5b505af19250505080156122d057506040513d601f19601f820116820180604052508101906122cd91906129d0565b60015b612353573d8060008114612300576040519150601f19603f3d011682016040523d82523d6000602084013e612305565b606091505b5060008151141561234b576040517f08c379a000000000000000000000000000000000000000000000000000000000815260040161234290612f05565b60405180910390fd5b805181602001fd5b63150b7a0260e01b7bffffffffffffffffffffffffffffffffffffffffffffffffffffffff1916817bffffffffffffffffffffffffffffffffffffffffffffffffffffffff1916149150506123a8565b600190505b949350505050565b606060008214156123f8576040518060400160405280600181526020017f3000000000000000000000000000000000000000000000000000000000000000815250905061250c565b600082905060005b6000821461242a578080612413906135a8565b915050600a826124239190613418565b9150612400565b60008167ffffffffffffffff811115612446576124456136de565b5b6040519080825280601f01601f1916602001820160405280156124785781602001600182028036833780820191505090505b5090505b60008514612505576001826124919190613449565b9150600a856124a091906135f1565b60306124ac91906133c2565b60f81b8183815181106124c2576124c16136af565b5b60200101907effffffffffffffffffffffffffffffffffffffffffffffffffffffffffffff1916908160001a905350600a856124fe9190613418565b945061247c565b8093505050505b919050565b600080823b905060008111915050919050565b82805461253090613545565b90600052602060002090601f0160209004810192826125525760008555612599565b82601f1061256b57805160ff1916838001178555612599565b82800160010185558215612599579182015b8281111561259857825182559160200191906001019061257d565b5b5090506125a691906125aa565b5090565b5b808211156125c35760008160009055506001016125ab565b5090565b60006125da6125d584613312565b6132ed565b9050828152602081018484840111156125f6576125f5613712565b5b612601848285613503565b509392505050565b600061261c61261784613343565b6132ed565b90508281526020810184848401111561263857612637613712565b5b612643848285613503565b509392505050565b60008135905061265a81613c7d565b92915050565b60008135905061266f81613c94565b92915050565b60008135905061268481613cab565b92915050565b60008135905061269981613cc2565b92915050565b6000815190506126ae81613cc2565b92915050565b600082601f8301126126c9576126c861370d565b5b81356126d98482602086016125c7565b91505092915050565b600082601f8301126126f7576126f661370d565b5b8135612707848260208601612609565b91505092915050565b60008135905061271f81613cd9565b92915050565b60006020828403121561273b5761273a61371c565b5b60006127498482850161264b565b91505092915050565b6000806000806080858703121561276c5761276b61371c565b5b600061277a87828801612660565b945050602085013567ffffffffffffffff81111561279b5761279a613717565b5b6127a7878288016126e2565b935050604085013567ffffffffffffffff8111156127c8576127c7613717565b5b6127d4878288016126e2565b925050606085013567ffffffffffffffff8111156127f5576127f4613717565b5b612801878288016126e2565b91505092959194509250565b600080604083850312156128245761282361371c565b5b60006128328582860161264b565b92505060206128438582860161264b565b9150509250929050565b6000806000606084860312156128665761286561371c565b5b60006128748682870161264b565b93505060206128858682870161264b565b925050604061289686828701612710565b9150509250925092565b600080600080608085870312156128ba576128b961371c565b5b60006128c88782880161264b565b94505060206128d98782880161264b565b93505060406128ea87828801612710565b925050606085013567ffffffffffffffff81111561290b5761290a613717565b5b612917878288016126b4565b91505092959194509250565b6000806040838503121561293a5761293961371c565b5b60006129488582860161264b565b925050602061295985828601612675565b9150509250929050565b6000806040838503121561297a5761297961371c565b5b60006129888582860161264b565b925050602061299985828601612710565b9150509250929050565b6000602082840312156129b9576129b861371c565b5b60006129c78482850161268a565b91505092915050565b6000602082840312156129e6576129e561371c565b5b60006129f48482850161269f565b91505092915050565b600060208284031215612a1357612a1261371c565b5b6000612a2184828501612710565b91505092915050565b60008060408385031215612a4157612a4061371c565b5b6000612a4f85828601612710565b9250506020612a6085828601612710565b9150509250929050565b612a738161348f565b82525050565b612a828161347d565b82525050565b612a91816134a1565b82525050565b6000612aa282613374565b612aac818561338a565b9350612abc818560208601613512565b612ac581613721565b840191505092915050565b6000612adb8261337f565b612ae581856133a6565b9350612af5818560208601613512565b612afe81613721565b840191505092915050565b6000612b148261337f565b612b1e81856133b7565b9350612b2e818560208601613512565b80840191505092915050565b6000612b476032836133a6565b9150612b5282613732565b604082019050919050565b6000612b6a6026836133a6565b9150612b7582613781565b604082019050919050565b6000612b8d601c836133a6565b9150612b98826137d0565b602082019050919050565b6000612bb06014836133a6565b9150612bbb826137f9565b602082019050919050565b6000612bd36024836133a6565b9150612bde82613822565b604082019050919050565b6000612bf66019836133a6565b9150612c0182613871565b602082019050919050565b6000612c19602c836133a6565b9150612c248261389a565b604082019050919050565b6000612c3c6038836133a6565b9150612c47826138e9565b604082019050919050565b6000612c5f602a836133a6565b9150612c6a82613938565b604082019050919050565b6000612c826029836133a6565b9150612c8d82613987565b604082019050919050565b6000612ca5602e836133a6565b9150612cb0826139d6565b604082019050919050565b6000612cc86020836133a6565b9150612cd382613a25565b602082019050919050565b6000612ceb6031836133a6565b9150612cf682613a4e565b604082019050919050565b6000612d0e602c836133a6565b9150612d1982613a9d565b604082019050919050565b6000612d316020836133a6565b9150612d3c82613aec565b602082019050919050565b6000612d546029836133a6565b9150612d5f82613b15565b604082019050919050565b6000612d77602f836133a6565b9150612d8282613b64565b604082019050919050565b6000612d9a6010836133a6565b9150612da582613bb3565b602082019050919050565b6000612dbd6021836133a6565b9150612dc882613bdc565b604082019050919050565b6000612de060008361339b565b9150612deb82613c2b565b600082019050919050565b6000612e036031836133a6565b9150612e0e82613c2e565b604082019050919050565b612e22816134f9565b82525050565b6000612e348285612b09565b9150612e408284612b09565b91508190509392505050565b6000612e5782612dd3565b9150819050919050565b6000602082019050612e766000830184612a79565b92915050565b6000608082019050612e916000830187612a79565b612e9e6020830186612a79565b612eab6040830185612e19565b8181036060830152612ebd8184612a97565b905095945050505050565b6000602082019050612edd6000830184612a88565b92915050565b60006020820190508181036000830152612efd8184612ad0565b905092915050565b60006020820190508181036000830152612f1e81612b3a565b9050919050565b60006020820190508181036000830152612f3e81612b5d565b9050919050565b60006020820190508181036000830152612f5e81612b80565b9050919050565b60006020820190508181036000830152612f7e81612ba3565b9050919050565b60006020820190508181036000830152612f9e81612bc6565b9050919050565b60006020820190508181036000830152612fbe81612be9565b9050919050565b60006020820190508181036000830152612fde81612c0c565b9050919050565b60006020820190508181036000830152612ffe81612c2f565b9050919050565b6000602082019050818103600083015261301e81612c52565b9050919050565b6000602082019050818103600083015261303e81612c75565b9050919050565b6000602082019050818103600083015261305e81612c98565b9050919050565b6000602082019050818103600083015261307e81612cbb565b9050919050565b6000602082019050818103600083015261309e81612cde565b9050919050565b600060208201905081810360008301526130be81612d01565b9050919050565b600060208201905081810360008301526130de81612d24565b9050919050565b600060208201905081810360008301526130fe81612d47565b9050919050565b6000602082019050818103600083015261311e81612d6a565b9050919050565b6000602082019050818103600083015261313e81612d8d565b9050919050565b6000602082019050818103600083015261315e81612db0565b9050919050565b6000602082019050818103600083015261317e81612df6565b9050919050565b600060208201905061319a6000830184612e19565b92915050565b600060a0820190506131b56000830188612e19565b81810360208301526131c78187612ad0565b905081810360408301526131db8186612ad0565b905081810360608301526131ef8185612ad0565b90506131fe6080830184612a6a565b9695505050505050565b600060c08201905061321d6000830189612e19565b818103602083015261322f8188612ad0565b905081810360408301526132438187612ad0565b905081810360608301526132578186612ad0565b90506132666080830185612e19565b61327360a0830184612a6a565b979650505050505050565b600060c0820190506132936000830189612e19565b81810360208301526132a58188612ad0565b905081810360408301526132b98187612ad0565b90506132c86060830186612e19565b6132d56080830185612a6a565b6132e260a0830184612a79565b979650505050505050565b60006132f7613308565b90506133038282613577565b919050565b6000604051905090565b600067ffffffffffffffff82111561332d5761332c6136de565b5b61333682613721565b9050602081019050919050565b600067ffffffffffffffff82111561335e5761335d6136de565b5b61336782613721565b9050602081019050919050565b600081519050919050565b600081519050919050565b600082825260208201905092915050565b600081905092915050565b600082825260208201905092915050565b600081905092915050565b60006133cd826134f9565b91506133d8836134f9565b9250827fffffffffffffffffffffffffffffffffffffffffffffffffffffffffffffffff0382111561340d5761340c613622565b5b828201905092915050565b6000613423826134f9565b915061342e836134f9565b92508261343e5761343d613651565b5b828204905092915050565b6000613454826134f9565b915061345f836134f9565b92508282101561347257613471613622565b5b828203905092915050565b6000613488826134d9565b9050919050565b600061349a826134d9565b9050919050565b60008115159050919050565b60007fffffffff0000000000000000000000000000000000000000000000000000000082169050919050565b600073ffffffffffffffffffffffffffffffffffffffff82169050919050565b6000819050919050565b82818337600083830152505050565b60005b83811015613530578082015181840152602081019050613515565b8381111561353f576000848401525b50505050565b6000600282049050600182168061355d57607f821691505b6020821081141561357157613570613680565b5b50919050565b61358082613721565b810181811067ffffffffffffffff8211171561359f5761359e6136de565b5b80604052505050565b60006135b3826134f9565b91507fffffffffffffffffffffffffffffffffffffffffffffffffffffffffffffffff8214156135e6576135e5613622565b5b600182019050919050565b60006135fc826134f9565b9150613607836134f9565b92508261361757613616613651565b5b828206905092915050565b7f4e487b7100000000000000000000000000000000000000000000000000000000600052601160045260246000fd5b7f4e487b7100000000000000000000000000000000000000000000000000000000600052601260045260246000fd5b7f4e487b7100000000000000000000000000000000000000000000000000000000600052602260045260246000fd5b7f4e487b7100000000000000000000000000000000000000000000000000000000600052603260045260246000fd5b7f4e487b7100000000000000000000000000000000000000000000000000000000600052604160045260246000fd5b600080fd5b600080fd5b600080fd5b600080fd5b6000601f19601f8301169050919050565b7f4552433732313a207472616e7366657220746f206e6f6e20455243373231526560008201527f63656976657220696d706c656d656e7465720000000000000000000000000000602082015250565b7f4f776e61626c653a206e6577206f776e657220697320746865207a65726f206160008201527f6464726573730000000000000000000000000000000000000000000000000000602082015250565b7f4552433732313a20746f6b656e20616c7265616479206d696e74656400000000600082015250565b7f4661696c656420746f2073656e64204574686572000000000000000000000000600082015250565b7f4552433732313a207472616e7366657220746f20746865207a65726f2061646460008201527f7265737300000000000000000000000000000000000000000000000000000000602082015250565b7f4552433732313a20617070726f766520746f2063616c6c657200000000000000600082015250565b7f4552433732313a206f70657261746f7220717565727920666f72206e6f6e657860008201527f697374656e7420746f6b656e0000000000000000000000000000000000000000602082015250565b7f4552433732313a20617070726f76652063616c6c6572206973206e6f74206f7760008201527f6e6572206e6f7220617070726f76656420666f7220616c6c0000000000000000602082015250565b7f4552433732313a2062616c616e636520717565727920666f7220746865207a6560008201527f726f206164647265737300000000000000000000000000000000000000000000602082015250565b7f4552433732313a206f776e657220717565727920666f72206e6f6e657869737460008201527f656e7420746f6b656e0000000000000000000000000000000000000000000000602082015250565b7f45524337323155524953746f726167653a2055524920736574206f66206e6f6e60008201527f6578697374656e7420746f6b656e000000000000000000000000000000000000602082015250565b7f4552433732313a206d696e7420746f20746865207a65726f2061646472657373600082015250565b7f45524337323155524953746f726167653a2055524920717565727920666f722060008201527f6e6f6e6578697374656e7420746f6b656e000000000000000000000000000000602082015250565b7f4552433732313a20617070726f76656420717565727920666f72206e6f6e657860008201527f697374656e7420746f6b656e0000000000000000000000000000000000000000602082015250565b7f4f776e61626c653a2063616c6c6572206973206e6f7420746865206f776e6572600082015250565b7f4552433732313a207472616e73666572206f6620746f6b656e2074686174206960008201527f73206e6f74206f776e0000000000000000000000000000000000000000000000602082015250565b7f4552433732314d657461646174613a2055524920717565727920666f72206e6f60008201527f6e6578697374656e7420746f6b656e0000000000000000000000000000000000602082015250565b7f496e76616c696420746f6b656e20494400000000000000000000000000000000600082015250565b7f4552433732313a20617070726f76616c20746f2063757272656e74206f776e6560008201527f7200000000000000000000000000000000000000000000000000000000000000602082015250565b50565b7f4552433732313a207472616e736665722063616c6c6572206973206e6f74206f60008201527f776e6572206e6f7220617070726f766564000000000000000000000000000000602082015250565b613c868161347d565b8114613c9157600080fd5b50565b613c9d8161348f565b8114613ca857600080fd5b50565b613cb4816134a1565b8114613cbf57600080fd5b50565b613ccb816134ad565b8114613cd657600080fd5b50565b613ce2816134f9565b8114613ced57600080fd5b5056fea264697066735822122081ba85a979b5253d45e93f4e52ec467941bb91ef34045a18e766836ed45cb75464736f6c63430008070033",
  "immutableReferences": {},
  "source": "//Contract based on [https://docs.openzeppelin.com/contracts/4.x/erc721](https://docs.openzeppelin.com/contracts/4.x/erc721)\n// SPDX-License-Identifier: MIT\npragma solidity 0.8.7;\n\n/// @title Kulfy Minting and Tipping Contract\n/// @notice You can use this contract for Minting GIFs & Video Clips as NFTs with Tips functionality.\n/// @dev All function calls are currently implemented without side effects\n\nimport \"@openzeppelin/contracts/utils/Counters.sol\";\nimport \"@openzeppelin/contracts/access/Ownable.sol\";\nimport \"@openzeppelin/contracts/token/ERC721/extensions/ERC721URIStorage.sol\";\nimport \"@openzeppelin/contracts/security/ReentrancyGuard.sol\";\n\ncontract KulfyV3 is ERC721URIStorage, Ownable, ReentrancyGuard {\n  \n    /// Mapping to store Kulfys\n    mapping(uint256 => Kulfy) public kulfys;\n\n    // Auto Counter for Token Ids\n    using Counters for Counters.Counter;\n    Counters.Counter public tokenIds;\n    \n    // gas limit for transactions\n    uint256 public gasLimit = 5000;\n\n    constructor() public ERC721(\"KULFY\", \"KUL\") {}\n\n    /// Structure of hold Kulfys\n    struct Kulfy {\n        uint256 id;\n        string kid;\n        string tokenURI;\n        string assetURI;\n        uint256 tipAmount;\n        address payable author;\n    }\n\n    /// This event is emmited when new Kulfy is created\n    event KulfyCreated(\n        uint256 id,\n        string tokenURI,\n        string assetURI,\n        string kid,\n        address payable author\n    );\n\n    /// This event is emmited when Tip is made\n    event KulfyTipped(\n        uint256 id,\n        string hash,\n        string kid,\n        uint256 tipAmount,\n        address payable author,\n        address tipper\n    );\n\n    /*\n     * This function is to Mint Kulfy as a NFT and setting the TokenURI\n     * @param  {[type]} address payable       author [Address of the Kulfy creator]\n     * @param  {[type]} string  memory        _tokenURI [IPFS URL of medadata of the Kulfy]\n     * @param  {[type]} string  memory        _assetURI [IPFS URL of the actual binary asset]\n     * @param  {[type]} string  memory        _kid      [KID is the unique id of Kulfy]) \n     * @return {[type]} uint256     [tokenID of the NFT in contract]\n     */\n    function mintNFT(\n        address payable author,\n        string memory _tokenURI,\n        string memory _assetURI,\n        string memory _kid\n    ) external returns (uint256) {\n\n        /// Increment tokenId\n        tokenIds.increment();\n        uint256 newItemId = tokenIds.current();\n\n        /// calling mint function ERC 721\n        _mint(author, newItemId);\n\n        /// calling setTokenURI from ERC721URIStorage\n        _setTokenURI(newItemId, _tokenURI);\n\n        /// update mapping with new Kulfy \n        kulfys[newItemId] = Kulfy(\n            newItemId,\n            _kid,\n            _tokenURI,\n            _assetURI,\n            0,\n            author\n        );\n\n        /// emit Kulfy minted event\n        emit KulfyCreated(newItemId,_tokenURI,_assetURI,_kid,author);\n\n        return newItemId;\n    }\n\n    /*\n     * This function is to transfer desired Tip amount from Tipper to Kulfy author\n     * @param  {[type]} uint256 _id           [tokenID of the NFT in the contract ]\n     * \n     * @return {[type]}                       [Transer Tip amount to creator via Internal Transfers]\n     */\n    function tipKulfyAuthor(uint256 _id, uint256 _gas) public payable {\n        /// Check valid tokenId\n        require(_id > 0 && _id <= tokenIds.current(), \"Invalid token ID\");\n        /// Check that gas doesn't exceed limit\n        require(_gas <= gasLimit);\n\n\n        /// Load specific Kulfy based on tokenId\n        Kulfy memory _kulfy = kulfys[_id];\n\n        /// Get author/creator address\n        address payable _author = _kulfy.author;\n\n        /// Transfer Tip amount to the creator\n        (bool sent, bytes memory data) = _author.call{value: msg.value, gas: _gas}(\"\");\n        require(sent, \"Failed to send Ether\");\n\n        /// Add new tip to the Kulfy's total tip amount\n        _kulfy.tipAmount = _kulfy.tipAmount + msg.value;\n\n        /// Update Kulfy record\n        kulfys[_id] = _kulfy;\n\n        /// Emit Tip Event\n        emit KulfyTipped(\n            _id,\n            _kulfy.tokenURI,\n            _kulfy.kid,\n            _kulfy.tipAmount,\n            _author,\n            msg.sender\n        );\n    }\n    \n    function changeGasLimit(uint256 newGasLimit) public onlyOwner {\n        //change gas limit, depending on changes to the EVM\n        gasLimit = newGasLimit;\n    }\n}\n",
  "sourcePath": "/Users/gkolluri/Documents/blockchain/kulfy3/src/contracts/KulfyV3.sol",
  "compiler": {
    "name": "solc",
    "version": "0.8.7+commit.e28d00a7.Emscripten.clang"
  },
  "schemaVersion": "3.4.3",
  "updatedAt": "2022-01-25T02:17:22.689Z",
  "networkType": "ethereum",
  "devdoc": {
    "kind": "dev",
    "methods": {
      "approve(address,uint256)": {
        "details": "See {IERC721-approve}."
      },
      "balanceOf(address)": {
        "details": "See {IERC721-balanceOf}."
      },
      "getApproved(uint256)": {
        "details": "See {IERC721-getApproved}."
      },
      "isApprovedForAll(address,address)": {
        "details": "See {IERC721-isApprovedForAll}."
      },
      "name()": {
        "details": "See {IERC721Metadata-name}."
      },
      "owner()": {
        "details": "Returns the address of the current owner."
      },
      "ownerOf(uint256)": {
        "details": "See {IERC721-ownerOf}."
      },
      "renounceOwnership()": {
        "details": "Leaves the contract without owner. It will not be possible to call `onlyOwner` functions anymore. Can only be called by the current owner. NOTE: Renouncing ownership will leave the contract without an owner, thereby removing any functionality that is only available to the owner."
      },
      "safeTransferFrom(address,address,uint256)": {
        "details": "See {IERC721-safeTransferFrom}."
      },
      "safeTransferFrom(address,address,uint256,bytes)": {
        "details": "See {IERC721-safeTransferFrom}."
      },
      "setApprovalForAll(address,bool)": {
        "details": "See {IERC721-setApprovalForAll}."
      },
      "supportsInterface(bytes4)": {
        "details": "See {IERC165-supportsInterface}."
      },
      "symbol()": {
        "details": "See {IERC721Metadata-symbol}."
      },
      "tokenURI(uint256)": {
        "details": "See {IERC721Metadata-tokenURI}."
      },
      "transferFrom(address,address,uint256)": {
        "details": "See {IERC721-transferFrom}."
      },
      "transferOwnership(address)": {
        "details": "Transfers ownership of the contract to a new account (`newOwner`). Can only be called by the current owner."
      }
    },
    "version": 1
  },
  "userdoc": {
    "events": {
      "KulfyCreated(uint256,string,string,string,address)": {
        "notice": "This event is emmited when new Kulfy is created"
      },
      "KulfyTipped(uint256,string,string,uint256,address,address)": {
        "notice": "This event is emmited when Tip is made"
      }
    },
    "kind": "user",
    "methods": {
      "kulfys(uint256)": {
        "notice": "Mapping to store Kulfys"
      }
    },
    "version": 1
  }
}