{
  "contractName": "KulfyV3",
  "abi": [
    {
      "inputs": [],
      "stateMutability": "nonpayable",
      "type": "constructor"
    },
    {
      "anonymous": false,
      "inputs": [
        {
          "indexed": true,
          "internalType": "address",
          "name": "owner",
          "type": "address"
        },
        {
          "indexed": true,
          "internalType": "address",
          "name": "approved",
          "type": "address"
        },
        {
          "indexed": true,
          "internalType": "uint256",
          "name": "tokenId",
          "type": "uint256"
        }
      ],
      "name": "Approval",
      "type": "event"
    },
    {
      "anonymous": false,
      "inputs": [
        {
          "indexed": true,
          "internalType": "address",
          "name": "owner",
          "type": "address"
        },
        {
          "indexed": true,
          "internalType": "address",
          "name": "operator",
          "type": "address"
        },
        {
          "indexed": false,
          "internalType": "bool",
          "name": "approved",
          "type": "bool"
        }
      ],
      "name": "ApprovalForAll",
      "type": "event"
    },
    {
      "anonymous": false,
      "inputs": [
        {
          "indexed": false,
          "internalType": "uint256",
          "name": "id",
          "type": "uint256"
        },
        {
          "indexed": false,
          "internalType": "string",
          "name": "hash",
          "type": "string"
        },
        {
          "indexed": false,
          "internalType": "string",
          "name": "description",
          "type": "string"
        },
        {
          "indexed": false,
          "internalType": "uint256",
          "name": "tipAmount",
          "type": "uint256"
        },
        {
          "indexed": false,
          "internalType": "address payable",
          "name": "author",
          "type": "address"
        }
      ],
      "name": "KulfyCreated",
      "type": "event"
    },
    {
      "anonymous": false,
      "inputs": [
        {
          "indexed": false,
          "internalType": "uint256",
          "name": "id",
          "type": "uint256"
        },
        {
          "indexed": false,
          "internalType": "string",
          "name": "hash",
          "type": "string"
        },
        {
          "indexed": false,
          "internalType": "string",
          "name": "description",
          "type": "string"
        },
        {
          "indexed": false,
          "internalType": "uint256",
          "name": "tipAmount",
          "type": "uint256"
        },
        {
          "indexed": false,
          "internalType": "address payable",
          "name": "author",
          "type": "address"
        }
      ],
      "name": "KulfyTipped",
      "type": "event"
    },
    {
      "anonymous": false,
      "inputs": [
        {
          "indexed": true,
          "internalType": "address",
          "name": "previousOwner",
          "type": "address"
        },
        {
          "indexed": true,
          "internalType": "address",
          "name": "newOwner",
          "type": "address"
        }
      ],
      "name": "OwnershipTransferred",
      "type": "event"
    },
    {
      "anonymous": false,
      "inputs": [
        {
          "indexed": true,
          "internalType": "address",
          "name": "from",
          "type": "address"
        },
        {
          "indexed": true,
          "internalType": "address",
          "name": "to",
          "type": "address"
        },
        {
          "indexed": true,
          "internalType": "uint256",
          "name": "tokenId",
          "type": "uint256"
        }
      ],
      "name": "Transfer",
      "type": "event"
    },
    {
      "inputs": [
        {
          "internalType": "address",
          "name": "to",
          "type": "address"
        },
        {
          "internalType": "uint256",
          "name": "tokenId",
          "type": "uint256"
        }
      ],
      "name": "approve",
      "outputs": [],
      "stateMutability": "nonpayable",
      "type": "function"
    },
    {
      "inputs": [
        {
          "internalType": "address",
          "name": "owner",
          "type": "address"
        }
      ],
      "name": "balanceOf",
      "outputs": [
        {
          "internalType": "uint256",
          "name": "",
          "type": "uint256"
        }
      ],
      "stateMutability": "view",
      "type": "function"
    },
    {
      "inputs": [
        {
          "internalType": "uint256",
          "name": "tokenId",
          "type": "uint256"
        }
      ],
      "name": "getApproved",
      "outputs": [
        {
          "internalType": "address",
          "name": "",
          "type": "address"
        }
      ],
      "stateMutability": "view",
      "type": "function"
    },
    {
      "inputs": [
        {
          "internalType": "address",
          "name": "owner",
          "type": "address"
        },
        {
          "internalType": "address",
          "name": "operator",
          "type": "address"
        }
      ],
      "name": "isApprovedForAll",
      "outputs": [
        {
          "internalType": "bool",
          "name": "",
          "type": "bool"
        }
      ],
      "stateMutability": "view",
      "type": "function"
    },
    {
      "inputs": [
        {
          "internalType": "uint256",
          "name": "",
          "type": "uint256"
        }
      ],
      "name": "kulfies",
      "outputs": [
        {
          "internalType": "uint256",
          "name": "id",
          "type": "uint256"
        },
        {
          "internalType": "string",
          "name": "description",
          "type": "string"
        },
        {
          "internalType": "string",
          "name": "tokenURI",
          "type": "string"
        },
        {
          "internalType": "uint256",
          "name": "tipAmount",
          "type": "uint256"
        },
        {
          "internalType": "address payable",
          "name": "author",
          "type": "address"
        }
      ],
      "stateMutability": "view",
      "type": "function"
    },
    {
      "inputs": [],
      "name": "name",
      "outputs": [
        {
          "internalType": "string",
          "name": "",
          "type": "string"
        }
      ],
      "stateMutability": "view",
      "type": "function"
    },
    {
      "inputs": [],
      "name": "owner",
      "outputs": [
        {
          "internalType": "address",
          "name": "",
          "type": "address"
        }
      ],
      "stateMutability": "view",
      "type": "function"
    },
    {
      "inputs": [
        {
          "internalType": "uint256",
          "name": "tokenId",
          "type": "uint256"
        }
      ],
      "name": "ownerOf",
      "outputs": [
        {
          "internalType": "address",
          "name": "",
          "type": "address"
        }
      ],
      "stateMutability": "view",
      "type": "function"
    },
    {
      "inputs": [],
      "name": "renounceOwnership",
      "outputs": [],
      "stateMutability": "nonpayable",
      "type": "function"
    },
    {
      "inputs": [
        {
          "internalType": "address",
          "name": "from",
          "type": "address"
        },
        {
          "internalType": "address",
          "name": "to",
          "type": "address"
        },
        {
          "internalType": "uint256",
          "name": "tokenId",
          "type": "uint256"
        }
      ],
      "name": "safeTransferFrom",
      "outputs": [],
      "stateMutability": "nonpayable",
      "type": "function"
    },
    {
      "inputs": [
        {
          "internalType": "address",
          "name": "from",
          "type": "address"
        },
        {
          "internalType": "address",
          "name": "to",
          "type": "address"
        },
        {
          "internalType": "uint256",
          "name": "tokenId",
          "type": "uint256"
        },
        {
          "internalType": "bytes",
          "name": "_data",
          "type": "bytes"
        }
      ],
      "name": "safeTransferFrom",
      "outputs": [],
      "stateMutability": "nonpayable",
      "type": "function"
    },
    {
      "inputs": [
        {
          "internalType": "address",
          "name": "operator",
          "type": "address"
        },
        {
          "internalType": "bool",
          "name": "approved",
          "type": "bool"
        }
      ],
      "name": "setApprovalForAll",
      "outputs": [],
      "stateMutability": "nonpayable",
      "type": "function"
    },
    {
      "inputs": [
        {
          "internalType": "bytes4",
          "name": "interfaceId",
          "type": "bytes4"
        }
      ],
      "name": "supportsInterface",
      "outputs": [
        {
          "internalType": "bool",
          "name": "",
          "type": "bool"
        }
      ],
      "stateMutability": "view",
      "type": "function"
    },
    {
      "inputs": [],
      "name": "symbol",
      "outputs": [
        {
          "internalType": "string",
          "name": "",
          "type": "string"
        }
      ],
      "stateMutability": "view",
      "type": "function"
    },
    {
      "inputs": [
        {
          "internalType": "uint256",
          "name": "tokenId",
          "type": "uint256"
        }
      ],
      "name": "tokenURI",
      "outputs": [
        {
          "internalType": "string",
          "name": "",
          "type": "string"
        }
      ],
      "stateMutability": "view",
      "type": "function"
    },
    {
      "inputs": [
        {
          "internalType": "address",
          "name": "from",
          "type": "address"
        },
        {
          "internalType": "address",
          "name": "to",
          "type": "address"
        },
        {
          "internalType": "uint256",
          "name": "tokenId",
          "type": "uint256"
        }
      ],
      "name": "transferFrom",
      "outputs": [],
      "stateMutability": "nonpayable",
      "type": "function"
    },
    {
      "inputs": [
        {
          "internalType": "address",
          "name": "newOwner",
          "type": "address"
        }
      ],
      "name": "transferOwnership",
      "outputs": [],
      "stateMutability": "nonpayable",
      "type": "function"
    },
    {
      "inputs": [
        {
          "internalType": "address payable",
          "name": "recipient",
          "type": "address"
        },
        {
          "internalType": "string",
          "name": "_tokenURI",
          "type": "string"
        },
        {
          "internalType": "string",
          "name": "_description",
          "type": "string"
        }
      ],
      "name": "mintNFT",
      "outputs": [
        {
          "internalType": "uint256",
          "name": "",
          "type": "uint256"
        }
      ],
      "stateMutability": "nonpayable",
      "type": "function"
    },
    {
      "inputs": [
        {
          "internalType": "uint256",
          "name": "_id",
          "type": "uint256"
        }
      ],
      "name": "tipKulfyOwner",
      "outputs": [],
      "stateMutability": "payable",
      "type": "function"
    }
  ],
  "bytecode": "0x60806040523480156200001157600080fd5b506040518060400160405280600581526020017f4b554c46590000000000000000000000000000000000000000000000000000008152506040518060400160405280600381526020017f4b554c0000000000000000000000000000000000000000000000000000000000815250816000908051906020019062000096929190620001a6565b508060019080519060200190620000af929190620001a6565b505050620000d2620000c6620000d860201b60201c565b620000e060201b60201c565b620002bb565b600033905090565b6000600760009054906101000a900473ffffffffffffffffffffffffffffffffffffffff16905081600760006101000a81548173ffffffffffffffffffffffffffffffffffffffff021916908373ffffffffffffffffffffffffffffffffffffffff1602179055508173ffffffffffffffffffffffffffffffffffffffff168173ffffffffffffffffffffffffffffffffffffffff167f8be0079c531659141344cd1fd0a4f28419497f9722a3daafe3b4186f6b6457e060405160405180910390a35050565b828054620001b49062000256565b90600052602060002090601f016020900481019282620001d8576000855562000224565b82601f10620001f357805160ff191683800117855562000224565b8280016001018555821562000224579182015b828111156200022357825182559160200191906001019062000206565b5b50905062000233919062000237565b5090565b5b808211156200025257600081600090555060010162000238565b5090565b600060028204905060018216806200026f57607f821691505b602082108114156200028657620002856200028c565b5b50919050565b7f4e487b7100000000000000000000000000000000000000000000000000000000600052602260045260246000fd5b61371f80620002cb6000396000f3fe6080604052600436106101145760003560e01c806370a08231116100a0578063a3ee38ae11610064578063a3ee38ae146103a6578063b88d4fde146103e3578063c87b56dd1461040c578063e985e9c514610449578063f2fde38b1461048657610114565b806370a08231146102d3578063715018a6146103105780638da5cb5b1461032757806395d89b4114610352578063a22cb4651461037d57610114565b806323b872dd116100e757806323b872dd146101e757806326febf2d1461021057806342842e0e146102515780635b0dbf461461027a5780636352211e1461029657610114565b806301ffc9a71461011957806306fdde0314610156578063081812fc14610181578063095ea7b3146101be575b600080fd5b34801561012557600080fd5b50610140600480360381019061013b91906125e6565b6104af565b60405161014d9190612a4d565b60405180910390f35b34801561016257600080fd5b5061016b610591565b6040516101789190612a68565b60405180910390f35b34801561018d57600080fd5b506101a860048036038101906101a39190612640565b610623565b6040516101b591906129e6565b60405180910390f35b3480156101ca57600080fd5b506101e560048036038101906101e091906125a6565b6106a8565b005b3480156101f357600080fd5b5061020e60048036038101906102099190612490565b6107c0565b005b34801561021c57600080fd5b5061023760048036038101906102329190612640565b610820565b604051610248959493929190612ce5565b60405180910390f35b34801561025d57600080fd5b5061027860048036038101906102739190612490565b610986565b005b610294600480360381019061028f9190612640565b6109a6565b005b3480156102a257600080fd5b506102bd60048036038101906102b89190612640565b610cdd565b6040516102ca91906129e6565b60405180910390f35b3480156102df57600080fd5b506102fa60048036038101906102f59190612398565b610d8f565b6040516103079190612cca565b60405180910390f35b34801561031c57600080fd5b50610325610e47565b005b34801561033357600080fd5b5061033c610ecf565b60405161034991906129e6565b60405180910390f35b34801561035e57600080fd5b50610367610ef9565b6040516103749190612a68565b60405180910390f35b34801561038957600080fd5b506103a4600480360381019061039f9190612566565b610f8b565b005b3480156103b257600080fd5b506103cd60048036038101906103c891906123c5565b610fa1565b6040516103da9190612cca565b60405180910390f35b3480156103ef57600080fd5b5061040a600480360381019061040591906124e3565b6110c3565b005b34801561041857600080fd5b50610433600480360381019061042e9190612640565b611125565b6040516104409190612a68565b60405180910390f35b34801561045557600080fd5b50610470600480360381019061046b9190612450565b611277565b60405161047d9190612a4d565b60405180910390f35b34801561049257600080fd5b506104ad60048036038101906104a89190612398565b61130b565b005b60007f80ac58cd000000000000000000000000000000000000000000000000000000007bffffffffffffffffffffffffffffffffffffffffffffffffffffffff1916827bffffffffffffffffffffffffffffffffffffffffffffffffffffffff1916148061057a57507f5b5e139f000000000000000000000000000000000000000000000000000000007bffffffffffffffffffffffffffffffffffffffffffffffffffffffff1916827bffffffffffffffffffffffffffffffffffffffffffffffffffffffff1916145b8061058a575061058982611403565b5b9050919050565b6060600080546105a090612f93565b80601f01602080910402602001604051908101604052809291908181526020018280546105cc90612f93565b80156106195780601f106105ee57610100808354040283529160200191610619565b820191906000526020600020905b8154815290600101906020018083116105fc57829003601f168201915b5050505050905090565b600061062e8261146d565b61066d576040517f08c379a000000000000000000000000000000000000000000000000000000000815260040161066490612c0a565b60405180910390fd5b6004600083815260200190815260200160002060009054906101000a900473ffffffffffffffffffffffffffffffffffffffff169050919050565b60006106b382610cdd565b90508073ffffffffffffffffffffffffffffffffffffffff168373ffffffffffffffffffffffffffffffffffffffff161415610724576040517f08c379a000000000000000000000000000000000000000000000000000000000815260040161071b90612c8a565b60405180910390fd5b8073ffffffffffffffffffffffffffffffffffffffff166107436114d9565b73ffffffffffffffffffffffffffffffffffffffff16148061077257506107718161076c6114d9565b611277565b5b6107b1576040517f08c379a00000000000000000000000000000000000000000000000000000000081526004016107a890612b4a565b60405180910390fd5b6107bb83836114e1565b505050565b6107d16107cb6114d9565b8261159a565b610810576040517f08c379a000000000000000000000000000000000000000000000000000000000815260040161080790612caa565b60405180910390fd5b61081b838383611678565b505050565b600860205280600052604060002060009150905080600001549080600101805461084990612f93565b80601f016020809104026020016040519081016040528092919081815260200182805461087590612f93565b80156108c25780601f10610897576101008083540402835291602001916108c2565b820191906000526020600020905b8154815290600101906020018083116108a557829003601f168201915b5050505050908060020180546108d790612f93565b80601f016020809104026020016040519081016040528092919081815260200182805461090390612f93565b80156109505780601f1061092557610100808354040283529160200191610950565b820191906000526020600020905b81548152906001019060200180831161093357829003601f168201915b5050505050908060030154908060040160009054906101000a900473ffffffffffffffffffffffffffffffffffffffff16905085565b6109a1838383604051806020016040528060008152506110c3565b505050565b6000811180156109bf57506109bb60096118d4565b8111155b6109c857600080fd5b6000600860008381526020019081526020016000206040518060a001604052908160008201548152602001600182018054610a0290612f93565b80601f0160208091040260200160405190810160405280929190818152602001828054610a2e90612f93565b8015610a7b5780601f10610a5057610100808354040283529160200191610a7b565b820191906000526020600020905b815481529060010190602001808311610a5e57829003601f168201915b50505050508152602001600282018054610a9490612f93565b80601f0160208091040260200160405190810160405280929190818152602001828054610ac090612f93565b8015610b0d5780601f10610ae257610100808354040283529160200191610b0d565b820191906000526020600020905b815481529060010190602001808311610af057829003601f168201915b50505050508152602001600382015481526020016004820160009054906101000a900473ffffffffffffffffffffffffffffffffffffffff1673ffffffffffffffffffffffffffffffffffffffff1673ffffffffffffffffffffffffffffffffffffffff168152505090506000816080015190508073ffffffffffffffffffffffffffffffffffffffff166108fc349081150290604051600060405180830381858888f19350505050158015610bc7573d6000803e3d6000fd5b50348260600151610bd89190612e10565b8260600181815250508160086000858152602001908152602001600020600082015181600001556020820151816001019080519060200190610c1b929190612197565b506040820151816002019080519060200190610c38929190612197565b506060820151816003015560808201518160040160006101000a81548173ffffffffffffffffffffffffffffffffffffffff021916908373ffffffffffffffffffffffffffffffffffffffff1602179055509050507f44b8eb1804df071e840af6d95361a2ada05b8e3bf78457a983dd7bae699b7acc8383604001518460200151856060015185604051610cd0959493929190612ce5565b60405180910390a1505050565b6000806002600084815260200190815260200160002060009054906101000a900473ffffffffffffffffffffffffffffffffffffffff169050600073ffffffffffffffffffffffffffffffffffffffff168173ffffffffffffffffffffffffffffffffffffffff161415610d86576040517f08c379a0000000000000000000000000000000000000000000000000000000008152600401610d7d90612b8a565b60405180910390fd5b80915050919050565b60008073ffffffffffffffffffffffffffffffffffffffff168273ffffffffffffffffffffffffffffffffffffffff161415610e00576040517f08c379a0000000000000000000000000000000000000000000000000000000008152600401610df790612b6a565b60405180910390fd5b600360008373ffffffffffffffffffffffffffffffffffffffff1673ffffffffffffffffffffffffffffffffffffffff168152602001908152602001600020549050919050565b610e4f6114d9565b73ffffffffffffffffffffffffffffffffffffffff16610e6d610ecf565b73ffffffffffffffffffffffffffffffffffffffff1614610ec3576040517f08c379a0000000000000000000000000000000000000000000000000000000008152600401610eba90612c2a565b60405180910390fd5b610ecd60006118e2565b565b6000600760009054906101000a900473ffffffffffffffffffffffffffffffffffffffff16905090565b606060018054610f0890612f93565b80601f0160208091040260200160405190810160405280929190818152602001828054610f3490612f93565b8015610f815780601f10610f5657610100808354040283529160200191610f81565b820191906000526020600020905b815481529060010190602001808311610f6457829003601f168201915b5050505050905090565b610f9d610f966114d9565b83836119a8565b5050565b6000610fad6009611b15565b6000610fb960096118d4565b9050610fc58582611b2b565b610fcf8185611cf9565b6040518060a00160405280828152602001848152602001858152602001600081526020018673ffffffffffffffffffffffffffffffffffffffff1681525060086000838152602001908152602001600020600082015181600001556020820151816001019080519060200190611046929190612197565b506040820151816002019080519060200190611063929190612197565b506060820151816003015560808201518160040160006101000a81548173ffffffffffffffffffffffffffffffffffffffff021916908373ffffffffffffffffffffffffffffffffffffffff160217905550905050809150509392505050565b6110d46110ce6114d9565b8361159a565b611113576040517f08c379a000000000000000000000000000000000000000000000000000000000815260040161110a90612caa565b60405180910390fd5b61111f84848484611d6d565b50505050565b60606111308261146d565b61116f576040517f08c379a000000000000000000000000000000000000000000000000000000000815260040161116690612bea565b60405180910390fd5b600060066000848152602001908152602001600020805461118f90612f93565b80601f01602080910402602001604051908101604052809291908181526020018280546111bb90612f93565b80156112085780601f106111dd57610100808354040283529160200191611208565b820191906000526020600020905b8154815290600101906020018083116111eb57829003601f168201915b505050505090506000611219611dc9565b905060008151141561122f578192505050611272565b60008251111561126457808260405160200161124c9291906129c2565b60405160208183030381529060405292505050611272565b61126d84611de0565b925050505b919050565b6000600560008473ffffffffffffffffffffffffffffffffffffffff1673ffffffffffffffffffffffffffffffffffffffff16815260200190815260200160002060008373ffffffffffffffffffffffffffffffffffffffff1673ffffffffffffffffffffffffffffffffffffffff16815260200190815260200160002060009054906101000a900460ff16905092915050565b6113136114d9565b73ffffffffffffffffffffffffffffffffffffffff16611331610ecf565b73ffffffffffffffffffffffffffffffffffffffff1614611387576040517f08c379a000000000000000000000000000000000000000000000000000000000815260040161137e90612c2a565b60405180910390fd5b600073ffffffffffffffffffffffffffffffffffffffff168173ffffffffffffffffffffffffffffffffffffffff1614156113f7576040517f08c379a00000000000000000000000000000000000000000000000000000000081526004016113ee90612aaa565b60405180910390fd5b611400816118e2565b50565b60007f01ffc9a7000000000000000000000000000000000000000000000000000000007bffffffffffffffffffffffffffffffffffffffffffffffffffffffff1916827bffffffffffffffffffffffffffffffffffffffffffffffffffffffff1916149050919050565b60008073ffffffffffffffffffffffffffffffffffffffff166002600084815260200190815260200160002060009054906101000a900473ffffffffffffffffffffffffffffffffffffffff1673ffffffffffffffffffffffffffffffffffffffff1614159050919050565b600033905090565b816004600083815260200190815260200160002060006101000a81548173ffffffffffffffffffffffffffffffffffffffff021916908373ffffffffffffffffffffffffffffffffffffffff160217905550808273ffffffffffffffffffffffffffffffffffffffff1661155483610cdd565b73ffffffffffffffffffffffffffffffffffffffff167f8c5be1e5ebec7d5bd14f71427d1e84f3dd0314c0f7b2291e5b200ac8c7c3b92560405160405180910390a45050565b60006115a58261146d565b6115e4576040517f08c379a00000000000000000000000000000000000000000000000000000000081526004016115db90612b2a565b60405180910390fd5b60006115ef83610cdd565b90508073ffffffffffffffffffffffffffffffffffffffff168473ffffffffffffffffffffffffffffffffffffffff16148061165e57508373ffffffffffffffffffffffffffffffffffffffff1661164684610623565b73ffffffffffffffffffffffffffffffffffffffff16145b8061166f575061166e8185611277565b5b91505092915050565b8273ffffffffffffffffffffffffffffffffffffffff1661169882610cdd565b73ffffffffffffffffffffffffffffffffffffffff16146116ee576040517f08c379a00000000000000000000000000000000000000000000000000000000081526004016116e590612c4a565b60405180910390fd5b600073ffffffffffffffffffffffffffffffffffffffff168273ffffffffffffffffffffffffffffffffffffffff16141561175e576040517f08c379a000000000000000000000000000000000000000000000000000000000815260040161175590612aea565b60405180910390fd5b611769838383611e87565b6117746000826114e1565b6001600360008573ffffffffffffffffffffffffffffffffffffffff1673ffffffffffffffffffffffffffffffffffffffff16815260200190815260200160002060008282546117c49190612e97565b925050819055506001600360008473ffffffffffffffffffffffffffffffffffffffff1673ffffffffffffffffffffffffffffffffffffffff168152602001908152602001600020600082825461181b9190612e10565b92505081905550816002600083815260200190815260200160002060006101000a81548173ffffffffffffffffffffffffffffffffffffffff021916908373ffffffffffffffffffffffffffffffffffffffff160217905550808273ffffffffffffffffffffffffffffffffffffffff168473ffffffffffffffffffffffffffffffffffffffff167fddf252ad1be2c89b69c2b068fc378daa952ba7f163c4a11628f55a4df523b3ef60405160405180910390a4505050565b600081600001549050919050565b6000600760009054906101000a900473ffffffffffffffffffffffffffffffffffffffff16905081600760006101000a81548173ffffffffffffffffffffffffffffffffffffffff021916908373ffffffffffffffffffffffffffffffffffffffff1602179055508173ffffffffffffffffffffffffffffffffffffffff168173ffffffffffffffffffffffffffffffffffffffff167f8be0079c531659141344cd1fd0a4f28419497f9722a3daafe3b4186f6b6457e060405160405180910390a35050565b8173ffffffffffffffffffffffffffffffffffffffff168373ffffffffffffffffffffffffffffffffffffffff161415611a17576040517f08c379a0000000000000000000000000000000000000000000000000000000008152600401611a0e90612b0a565b60405180910390fd5b80600560008573ffffffffffffffffffffffffffffffffffffffff1673ffffffffffffffffffffffffffffffffffffffff16815260200190815260200160002060008473ffffffffffffffffffffffffffffffffffffffff1673ffffffffffffffffffffffffffffffffffffffff16815260200190815260200160002060006101000a81548160ff0219169083151502179055508173ffffffffffffffffffffffffffffffffffffffff168373ffffffffffffffffffffffffffffffffffffffff167f17307eab39ab6107e8899845ad3d59bd9653f200f220920489ca2b5937696c3183604051611b089190612a4d565b60405180910390a3505050565b6001816000016000828254019250508190555050565b600073ffffffffffffffffffffffffffffffffffffffff168273ffffffffffffffffffffffffffffffffffffffff161415611b9b576040517f08c379a0000000000000000000000000000000000000000000000000000000008152600401611b9290612bca565b60405180910390fd5b611ba48161146d565b15611be4576040517f08c379a0000000000000000000000000000000000000000000000000000000008152600401611bdb90612aca565b60405180910390fd5b611bf060008383611e87565b6001600360008473ffffffffffffffffffffffffffffffffffffffff1673ffffffffffffffffffffffffffffffffffffffff1681526020019081526020016000206000828254611c409190612e10565b92505081905550816002600083815260200190815260200160002060006101000a81548173ffffffffffffffffffffffffffffffffffffffff021916908373ffffffffffffffffffffffffffffffffffffffff160217905550808273ffffffffffffffffffffffffffffffffffffffff16600073ffffffffffffffffffffffffffffffffffffffff167fddf252ad1be2c89b69c2b068fc378daa952ba7f163c4a11628f55a4df523b3ef60405160405180910390a45050565b611d028261146d565b611d41576040517f08c379a0000000000000000000000000000000000000000000000000000000008152600401611d3890612baa565b60405180910390fd5b80600660008481526020019081526020016000209080519060200190611d68929190612197565b505050565b611d78848484611678565b611d8484848484611e8c565b611dc3576040517f08c379a0000000000000000000000000000000000000000000000000000000008152600401611dba90612a8a565b60405180910390fd5b50505050565b606060405180602001604052806000815250905090565b6060611deb8261146d565b611e2a576040517f08c379a0000000000000000000000000000000000000000000000000000000008152600401611e2190612c6a565b60405180910390fd5b6000611e34611dc9565b90506000815111611e545760405180602001604052806000815250611e7f565b80611e5e84612023565b604051602001611e6f9291906129c2565b6040516020818303038152906040525b915050919050565b505050565b6000611ead8473ffffffffffffffffffffffffffffffffffffffff16612184565b15612016578373ffffffffffffffffffffffffffffffffffffffff1663150b7a02611ed66114d9565b8786866040518563ffffffff1660e01b8152600401611ef89493929190612a01565b602060405180830381600087803b158015611f1257600080fd5b505af1925050508015611f4357506040513d601f19601f82011682018060405250810190611f409190612613565b60015b611fc6573d8060008114611f73576040519150601f19603f3d011682016040523d82523d6000602084013e611f78565b606091505b50600081511415611fbe576040517f08c379a0000000000000000000000000000000000000000000000000000000008152600401611fb590612a8a565b60405180910390fd5b805181602001fd5b63150b7a0260e01b7bffffffffffffffffffffffffffffffffffffffffffffffffffffffff1916817bffffffffffffffffffffffffffffffffffffffffffffffffffffffff19161491505061201b565b600190505b949350505050565b6060600082141561206b576040518060400160405280600181526020017f3000000000000000000000000000000000000000000000000000000000000000815250905061217f565b600082905060005b6000821461209d57808061208690612ff6565b915050600a826120969190612e66565b9150612073565b60008167ffffffffffffffff8111156120b9576120b861312c565b5b6040519080825280601f01601f1916602001820160405280156120eb5781602001600182028036833780820191505090505b5090505b60008514612178576001826121049190612e97565b9150600a85612113919061303f565b603061211f9190612e10565b60f81b818381518110612135576121346130fd565b5b60200101907effffffffffffffffffffffffffffffffffffffffffffffffffffffffffffff1916908160001a905350600a856121719190612e66565b94506120ef565b8093505050505b919050565b600080823b905060008111915050919050565b8280546121a390612f93565b90600052602060002090601f0160209004810192826121c5576000855561220c565b82601f106121de57805160ff191683800117855561220c565b8280016001018555821561220c579182015b8281111561220b5782518255916020019190600101906121f0565b5b509050612219919061221d565b5090565b5b8082111561223657600081600090555060010161221e565b5090565b600061224d61224884612d6b565b612d46565b90508281526020810184848401111561226957612268613160565b5b612274848285612f51565b509392505050565b600061228f61228a84612d9c565b612d46565b9050828152602081018484840111156122ab576122aa613160565b5b6122b6848285612f51565b509392505050565b6000813590506122cd81613676565b92915050565b6000813590506122e28161368d565b92915050565b6000813590506122f7816136a4565b92915050565b60008135905061230c816136bb565b92915050565b600081519050612321816136bb565b92915050565b600082601f83011261233c5761233b61315b565b5b813561234c84826020860161223a565b91505092915050565b600082601f83011261236a5761236961315b565b5b813561237a84826020860161227c565b91505092915050565b600081359050612392816136d2565b92915050565b6000602082840312156123ae576123ad61316a565b5b60006123bc848285016122be565b91505092915050565b6000806000606084860312156123de576123dd61316a565b5b60006123ec868287016122d3565b935050602084013567ffffffffffffffff81111561240d5761240c613165565b5b61241986828701612355565b925050604084013567ffffffffffffffff81111561243a57612439613165565b5b61244686828701612355565b9150509250925092565b600080604083850312156124675761246661316a565b5b6000612475858286016122be565b9250506020612486858286016122be565b9150509250929050565b6000806000606084860312156124a9576124a861316a565b5b60006124b7868287016122be565b93505060206124c8868287016122be565b92505060406124d986828701612383565b9150509250925092565b600080600080608085870312156124fd576124fc61316a565b5b600061250b878288016122be565b945050602061251c878288016122be565b935050604061252d87828801612383565b925050606085013567ffffffffffffffff81111561254e5761254d613165565b5b61255a87828801612327565b91505092959194509250565b6000806040838503121561257d5761257c61316a565b5b600061258b858286016122be565b925050602061259c858286016122e8565b9150509250929050565b600080604083850312156125bd576125bc61316a565b5b60006125cb858286016122be565b92505060206125dc85828601612383565b9150509250929050565b6000602082840312156125fc576125fb61316a565b5b600061260a848285016122fd565b91505092915050565b6000602082840312156126295761262861316a565b5b600061263784828501612312565b91505092915050565b6000602082840312156126565761265561316a565b5b600061266484828501612383565b91505092915050565b61267681612edd565b82525050565b61268581612ecb565b82525050565b61269481612eef565b82525050565b60006126a582612dcd565b6126af8185612de3565b93506126bf818560208601612f60565b6126c88161316f565b840191505092915050565b60006126de82612dd8565b6126e88185612df4565b93506126f8818560208601612f60565b6127018161316f565b840191505092915050565b600061271782612dd8565b6127218185612e05565b9350612731818560208601612f60565b80840191505092915050565b600061274a603283612df4565b915061275582613180565b604082019050919050565b600061276d602683612df4565b9150612778826131cf565b604082019050919050565b6000612790601c83612df4565b915061279b8261321e565b602082019050919050565b60006127b3602483612df4565b91506127be82613247565b604082019050919050565b60006127d6601983612df4565b91506127e182613296565b602082019050919050565b60006127f9602c83612df4565b9150612804826132bf565b604082019050919050565b600061281c603883612df4565b91506128278261330e565b604082019050919050565b600061283f602a83612df4565b915061284a8261335d565b604082019050919050565b6000612862602983612df4565b915061286d826133ac565b604082019050919050565b6000612885602e83612df4565b9150612890826133fb565b604082019050919050565b60006128a8602083612df4565b91506128b38261344a565b602082019050919050565b60006128cb603183612df4565b91506128d682613473565b604082019050919050565b60006128ee602c83612df4565b91506128f9826134c2565b604082019050919050565b6000612911602083612df4565b915061291c82613511565b602082019050919050565b6000612934602983612df4565b915061293f8261353a565b604082019050919050565b6000612957602f83612df4565b915061296282613589565b604082019050919050565b600061297a602183612df4565b9150612985826135d8565b604082019050919050565b600061299d603183612df4565b91506129a882613627565b604082019050919050565b6129bc81612f47565b82525050565b60006129ce828561270c565b91506129da828461270c565b91508190509392505050565b60006020820190506129fb600083018461267c565b92915050565b6000608082019050612a16600083018761267c565b612a23602083018661267c565b612a3060408301856129b3565b8181036060830152612a42818461269a565b905095945050505050565b6000602082019050612a62600083018461268b565b92915050565b60006020820190508181036000830152612a8281846126d3565b905092915050565b60006020820190508181036000830152612aa38161273d565b9050919050565b60006020820190508181036000830152612ac381612760565b9050919050565b60006020820190508181036000830152612ae381612783565b9050919050565b60006020820190508181036000830152612b03816127a6565b9050919050565b60006020820190508181036000830152612b23816127c9565b9050919050565b60006020820190508181036000830152612b43816127ec565b9050919050565b60006020820190508181036000830152612b638161280f565b9050919050565b60006020820190508181036000830152612b8381612832565b9050919050565b60006020820190508181036000830152612ba381612855565b9050919050565b60006020820190508181036000830152612bc381612878565b9050919050565b60006020820190508181036000830152612be38161289b565b9050919050565b60006020820190508181036000830152612c03816128be565b9050919050565b60006020820190508181036000830152612c23816128e1565b9050919050565b60006020820190508181036000830152612c4381612904565b9050919050565b60006020820190508181036000830152612c6381612927565b9050919050565b60006020820190508181036000830152612c838161294a565b9050919050565b60006020820190508181036000830152612ca38161296d565b9050919050565b60006020820190508181036000830152612cc381612990565b9050919050565b6000602082019050612cdf60008301846129b3565b92915050565b600060a082019050612cfa60008301886129b3565b8181036020830152612d0c81876126d3565b90508181036040830152612d2081866126d3565b9050612d2f60608301856129b3565b612d3c608083018461266d565b9695505050505050565b6000612d50612d61565b9050612d5c8282612fc5565b919050565b6000604051905090565b600067ffffffffffffffff821115612d8657612d8561312c565b5b612d8f8261316f565b9050602081019050919050565b600067ffffffffffffffff821115612db757612db661312c565b5b612dc08261316f565b9050602081019050919050565b600081519050919050565b600081519050919050565b600082825260208201905092915050565b600082825260208201905092915050565b600081905092915050565b6000612e1b82612f47565b9150612e2683612f47565b9250827fffffffffffffffffffffffffffffffffffffffffffffffffffffffffffffffff03821115612e5b57612e5a613070565b5b828201905092915050565b6000612e7182612f47565b9150612e7c83612f47565b925082612e8c57612e8b61309f565b5b828204905092915050565b6000612ea282612f47565b9150612ead83612f47565b925082821015612ec057612ebf613070565b5b828203905092915050565b6000612ed682612f27565b9050919050565b6000612ee882612f27565b9050919050565b60008115159050919050565b60007fffffffff0000000000000000000000000000000000000000000000000000000082169050919050565b600073ffffffffffffffffffffffffffffffffffffffff82169050919050565b6000819050919050565b82818337600083830152505050565b60005b83811015612f7e578082015181840152602081019050612f63565b83811115612f8d576000848401525b50505050565b60006002820490506001821680612fab57607f821691505b60208210811415612fbf57612fbe6130ce565b5b50919050565b612fce8261316f565b810181811067ffffffffffffffff82111715612fed57612fec61312c565b5b80604052505050565b600061300182612f47565b91507fffffffffffffffffffffffffffffffffffffffffffffffffffffffffffffffff82141561303457613033613070565b5b600182019050919050565b600061304a82612f47565b915061305583612f47565b9250826130655761306461309f565b5b828206905092915050565b7f4e487b7100000000000000000000000000000000000000000000000000000000600052601160045260246000fd5b7f4e487b7100000000000000000000000000000000000000000000000000000000600052601260045260246000fd5b7f4e487b7100000000000000000000000000000000000000000000000000000000600052602260045260246000fd5b7f4e487b7100000000000000000000000000000000000000000000000000000000600052603260045260246000fd5b7f4e487b7100000000000000000000000000000000000000000000000000000000600052604160045260246000fd5b600080fd5b600080fd5b600080fd5b600080fd5b6000601f19601f8301169050919050565b7f4552433732313a207472616e7366657220746f206e6f6e20455243373231526560008201527f63656976657220696d706c656d656e7465720000000000000000000000000000602082015250565b7f4f776e61626c653a206e6577206f776e657220697320746865207a65726f206160008201527f6464726573730000000000000000000000000000000000000000000000000000602082015250565b7f4552433732313a20746f6b656e20616c7265616479206d696e74656400000000600082015250565b7f4552433732313a207472616e7366657220746f20746865207a65726f2061646460008201527f7265737300000000000000000000000000000000000000000000000000000000602082015250565b7f4552433732313a20617070726f766520746f2063616c6c657200000000000000600082015250565b7f4552433732313a206f70657261746f7220717565727920666f72206e6f6e657860008201527f697374656e7420746f6b656e0000000000000000000000000000000000000000602082015250565b7f4552433732313a20617070726f76652063616c6c6572206973206e6f74206f7760008201527f6e6572206e6f7220617070726f76656420666f7220616c6c0000000000000000602082015250565b7f4552433732313a2062616c616e636520717565727920666f7220746865207a6560008201527f726f206164647265737300000000000000000000000000000000000000000000602082015250565b7f4552433732313a206f776e657220717565727920666f72206e6f6e657869737460008201527f656e7420746f6b656e0000000000000000000000000000000000000000000000602082015250565b7f45524337323155524953746f726167653a2055524920736574206f66206e6f6e60008201527f6578697374656e7420746f6b656e000000000000000000000000000000000000602082015250565b7f4552433732313a206d696e7420746f20746865207a65726f2061646472657373600082015250565b7f45524337323155524953746f726167653a2055524920717565727920666f722060008201527f6e6f6e6578697374656e7420746f6b656e000000000000000000000000000000602082015250565b7f4552433732313a20617070726f76656420717565727920666f72206e6f6e657860008201527f697374656e7420746f6b656e0000000000000000000000000000000000000000602082015250565b7f4f776e61626c653a2063616c6c6572206973206e6f7420746865206f776e6572600082015250565b7f4552433732313a207472616e73666572206f6620746f6b656e2074686174206960008201527f73206e6f74206f776e0000000000000000000000000000000000000000000000602082015250565b7f4552433732314d657461646174613a2055524920717565727920666f72206e6f60008201527f6e6578697374656e7420746f6b656e0000000000000000000000000000000000602082015250565b7f4552433732313a20617070726f76616c20746f2063757272656e74206f776e6560008201527f7200000000000000000000000000000000000000000000000000000000000000602082015250565b7f4552433732313a207472616e736665722063616c6c6572206973206e6f74206f60008201527f776e6572206e6f7220617070726f766564000000000000000000000000000000602082015250565b61367f81612ecb565b811461368a57600080fd5b50565b61369681612edd565b81146136a157600080fd5b50565b6136ad81612eef565b81146136b857600080fd5b50565b6136c481612efb565b81146136cf57600080fd5b50565b6136db81612f47565b81146136e657600080fd5b5056fea2646970667358221220619c6621eba71483de919de0324bf29700a76e61f7e038e1ec2e5520053aa63a64736f6c63430008070033",
  "immutableReferences": {},
  "source": "//Contract based on [https://docs.openzeppelin.com/contracts/3.x/erc721](https://docs.openzeppelin.com/contracts/3.x/erc721)\r\n// SPDX-License-Identifier: MIT\r\npragma solidity ^0.8.7;\r\n\r\nimport \"@openzeppelin/contracts/token/ERC721/ERC721.sol\";\r\nimport \"@openzeppelin/contracts/utils/Counters.sol\";\r\nimport \"@openzeppelin/contracts/access/Ownable.sol\";\r\nimport \"@openzeppelin/contracts/token/ERC721/extensions/ERC721URIStorage.sol\";\r\n\r\ncontract KulfyV3 is ERC721URIStorage, Ownable {\r\n    //string public name = \"KulfyV3\";\r\n    mapping(uint256 => Kulfy) public kulfies;\r\n    using Counters for Counters.Counter;\r\n    Counters.Counter private _tokenIds;\r\n\r\n    constructor() public ERC721(\"KULFY\", \"KUL\") {}\r\n\r\n    struct Kulfy {\r\n        uint256 id;\r\n        string description;\r\n        string tokenURI;\r\n        uint256 tipAmount;\r\n        address payable author;\r\n    }\r\n\r\n    event KulfyCreated(\r\n        uint256 id,\r\n        string hash,\r\n        string description,\r\n        uint256 tipAmount,\r\n        address payable author\r\n    );\r\n\r\n    event KulfyTipped(\r\n        uint256 id,\r\n        string hash,\r\n        string description,\r\n        uint256 tipAmount,\r\n        address payable author\r\n    );\r\n\r\n    function mintNFT(\r\n        address payable recipient,\r\n        string memory _tokenURI,\r\n        string memory _description\r\n    ) public returns (uint256) {\r\n        _tokenIds.increment();\r\n\r\n        uint256 newItemId = _tokenIds.current();\r\n        _mint(recipient, newItemId);\r\n        _setTokenURI(newItemId, _tokenURI);\r\n        kulfies[newItemId] = Kulfy(\r\n            newItemId,\r\n            _description,\r\n            _tokenURI,\r\n            0,\r\n            recipient\r\n        );\r\n\r\n        return newItemId;\r\n    }\r\n\r\n    function tipKulfyOwner(uint256 _id) public payable {\r\n        require(_id > 0 && _id <= _tokenIds.current());\r\n        Kulfy memory _kulfy = kulfies[_id];\r\n\r\n        address payable _author = _kulfy.author;\r\n\r\n        payable(address(_author)).transfer(msg.value);\r\n\r\n        _kulfy.tipAmount = _kulfy.tipAmount + msg.value;\r\n\r\n        kulfies[_id] = _kulfy;\r\n\r\n        emit KulfyTipped(\r\n            _id,\r\n            _kulfy.tokenURI,\r\n            _kulfy.description,\r\n            _kulfy.tipAmount,\r\n            _author\r\n        );\r\n    }\r\n}\r\n",
  "sourcePath": "D:\\Learning\\blockchain\\kulfy3v1\\kulfy3\\src\\contracts\\KulfyV3.sol",
  "compiler": {
    "name": "solc",
    "version": "0.8.7+commit.e28d00a7.Emscripten.clang"
  },
  "schemaVersion": "3.4.3",
  "updatedAt": "2021-12-11T10:09:52.695Z",
  "devdoc": {
    "kind": "dev",
    "methods": {
      "approve(address,uint256)": {
        "details": "See {IERC721-approve}."
      },
      "balanceOf(address)": {
        "details": "See {IERC721-balanceOf}."
      },
      "getApproved(uint256)": {
        "details": "See {IERC721-getApproved}."
      },
      "isApprovedForAll(address,address)": {
        "details": "See {IERC721-isApprovedForAll}."
      },
      "name()": {
        "details": "See {IERC721Metadata-name}."
      },
      "owner()": {
        "details": "Returns the address of the current owner."
      },
      "ownerOf(uint256)": {
        "details": "See {IERC721-ownerOf}."
      },
      "renounceOwnership()": {
        "details": "Leaves the contract without owner. It will not be possible to call `onlyOwner` functions anymore. Can only be called by the current owner. NOTE: Renouncing ownership will leave the contract without an owner, thereby removing any functionality that is only available to the owner."
      },
      "safeTransferFrom(address,address,uint256)": {
        "details": "See {IERC721-safeTransferFrom}."
      },
      "safeTransferFrom(address,address,uint256,bytes)": {
        "details": "See {IERC721-safeTransferFrom}."
      },
      "setApprovalForAll(address,bool)": {
        "details": "See {IERC721-setApprovalForAll}."
      },
      "supportsInterface(bytes4)": {
        "details": "See {IERC165-supportsInterface}."
      },
      "symbol()": {
        "details": "See {IERC721Metadata-symbol}."
      },
      "tokenURI(uint256)": {
        "details": "See {IERC721Metadata-tokenURI}."
      },
      "transferFrom(address,address,uint256)": {
        "details": "See {IERC721-transferFrom}."
      },
      "transferOwnership(address)": {
        "details": "Transfers ownership of the contract to a new account (`newOwner`). Can only be called by the current owner."
      }
    },
    "version": 1
  },
  "userdoc": {
    "kind": "user",
    "methods": {},
    "version": 1
  }
}