{
  "contractName": "KulfyV3",
  "abi": [
    {
      "inputs": [],
      "stateMutability": "nonpayable",
      "type": "constructor"
    },
    {
      "anonymous": false,
      "inputs": [
        {
          "indexed": true,
          "internalType": "address",
          "name": "owner",
          "type": "address"
        },
        {
          "indexed": true,
          "internalType": "address",
          "name": "approved",
          "type": "address"
        },
        {
          "indexed": true,
          "internalType": "uint256",
          "name": "tokenId",
          "type": "uint256"
        }
      ],
      "name": "Approval",
      "type": "event"
    },
    {
      "anonymous": false,
      "inputs": [
        {
          "indexed": true,
          "internalType": "address",
          "name": "owner",
          "type": "address"
        },
        {
          "indexed": true,
          "internalType": "address",
          "name": "operator",
          "type": "address"
        },
        {
          "indexed": false,
          "internalType": "bool",
          "name": "approved",
          "type": "bool"
        }
      ],
      "name": "ApprovalForAll",
      "type": "event"
    },
    {
      "anonymous": false,
      "inputs": [
        {
          "indexed": false,
          "internalType": "uint256",
          "name": "id",
          "type": "uint256"
        },
        {
          "indexed": false,
          "internalType": "string",
          "name": "hash",
          "type": "string"
        },
        {
          "indexed": false,
          "internalType": "string",
          "name": "kid",
          "type": "string"
        },
        {
          "indexed": false,
          "internalType": "uint256",
          "name": "tipAmount",
          "type": "uint256"
        },
        {
          "indexed": false,
          "internalType": "address payable",
          "name": "author",
          "type": "address"
        }
      ],
      "name": "KulfyCreated",
      "type": "event"
    },
    {
      "anonymous": false,
      "inputs": [
        {
          "indexed": false,
          "internalType": "uint256",
          "name": "id",
          "type": "uint256"
        },
        {
          "indexed": false,
          "internalType": "string",
          "name": "hash",
          "type": "string"
        },
        {
          "indexed": false,
          "internalType": "string",
          "name": "kid",
          "type": "string"
        },
        {
          "indexed": false,
          "internalType": "uint256",
          "name": "tipAmount",
          "type": "uint256"
        },
        {
          "indexed": false,
          "internalType": "address payable",
          "name": "author",
          "type": "address"
        }
      ],
      "name": "KulfyTipped",
      "type": "event"
    },
    {
      "anonymous": false,
      "inputs": [
        {
          "indexed": true,
          "internalType": "address",
          "name": "previousOwner",
          "type": "address"
        },
        {
          "indexed": true,
          "internalType": "address",
          "name": "newOwner",
          "type": "address"
        }
      ],
      "name": "OwnershipTransferred",
      "type": "event"
    },
    {
      "anonymous": false,
      "inputs": [
        {
          "indexed": true,
          "internalType": "address",
          "name": "from",
          "type": "address"
        },
        {
          "indexed": true,
          "internalType": "address",
          "name": "to",
          "type": "address"
        },
        {
          "indexed": true,
          "internalType": "uint256",
          "name": "tokenId",
          "type": "uint256"
        }
      ],
      "name": "Transfer",
      "type": "event"
    },
    {
      "inputs": [
        {
          "internalType": "address",
          "name": "to",
          "type": "address"
        },
        {
          "internalType": "uint256",
          "name": "tokenId",
          "type": "uint256"
        }
      ],
      "name": "approve",
      "outputs": [],
      "stateMutability": "nonpayable",
      "type": "function"
    },
    {
      "inputs": [
        {
          "internalType": "address",
          "name": "owner",
          "type": "address"
        }
      ],
      "name": "balanceOf",
      "outputs": [
        {
          "internalType": "uint256",
          "name": "",
          "type": "uint256"
        }
      ],
      "stateMutability": "view",
      "type": "function",
      "constant": true
    },
    {
      "inputs": [
        {
          "internalType": "uint256",
          "name": "tokenId",
          "type": "uint256"
        }
      ],
      "name": "getApproved",
      "outputs": [
        {
          "internalType": "address",
          "name": "",
          "type": "address"
        }
      ],
      "stateMutability": "view",
      "type": "function",
      "constant": true
    },
    {
      "inputs": [
        {
          "internalType": "address",
          "name": "owner",
          "type": "address"
        },
        {
          "internalType": "address",
          "name": "operator",
          "type": "address"
        }
      ],
      "name": "isApprovedForAll",
      "outputs": [
        {
          "internalType": "bool",
          "name": "",
          "type": "bool"
        }
      ],
      "stateMutability": "view",
      "type": "function",
      "constant": true
    },
    {
      "inputs": [
        {
          "internalType": "uint256",
          "name": "",
          "type": "uint256"
        }
      ],
      "name": "kulfies",
      "outputs": [
        {
          "internalType": "uint256",
          "name": "id",
          "type": "uint256"
        },
        {
          "internalType": "string",
          "name": "kid",
          "type": "string"
        },
        {
          "internalType": "string",
          "name": "tokenURI",
          "type": "string"
        },
        {
          "internalType": "string",
          "name": "assetURI",
          "type": "string"
        },
        {
          "internalType": "uint256",
          "name": "tipAmount",
          "type": "uint256"
        },
        {
          "internalType": "address payable",
          "name": "author",
          "type": "address"
        }
      ],
      "stateMutability": "view",
      "type": "function",
      "constant": true
    },
    {
      "inputs": [],
      "name": "name",
      "outputs": [
        {
          "internalType": "string",
          "name": "",
          "type": "string"
        }
      ],
      "stateMutability": "view",
      "type": "function",
      "constant": true
    },
    {
      "inputs": [],
      "name": "owner",
      "outputs": [
        {
          "internalType": "address",
          "name": "",
          "type": "address"
        }
      ],
      "stateMutability": "view",
      "type": "function",
      "constant": true
    },
    {
      "inputs": [
        {
          "internalType": "uint256",
          "name": "tokenId",
          "type": "uint256"
        }
      ],
      "name": "ownerOf",
      "outputs": [
        {
          "internalType": "address",
          "name": "",
          "type": "address"
        }
      ],
      "stateMutability": "view",
      "type": "function",
      "constant": true
    },
    {
      "inputs": [],
      "name": "renounceOwnership",
      "outputs": [],
      "stateMutability": "nonpayable",
      "type": "function"
    },
    {
      "inputs": [
        {
          "internalType": "address",
          "name": "from",
          "type": "address"
        },
        {
          "internalType": "address",
          "name": "to",
          "type": "address"
        },
        {
          "internalType": "uint256",
          "name": "tokenId",
          "type": "uint256"
        }
      ],
      "name": "safeTransferFrom",
      "outputs": [],
      "stateMutability": "nonpayable",
      "type": "function"
    },
    {
      "inputs": [
        {
          "internalType": "address",
          "name": "from",
          "type": "address"
        },
        {
          "internalType": "address",
          "name": "to",
          "type": "address"
        },
        {
          "internalType": "uint256",
          "name": "tokenId",
          "type": "uint256"
        },
        {
          "internalType": "bytes",
          "name": "_data",
          "type": "bytes"
        }
      ],
      "name": "safeTransferFrom",
      "outputs": [],
      "stateMutability": "nonpayable",
      "type": "function"
    },
    {
      "inputs": [
        {
          "internalType": "address",
          "name": "operator",
          "type": "address"
        },
        {
          "internalType": "bool",
          "name": "approved",
          "type": "bool"
        }
      ],
      "name": "setApprovalForAll",
      "outputs": [],
      "stateMutability": "nonpayable",
      "type": "function"
    },
    {
      "inputs": [
        {
          "internalType": "bytes4",
          "name": "interfaceId",
          "type": "bytes4"
        }
      ],
      "name": "supportsInterface",
      "outputs": [
        {
          "internalType": "bool",
          "name": "",
          "type": "bool"
        }
      ],
      "stateMutability": "view",
      "type": "function",
      "constant": true
    },
    {
      "inputs": [],
      "name": "symbol",
      "outputs": [
        {
          "internalType": "string",
          "name": "",
          "type": "string"
        }
      ],
      "stateMutability": "view",
      "type": "function",
      "constant": true
    },
    {
      "inputs": [],
      "name": "tokenIds",
      "outputs": [
        {
          "internalType": "uint256",
          "name": "_value",
          "type": "uint256"
        }
      ],
      "stateMutability": "view",
      "type": "function",
      "constant": true
    },
    {
      "inputs": [
        {
          "internalType": "uint256",
          "name": "tokenId",
          "type": "uint256"
        }
      ],
      "name": "tokenURI",
      "outputs": [
        {
          "internalType": "string",
          "name": "",
          "type": "string"
        }
      ],
      "stateMutability": "view",
      "type": "function",
      "constant": true
    },
    {
      "inputs": [
        {
          "internalType": "address",
          "name": "from",
          "type": "address"
        },
        {
          "internalType": "address",
          "name": "to",
          "type": "address"
        },
        {
          "internalType": "uint256",
          "name": "tokenId",
          "type": "uint256"
        }
      ],
      "name": "transferFrom",
      "outputs": [],
      "stateMutability": "nonpayable",
      "type": "function"
    },
    {
      "inputs": [
        {
          "internalType": "address",
          "name": "newOwner",
          "type": "address"
        }
      ],
      "name": "transferOwnership",
      "outputs": [],
      "stateMutability": "nonpayable",
      "type": "function"
    },
    {
      "inputs": [
        {
          "internalType": "address payable",
          "name": "recipient",
          "type": "address"
        },
        {
          "internalType": "string",
          "name": "_tokenURI",
          "type": "string"
        },
        {
          "internalType": "string",
          "name": "_assetURI",
          "type": "string"
        },
        {
          "internalType": "string",
          "name": "_kid",
          "type": "string"
        }
      ],
      "name": "mintNFT",
      "outputs": [
        {
          "internalType": "uint256",
          "name": "",
          "type": "uint256"
        }
      ],
      "stateMutability": "nonpayable",
      "type": "function"
    },
    {
      "inputs": [
        {
          "internalType": "uint256",
          "name": "_id",
          "type": "uint256"
        }
      ],
      "name": "tipKulfyOwner",
      "outputs": [],
      "stateMutability": "payable",
      "type": "function",
      "payable": true
    }
  ],
  "bytecode": "0x60806040523480156200001157600080fd5b506040518060400160405280600581526020017f4b554c46590000000000000000000000000000000000000000000000000000008152506040518060400160405280600381526020017f4b554c0000000000000000000000000000000000000000000000000000000000815250816000908051906020019062000096929190620001a6565b508060019080519060200190620000af929190620001a6565b505050620000d2620000c6620000d860201b60201c565b620000e060201b60201c565b620002bb565b600033905090565b6000600760009054906101000a900473ffffffffffffffffffffffffffffffffffffffff16905081600760006101000a81548173ffffffffffffffffffffffffffffffffffffffff021916908373ffffffffffffffffffffffffffffffffffffffff1602179055508173ffffffffffffffffffffffffffffffffffffffff168173ffffffffffffffffffffffffffffffffffffffff167f8be0079c531659141344cd1fd0a4f28419497f9722a3daafe3b4186f6b6457e060405160405180910390a35050565b828054620001b49062000256565b90600052602060002090601f016020900481019282620001d8576000855562000224565b82601f10620001f357805160ff191683800117855562000224565b8280016001018555821562000224579182015b828111156200022357825182559160200191906001019062000206565b5b50905062000233919062000237565b5090565b5b808211156200025257600081600090555060010162000238565b5090565b600060028204905060018216806200026f57607f821691505b602082108114156200028657620002856200028c565b5b50919050565b7f4e487b7100000000000000000000000000000000000000000000000000000000600052602260045260246000fd5b61396980620002cb6000396000f3fe60806040526004361061011f5760003560e01c8063714cff56116100a0578063a22cb46511610064578063a22cb465146103f1578063b88d4fde1461041a578063c87b56dd14610443578063e985e9c514610480578063f2fde38b146104bd5761011f565b8063714cff561461031c578063715018a6146103475780637791d3f31461035e5780638da5cb5b1461039b57806395d89b41146103c65761011f565b806326febf2d116100e757806326febf2d1461021b57806342842e0e1461025d5780635b0dbf46146102865780636352211e146102a257806370a08231146102df5761011f565b806301ffc9a71461012457806306fdde0314610161578063081812fc1461018c578063095ea7b3146101c957806323b872dd146101f2575b600080fd5b34801561013057600080fd5b5061014b600480360381019061014691906127ba565b6104e6565b6040516101589190612c21565b60405180910390f35b34801561016d57600080fd5b506101766105c8565b6040516101839190612c3c565b60405180910390f35b34801561019857600080fd5b506101b360048036038101906101ae9190612814565b61065a565b6040516101c09190612bba565b60405180910390f35b3480156101d557600080fd5b506101f060048036038101906101eb919061277a565b6106df565b005b3480156101fe57600080fd5b5061021960048036038101906102149190612664565b6107f7565b005b34801561022757600080fd5b50610242600480360381019061023d9190612814565b610857565b60405161025496959493929190612eb9565b60405180910390f35b34801561026957600080fd5b50610284600480360381019061027f9190612664565b610a4b565b005b6102a0600480360381019061029b9190612814565b610a6b565b005b3480156102ae57600080fd5b506102c960048036038101906102c49190612814565b610e51565b6040516102d69190612bba565b60405180910390f35b3480156102eb57600080fd5b506103066004803603810190610301919061253c565b610f03565b6040516103139190612e9e565b60405180910390f35b34801561032857600080fd5b50610331610fbb565b60405161033e9190612e9e565b60405180910390f35b34801561035357600080fd5b5061035c610fc7565b005b34801561036a57600080fd5b5061038560048036038101906103809190612569565b61104f565b6040516103929190612e9e565b60405180910390f35b3480156103a757600080fd5b506103b0611195565b6040516103bd9190612bba565b60405180910390f35b3480156103d257600080fd5b506103db6111bf565b6040516103e89190612c3c565b60405180910390f35b3480156103fd57600080fd5b506104186004803603810190610413919061273a565b611251565b005b34801561042657600080fd5b50610441600480360381019061043c91906126b7565b611267565b005b34801561044f57600080fd5b5061046a60048036038101906104659190612814565b6112c9565b6040516104779190612c3c565b60405180910390f35b34801561048c57600080fd5b506104a760048036038101906104a29190612624565b61141b565b6040516104b49190612c21565b60405180910390f35b3480156104c957600080fd5b506104e460048036038101906104df919061253c565b6114af565b005b60007f80ac58cd000000000000000000000000000000000000000000000000000000007bffffffffffffffffffffffffffffffffffffffffffffffffffffffff1916827bffffffffffffffffffffffffffffffffffffffffffffffffffffffff191614806105b157507f5b5e139f000000000000000000000000000000000000000000000000000000007bffffffffffffffffffffffffffffffffffffffffffffffffffffffff1916827bffffffffffffffffffffffffffffffffffffffffffffffffffffffff1916145b806105c157506105c0826115a7565b5b9050919050565b6060600080546105d7906131dd565b80601f0160208091040260200160405190810160405280929190818152602001828054610603906131dd565b80156106505780601f1061062557610100808354040283529160200191610650565b820191906000526020600020905b81548152906001019060200180831161063357829003601f168201915b5050505050905090565b600061066582611611565b6106a4576040517f08c379a000000000000000000000000000000000000000000000000000000000815260040161069b90612dde565b60405180910390fd5b6004600083815260200190815260200160002060009054906101000a900473ffffffffffffffffffffffffffffffffffffffff169050919050565b60006106ea82610e51565b90508073ffffffffffffffffffffffffffffffffffffffff168373ffffffffffffffffffffffffffffffffffffffff16141561075b576040517f08c379a000000000000000000000000000000000000000000000000000000000815260040161075290612e5e565b60405180910390fd5b8073ffffffffffffffffffffffffffffffffffffffff1661077a61167d565b73ffffffffffffffffffffffffffffffffffffffff1614806107a957506107a8816107a361167d565b61141b565b5b6107e8576040517f08c379a00000000000000000000000000000000000000000000000000000000081526004016107df90612d1e565b60405180910390fd5b6107f28383611685565b505050565b61080861080261167d565b8261173e565b610847576040517f08c379a000000000000000000000000000000000000000000000000000000000815260040161083e90612e7e565b60405180910390fd5b61085283838361181c565b505050565b6008602052806000526040600020600091509050806000015490806001018054610880906131dd565b80601f01602080910402602001604051908101604052809291908181526020018280546108ac906131dd565b80156108f95780601f106108ce576101008083540402835291602001916108f9565b820191906000526020600020905b8154815290600101906020018083116108dc57829003601f168201915b50505050509080600201805461090e906131dd565b80601f016020809104026020016040519081016040528092919081815260200182805461093a906131dd565b80156109875780601f1061095c57610100808354040283529160200191610987565b820191906000526020600020905b81548152906001019060200180831161096a57829003601f168201915b50505050509080600301805461099c906131dd565b80601f01602080910402602001604051908101604052809291908181526020018280546109c8906131dd565b8015610a155780601f106109ea57610100808354040283529160200191610a15565b820191906000526020600020905b8154815290600101906020018083116109f857829003601f168201915b5050505050908060040154908060050160009054906101000a900473ffffffffffffffffffffffffffffffffffffffff16905086565b610a6683838360405180602001604052806000815250611267565b505050565b600081118015610a845750610a806009611a78565b8111155b610a8d57600080fd5b6000600860008381526020019081526020016000206040518060c001604052908160008201548152602001600182018054610ac7906131dd565b80601f0160208091040260200160405190810160405280929190818152602001828054610af3906131dd565b8015610b405780601f10610b1557610100808354040283529160200191610b40565b820191906000526020600020905b815481529060010190602001808311610b2357829003601f168201915b50505050508152602001600282018054610b59906131dd565b80601f0160208091040260200160405190810160405280929190818152602001828054610b85906131dd565b8015610bd25780601f10610ba757610100808354040283529160200191610bd2565b820191906000526020600020905b815481529060010190602001808311610bb557829003601f168201915b50505050508152602001600382018054610beb906131dd565b80601f0160208091040260200160405190810160405280929190818152602001828054610c17906131dd565b8015610c645780601f10610c3957610100808354040283529160200191610c64565b820191906000526020600020905b815481529060010190602001808311610c4757829003601f168201915b50505050508152602001600482015481526020016005820160009054906101000a900473ffffffffffffffffffffffffffffffffffffffff1673ffffffffffffffffffffffffffffffffffffffff1673ffffffffffffffffffffffffffffffffffffffff1681525050905060008160a0015190508073ffffffffffffffffffffffffffffffffffffffff166108fc349081150290604051600060405180830381858888f19350505050158015610d1e573d6000803e3d6000fd5b50348260800151610d2f919061305a565b8260800181815250508160086000858152602001908152602001600020600082015181600001556020820151816001019080519060200190610d7292919061233b565b506040820151816002019080519060200190610d8f92919061233b565b506060820151816003019080519060200190610dac92919061233b565b506080820151816004015560a08201518160050160006101000a81548173ffffffffffffffffffffffffffffffffffffffff021916908373ffffffffffffffffffffffffffffffffffffffff1602179055509050507f44b8eb1804df071e840af6d95361a2ada05b8e3bf78457a983dd7bae699b7acc8383604001518460200151856080015185604051610e44959493929190612f2f565b60405180910390a1505050565b6000806002600084815260200190815260200160002060009054906101000a900473ffffffffffffffffffffffffffffffffffffffff169050600073ffffffffffffffffffffffffffffffffffffffff168173ffffffffffffffffffffffffffffffffffffffff161415610efa576040517f08c379a0000000000000000000000000000000000000000000000000000000008152600401610ef190612d5e565b60405180910390fd5b80915050919050565b60008073ffffffffffffffffffffffffffffffffffffffff168273ffffffffffffffffffffffffffffffffffffffff161415610f74576040517f08c379a0000000000000000000000000000000000000000000000000000000008152600401610f6b90612d3e565b60405180910390fd5b600360008373ffffffffffffffffffffffffffffffffffffffff1673ffffffffffffffffffffffffffffffffffffffff168152602001908152602001600020549050919050565b60098060000154905081565b610fcf61167d565b73ffffffffffffffffffffffffffffffffffffffff16610fed611195565b73ffffffffffffffffffffffffffffffffffffffff1614611043576040517f08c379a000000000000000000000000000000000000000000000000000000000815260040161103a90612dfe565b60405180910390fd5b61104d6000611a86565b565b600061105b6009611b4c565b60006110676009611a78565b90506110738682611b62565b61107d8186611d30565b6040518060c00160405280828152602001848152602001868152602001858152602001600081526020018773ffffffffffffffffffffffffffffffffffffffff16815250600860008381526020019081526020016000206000820151816000015560208201518160010190805190602001906110fa92919061233b565b50604082015181600201908051906020019061111792919061233b565b50606082015181600301908051906020019061113492919061233b565b506080820151816004015560a08201518160050160006101000a81548173ffffffffffffffffffffffffffffffffffffffff021916908373ffffffffffffffffffffffffffffffffffffffff16021790555090505080915050949350505050565b6000600760009054906101000a900473ffffffffffffffffffffffffffffffffffffffff16905090565b6060600180546111ce906131dd565b80601f01602080910402602001604051908101604052809291908181526020018280546111fa906131dd565b80156112475780601f1061121c57610100808354040283529160200191611247565b820191906000526020600020905b81548152906001019060200180831161122a57829003601f168201915b5050505050905090565b61126361125c61167d565b8383611da4565b5050565b61127861127261167d565b8361173e565b6112b7576040517f08c379a00000000000000000000000000000000000000000000000000000000081526004016112ae90612e7e565b60405180910390fd5b6112c384848484611f11565b50505050565b60606112d482611611565b611313576040517f08c379a000000000000000000000000000000000000000000000000000000000815260040161130a90612dbe565b60405180910390fd5b6000600660008481526020019081526020016000208054611333906131dd565b80601f016020809104026020016040519081016040528092919081815260200182805461135f906131dd565b80156113ac5780601f10611381576101008083540402835291602001916113ac565b820191906000526020600020905b81548152906001019060200180831161138f57829003601f168201915b5050505050905060006113bd611f6d565b90506000815114156113d3578192505050611416565b6000825111156114085780826040516020016113f0929190612b96565b60405160208183030381529060405292505050611416565b61141184611f84565b925050505b919050565b6000600560008473ffffffffffffffffffffffffffffffffffffffff1673ffffffffffffffffffffffffffffffffffffffff16815260200190815260200160002060008373ffffffffffffffffffffffffffffffffffffffff1673ffffffffffffffffffffffffffffffffffffffff16815260200190815260200160002060009054906101000a900460ff16905092915050565b6114b761167d565b73ffffffffffffffffffffffffffffffffffffffff166114d5611195565b73ffffffffffffffffffffffffffffffffffffffff161461152b576040517f08c379a000000000000000000000000000000000000000000000000000000000815260040161152290612dfe565b60405180910390fd5b600073ffffffffffffffffffffffffffffffffffffffff168173ffffffffffffffffffffffffffffffffffffffff16141561159b576040517f08c379a000000000000000000000000000000000000000000000000000000000815260040161159290612c7e565b60405180910390fd5b6115a481611a86565b50565b60007f01ffc9a7000000000000000000000000000000000000000000000000000000007bffffffffffffffffffffffffffffffffffffffffffffffffffffffff1916827bffffffffffffffffffffffffffffffffffffffffffffffffffffffff1916149050919050565b60008073ffffffffffffffffffffffffffffffffffffffff166002600084815260200190815260200160002060009054906101000a900473ffffffffffffffffffffffffffffffffffffffff1673ffffffffffffffffffffffffffffffffffffffff1614159050919050565b600033905090565b816004600083815260200190815260200160002060006101000a81548173ffffffffffffffffffffffffffffffffffffffff021916908373ffffffffffffffffffffffffffffffffffffffff160217905550808273ffffffffffffffffffffffffffffffffffffffff166116f883610e51565b73ffffffffffffffffffffffffffffffffffffffff167f8c5be1e5ebec7d5bd14f71427d1e84f3dd0314c0f7b2291e5b200ac8c7c3b92560405160405180910390a45050565b600061174982611611565b611788576040517f08c379a000000000000000000000000000000000000000000000000000000000815260040161177f90612cfe565b60405180910390fd5b600061179383610e51565b90508073ffffffffffffffffffffffffffffffffffffffff168473ffffffffffffffffffffffffffffffffffffffff16148061180257508373ffffffffffffffffffffffffffffffffffffffff166117ea8461065a565b73ffffffffffffffffffffffffffffffffffffffff16145b806118135750611812818561141b565b5b91505092915050565b8273ffffffffffffffffffffffffffffffffffffffff1661183c82610e51565b73ffffffffffffffffffffffffffffffffffffffff1614611892576040517f08c379a000000000000000000000000000000000000000000000000000000000815260040161188990612e1e565b60405180910390fd5b600073ffffffffffffffffffffffffffffffffffffffff168273ffffffffffffffffffffffffffffffffffffffff161415611902576040517f08c379a00000000000000000000000000000000000000000000000000000000081526004016118f990612cbe565b60405180910390fd5b61190d83838361202b565b611918600082611685565b6001600360008573ffffffffffffffffffffffffffffffffffffffff1673ffffffffffffffffffffffffffffffffffffffff168152602001908152602001600020600082825461196891906130e1565b925050819055506001600360008473ffffffffffffffffffffffffffffffffffffffff1673ffffffffffffffffffffffffffffffffffffffff16815260200190815260200160002060008282546119bf919061305a565b92505081905550816002600083815260200190815260200160002060006101000a81548173ffffffffffffffffffffffffffffffffffffffff021916908373ffffffffffffffffffffffffffffffffffffffff160217905550808273ffffffffffffffffffffffffffffffffffffffff168473ffffffffffffffffffffffffffffffffffffffff167fddf252ad1be2c89b69c2b068fc378daa952ba7f163c4a11628f55a4df523b3ef60405160405180910390a4505050565b600081600001549050919050565b6000600760009054906101000a900473ffffffffffffffffffffffffffffffffffffffff16905081600760006101000a81548173ffffffffffffffffffffffffffffffffffffffff021916908373ffffffffffffffffffffffffffffffffffffffff1602179055508173ffffffffffffffffffffffffffffffffffffffff168173ffffffffffffffffffffffffffffffffffffffff167f8be0079c531659141344cd1fd0a4f28419497f9722a3daafe3b4186f6b6457e060405160405180910390a35050565b6001816000016000828254019250508190555050565b600073ffffffffffffffffffffffffffffffffffffffff168273ffffffffffffffffffffffffffffffffffffffff161415611bd2576040517f08c379a0000000000000000000000000000000000000000000000000000000008152600401611bc990612d9e565b60405180910390fd5b611bdb81611611565b15611c1b576040517f08c379a0000000000000000000000000000000000000000000000000000000008152600401611c1290612c9e565b60405180910390fd5b611c276000838361202b565b6001600360008473ffffffffffffffffffffffffffffffffffffffff1673ffffffffffffffffffffffffffffffffffffffff1681526020019081526020016000206000828254611c77919061305a565b92505081905550816002600083815260200190815260200160002060006101000a81548173ffffffffffffffffffffffffffffffffffffffff021916908373ffffffffffffffffffffffffffffffffffffffff160217905550808273ffffffffffffffffffffffffffffffffffffffff16600073ffffffffffffffffffffffffffffffffffffffff167fddf252ad1be2c89b69c2b068fc378daa952ba7f163c4a11628f55a4df523b3ef60405160405180910390a45050565b611d3982611611565b611d78576040517f08c379a0000000000000000000000000000000000000000000000000000000008152600401611d6f90612d7e565b60405180910390fd5b80600660008481526020019081526020016000209080519060200190611d9f92919061233b565b505050565b8173ffffffffffffffffffffffffffffffffffffffff168373ffffffffffffffffffffffffffffffffffffffff161415611e13576040517f08c379a0000000000000000000000000000000000000000000000000000000008152600401611e0a90612cde565b60405180910390fd5b80600560008573ffffffffffffffffffffffffffffffffffffffff1673ffffffffffffffffffffffffffffffffffffffff16815260200190815260200160002060008473ffffffffffffffffffffffffffffffffffffffff1673ffffffffffffffffffffffffffffffffffffffff16815260200190815260200160002060006101000a81548160ff0219169083151502179055508173ffffffffffffffffffffffffffffffffffffffff168373ffffffffffffffffffffffffffffffffffffffff167f17307eab39ab6107e8899845ad3d59bd9653f200f220920489ca2b5937696c3183604051611f049190612c21565b60405180910390a3505050565b611f1c84848461181c565b611f2884848484612030565b611f67576040517f08c379a0000000000000000000000000000000000000000000000000000000008152600401611f5e90612c5e565b60405180910390fd5b50505050565b606060405180602001604052806000815250905090565b6060611f8f82611611565b611fce576040517f08c379a0000000000000000000000000000000000000000000000000000000008152600401611fc590612e3e565b60405180910390fd5b6000611fd8611f6d565b90506000815111611ff85760405180602001604052806000815250612023565b80612002846121c7565b604051602001612013929190612b96565b6040516020818303038152906040525b915050919050565b505050565b60006120518473ffffffffffffffffffffffffffffffffffffffff16612328565b156121ba578373ffffffffffffffffffffffffffffffffffffffff1663150b7a0261207a61167d565b8786866040518563ffffffff1660e01b815260040161209c9493929190612bd5565b602060405180830381600087803b1580156120b657600080fd5b505af19250505080156120e757506040513d601f19601f820116820180604052508101906120e491906127e7565b60015b61216a573d8060008114612117576040519150601f19603f3d011682016040523d82523d6000602084013e61211c565b606091505b50600081511415612162576040517f08c379a000000000000000000000000000000000000000000000000000000000815260040161215990612c5e565b60405180910390fd5b805181602001fd5b63150b7a0260e01b7bffffffffffffffffffffffffffffffffffffffffffffffffffffffff1916817bffffffffffffffffffffffffffffffffffffffffffffffffffffffff1916149150506121bf565b600190505b949350505050565b6060600082141561220f576040518060400160405280600181526020017f30000000000000000000000000000000000000000000000000000000000000008152509050612323565b600082905060005b6000821461224157808061222a90613240565b915050600a8261223a91906130b0565b9150612217565b60008167ffffffffffffffff81111561225d5761225c613376565b5b6040519080825280601f01601f19166020018201604052801561228f5781602001600182028036833780820191505090505b5090505b6000851461231c576001826122a891906130e1565b9150600a856122b79190613289565b60306122c3919061305a565b60f81b8183815181106122d9576122d8613347565b5b60200101907effffffffffffffffffffffffffffffffffffffffffffffffffffffffffffff1916908160001a905350600a8561231591906130b0565b9450612293565b8093505050505b919050565b600080823b905060008111915050919050565b828054612347906131dd565b90600052602060002090601f01602090048101928261236957600085556123b0565b82601f1061238257805160ff19168380011785556123b0565b828001600101855582156123b0579182015b828111156123af578251825591602001919060010190612394565b5b5090506123bd91906123c1565b5090565b5b808211156123da5760008160009055506001016123c2565b5090565b60006123f16123ec84612fb5565b612f90565b90508281526020810184848401111561240d5761240c6133aa565b5b61241884828561319b565b509392505050565b600061243361242e84612fe6565b612f90565b90508281526020810184848401111561244f5761244e6133aa565b5b61245a84828561319b565b509392505050565b600081359050612471816138c0565b92915050565b600081359050612486816138d7565b92915050565b60008135905061249b816138ee565b92915050565b6000813590506124b081613905565b92915050565b6000815190506124c581613905565b92915050565b600082601f8301126124e0576124df6133a5565b5b81356124f08482602086016123de565b91505092915050565b600082601f83011261250e5761250d6133a5565b5b813561251e848260208601612420565b91505092915050565b6000813590506125368161391c565b92915050565b600060208284031215612552576125516133b4565b5b600061256084828501612462565b91505092915050565b60008060008060808587031215612583576125826133b4565b5b600061259187828801612477565b945050602085013567ffffffffffffffff8111156125b2576125b16133af565b5b6125be878288016124f9565b935050604085013567ffffffffffffffff8111156125df576125de6133af565b5b6125eb878288016124f9565b925050606085013567ffffffffffffffff81111561260c5761260b6133af565b5b612618878288016124f9565b91505092959194509250565b6000806040838503121561263b5761263a6133b4565b5b600061264985828601612462565b925050602061265a85828601612462565b9150509250929050565b60008060006060848603121561267d5761267c6133b4565b5b600061268b86828701612462565b935050602061269c86828701612462565b92505060406126ad86828701612527565b9150509250925092565b600080600080608085870312156126d1576126d06133b4565b5b60006126df87828801612462565b94505060206126f087828801612462565b935050604061270187828801612527565b925050606085013567ffffffffffffffff811115612722576127216133af565b5b61272e878288016124cb565b91505092959194509250565b60008060408385031215612751576127506133b4565b5b600061275f85828601612462565b92505060206127708582860161248c565b9150509250929050565b60008060408385031215612791576127906133b4565b5b600061279f85828601612462565b92505060206127b085828601612527565b9150509250929050565b6000602082840312156127d0576127cf6133b4565b5b60006127de848285016124a1565b91505092915050565b6000602082840312156127fd576127fc6133b4565b5b600061280b848285016124b6565b91505092915050565b60006020828403121561282a576128296133b4565b5b600061283884828501612527565b91505092915050565b61284a81613127565b82525050565b61285981613115565b82525050565b61286881613139565b82525050565b600061287982613017565b612883818561302d565b93506128938185602086016131aa565b61289c816133b9565b840191505092915050565b60006128b282613022565b6128bc818561303e565b93506128cc8185602086016131aa565b6128d5816133b9565b840191505092915050565b60006128eb82613022565b6128f5818561304f565b93506129058185602086016131aa565b80840191505092915050565b600061291e60328361303e565b9150612929826133ca565b604082019050919050565b600061294160268361303e565b915061294c82613419565b604082019050919050565b6000612964601c8361303e565b915061296f82613468565b602082019050919050565b600061298760248361303e565b915061299282613491565b604082019050919050565b60006129aa60198361303e565b91506129b5826134e0565b602082019050919050565b60006129cd602c8361303e565b91506129d882613509565b604082019050919050565b60006129f060388361303e565b91506129fb82613558565b604082019050919050565b6000612a13602a8361303e565b9150612a1e826135a7565b604082019050919050565b6000612a3660298361303e565b9150612a41826135f6565b604082019050919050565b6000612a59602e8361303e565b9150612a6482613645565b604082019050919050565b6000612a7c60208361303e565b9150612a8782613694565b602082019050919050565b6000612a9f60318361303e565b9150612aaa826136bd565b604082019050919050565b6000612ac2602c8361303e565b9150612acd8261370c565b604082019050919050565b6000612ae560208361303e565b9150612af08261375b565b602082019050919050565b6000612b0860298361303e565b9150612b1382613784565b604082019050919050565b6000612b2b602f8361303e565b9150612b36826137d3565b604082019050919050565b6000612b4e60218361303e565b9150612b5982613822565b604082019050919050565b6000612b7160318361303e565b9150612b7c82613871565b604082019050919050565b612b9081613191565b82525050565b6000612ba282856128e0565b9150612bae82846128e0565b91508190509392505050565b6000602082019050612bcf6000830184612850565b92915050565b6000608082019050612bea6000830187612850565b612bf76020830186612850565b612c046040830185612b87565b8181036060830152612c16818461286e565b905095945050505050565b6000602082019050612c36600083018461285f565b92915050565b60006020820190508181036000830152612c5681846128a7565b905092915050565b60006020820190508181036000830152612c7781612911565b9050919050565b60006020820190508181036000830152612c9781612934565b9050919050565b60006020820190508181036000830152612cb781612957565b9050919050565b60006020820190508181036000830152612cd78161297a565b9050919050565b60006020820190508181036000830152612cf78161299d565b9050919050565b60006020820190508181036000830152612d17816129c0565b9050919050565b60006020820190508181036000830152612d37816129e3565b9050919050565b60006020820190508181036000830152612d5781612a06565b9050919050565b60006020820190508181036000830152612d7781612a29565b9050919050565b60006020820190508181036000830152612d9781612a4c565b9050919050565b60006020820190508181036000830152612db781612a6f565b9050919050565b60006020820190508181036000830152612dd781612a92565b9050919050565b60006020820190508181036000830152612df781612ab5565b9050919050565b60006020820190508181036000830152612e1781612ad8565b9050919050565b60006020820190508181036000830152612e3781612afb565b9050919050565b60006020820190508181036000830152612e5781612b1e565b9050919050565b60006020820190508181036000830152612e7781612b41565b9050919050565b60006020820190508181036000830152612e9781612b64565b9050919050565b6000602082019050612eb36000830184612b87565b92915050565b600060c082019050612ece6000830189612b87565b8181036020830152612ee081886128a7565b90508181036040830152612ef481876128a7565b90508181036060830152612f0881866128a7565b9050612f176080830185612b87565b612f2460a0830184612841565b979650505050505050565b600060a082019050612f446000830188612b87565b8181036020830152612f5681876128a7565b90508181036040830152612f6a81866128a7565b9050612f796060830185612b87565b612f866080830184612841565b9695505050505050565b6000612f9a612fab565b9050612fa6828261320f565b919050565b6000604051905090565b600067ffffffffffffffff821115612fd057612fcf613376565b5b612fd9826133b9565b9050602081019050919050565b600067ffffffffffffffff82111561300157613000613376565b5b61300a826133b9565b9050602081019050919050565b600081519050919050565b600081519050919050565b600082825260208201905092915050565b600082825260208201905092915050565b600081905092915050565b600061306582613191565b915061307083613191565b9250827fffffffffffffffffffffffffffffffffffffffffffffffffffffffffffffffff038211156130a5576130a46132ba565b5b828201905092915050565b60006130bb82613191565b91506130c683613191565b9250826130d6576130d56132e9565b5b828204905092915050565b60006130ec82613191565b91506130f783613191565b92508282101561310a576131096132ba565b5b828203905092915050565b600061312082613171565b9050919050565b600061313282613171565b9050919050565b60008115159050919050565b60007fffffffff0000000000000000000000000000000000000000000000000000000082169050919050565b600073ffffffffffffffffffffffffffffffffffffffff82169050919050565b6000819050919050565b82818337600083830152505050565b60005b838110156131c85780820151818401526020810190506131ad565b838111156131d7576000848401525b50505050565b600060028204905060018216806131f557607f821691505b6020821081141561320957613208613318565b5b50919050565b613218826133b9565b810181811067ffffffffffffffff8211171561323757613236613376565b5b80604052505050565b600061324b82613191565b91507fffffffffffffffffffffffffffffffffffffffffffffffffffffffffffffffff82141561327e5761327d6132ba565b5b600182019050919050565b600061329482613191565b915061329f83613191565b9250826132af576132ae6132e9565b5b828206905092915050565b7f4e487b7100000000000000000000000000000000000000000000000000000000600052601160045260246000fd5b7f4e487b7100000000000000000000000000000000000000000000000000000000600052601260045260246000fd5b7f4e487b7100000000000000000000000000000000000000000000000000000000600052602260045260246000fd5b7f4e487b7100000000000000000000000000000000000000000000000000000000600052603260045260246000fd5b7f4e487b7100000000000000000000000000000000000000000000000000000000600052604160045260246000fd5b600080fd5b600080fd5b600080fd5b600080fd5b6000601f19601f8301169050919050565b7f4552433732313a207472616e7366657220746f206e6f6e20455243373231526560008201527f63656976657220696d706c656d656e7465720000000000000000000000000000602082015250565b7f4f776e61626c653a206e6577206f776e657220697320746865207a65726f206160008201527f6464726573730000000000000000000000000000000000000000000000000000602082015250565b7f4552433732313a20746f6b656e20616c7265616479206d696e74656400000000600082015250565b7f4552433732313a207472616e7366657220746f20746865207a65726f2061646460008201527f7265737300000000000000000000000000000000000000000000000000000000602082015250565b7f4552433732313a20617070726f766520746f2063616c6c657200000000000000600082015250565b7f4552433732313a206f70657261746f7220717565727920666f72206e6f6e657860008201527f697374656e7420746f6b656e0000000000000000000000000000000000000000602082015250565b7f4552433732313a20617070726f76652063616c6c6572206973206e6f74206f7760008201527f6e6572206e6f7220617070726f76656420666f7220616c6c0000000000000000602082015250565b7f4552433732313a2062616c616e636520717565727920666f7220746865207a6560008201527f726f206164647265737300000000000000000000000000000000000000000000602082015250565b7f4552433732313a206f776e657220717565727920666f72206e6f6e657869737460008201527f656e7420746f6b656e0000000000000000000000000000000000000000000000602082015250565b7f45524337323155524953746f726167653a2055524920736574206f66206e6f6e60008201527f6578697374656e7420746f6b656e000000000000000000000000000000000000602082015250565b7f4552433732313a206d696e7420746f20746865207a65726f2061646472657373600082015250565b7f45524337323155524953746f726167653a2055524920717565727920666f722060008201527f6e6f6e6578697374656e7420746f6b656e000000000000000000000000000000602082015250565b7f4552433732313a20617070726f76656420717565727920666f72206e6f6e657860008201527f697374656e7420746f6b656e0000000000000000000000000000000000000000602082015250565b7f4f776e61626c653a2063616c6c6572206973206e6f7420746865206f776e6572600082015250565b7f4552433732313a207472616e73666572206f6620746f6b656e2074686174206960008201527f73206e6f74206f776e0000000000000000000000000000000000000000000000602082015250565b7f4552433732314d657461646174613a2055524920717565727920666f72206e6f60008201527f6e6578697374656e7420746f6b656e0000000000000000000000000000000000602082015250565b7f4552433732313a20617070726f76616c20746f2063757272656e74206f776e6560008201527f7200000000000000000000000000000000000000000000000000000000000000602082015250565b7f4552433732313a207472616e736665722063616c6c6572206973206e6f74206f60008201527f776e6572206e6f7220617070726f766564000000000000000000000000000000602082015250565b6138c981613115565b81146138d457600080fd5b50565b6138e081613127565b81146138eb57600080fd5b50565b6138f781613139565b811461390257600080fd5b50565b61390e81613145565b811461391957600080fd5b50565b61392581613191565b811461393057600080fd5b5056fea2646970667358221220d17b567a1887209a616ee4f319248283f70d0815df6b94416493f805228789b564736f6c63430008070033",
  "immutableReferences": {},
  "source": "//Contract based on [https://docs.openzeppelin.com/contracts/3.x/erc721](https://docs.openzeppelin.com/contracts/3.x/erc721)\n// SPDX-License-Identifier: MIT\npragma solidity ^0.8.7;\n\nimport \"@openzeppelin/contracts/token/ERC721/ERC721.sol\";\nimport \"@openzeppelin/contracts/utils/Counters.sol\";\nimport \"@openzeppelin/contracts/access/Ownable.sol\";\nimport \"@openzeppelin/contracts/token/ERC721/extensions/ERC721URIStorage.sol\";\n\ncontract KulfyV3 is ERC721URIStorage, Ownable {\n    //string public name = \"KulfyV3\";\n    mapping(uint256 => Kulfy) public kulfies;\n    using Counters for Counters.Counter;\n    Counters.Counter public tokenIds;\n\n    constructor() public ERC721(\"KULFY\", \"KUL\") {}\n\n    struct Kulfy {\n        uint256 id;\n        string kid;\n        string tokenURI;\n        string assetURI;\n        uint256 tipAmount;\n        address payable author;\n    }\n\n    event KulfyCreated(\n        uint256 id,\n        string hash,\n        string kid,\n        uint256 tipAmount,\n        address payable author\n    );\n\n    event KulfyTipped(\n        uint256 id,\n        string hash,\n        string kid,\n        uint256 tipAmount,\n        address payable author\n    );\n\n    function mintNFT(\n        address payable recipient,\n        string memory _tokenURI,\n        string memory _assetURI,\n        string memory _kid\n    ) public returns (uint256) {\n        tokenIds.increment();\n\n        uint256 newItemId = tokenIds.current();\n        _mint(recipient, newItemId);\n        _setTokenURI(newItemId, _tokenURI);\n        kulfies[newItemId] = Kulfy(\n            newItemId,\n            _kid,\n            _tokenURI,\n            _assetURI,\n            0,\n            recipient\n        );\n\n        return newItemId;\n    }\n\n    function tipKulfyOwner(uint256 _id) public payable {\n        require(_id > 0 && _id <= tokenIds.current());\n        Kulfy memory _kulfy = kulfies[_id];\n\n        address payable _author = _kulfy.author;\n\n        _author.transfer(msg.value);\n\n        _kulfy.tipAmount = _kulfy.tipAmount + msg.value;\n\n        kulfies[_id] = _kulfy;\n\n        emit KulfyTipped(\n            _id,\n            _kulfy.tokenURI,\n            _kulfy.kid,\n            _kulfy.tipAmount,\n            _author\n        );\n    }\n}\n",
  "sourcePath": "/Users/gkolluri/Documents/blockchain/kulfy3/src/contracts/KulfyV3.sol",
  "compiler": {
    "name": "solc",
    "version": "0.8.7+commit.e28d00a7.Emscripten.clang"
  },
  "schemaVersion": "3.4.3",
  "updatedAt": "2021-12-20T23:10:37.635Z",
  "networkType": "ethereum",
  "devdoc": {
    "kind": "dev",
    "methods": {
      "approve(address,uint256)": {
        "details": "See {IERC721-approve}."
      },
      "balanceOf(address)": {
        "details": "See {IERC721-balanceOf}."
      },
      "getApproved(uint256)": {
        "details": "See {IERC721-getApproved}."
      },
      "isApprovedForAll(address,address)": {
        "details": "See {IERC721-isApprovedForAll}."
      },
      "name()": {
        "details": "See {IERC721Metadata-name}."
      },
      "owner()": {
        "details": "Returns the address of the current owner."
      },
      "ownerOf(uint256)": {
        "details": "See {IERC721-ownerOf}."
      },
      "renounceOwnership()": {
        "details": "Leaves the contract without owner. It will not be possible to call `onlyOwner` functions anymore. Can only be called by the current owner. NOTE: Renouncing ownership will leave the contract without an owner, thereby removing any functionality that is only available to the owner."
      },
      "safeTransferFrom(address,address,uint256)": {
        "details": "See {IERC721-safeTransferFrom}."
      },
      "safeTransferFrom(address,address,uint256,bytes)": {
        "details": "See {IERC721-safeTransferFrom}."
      },
      "setApprovalForAll(address,bool)": {
        "details": "See {IERC721-setApprovalForAll}."
      },
      "supportsInterface(bytes4)": {
        "details": "See {IERC165-supportsInterface}."
      },
      "symbol()": {
        "details": "See {IERC721Metadata-symbol}."
      },
      "tokenURI(uint256)": {
        "details": "See {IERC721Metadata-tokenURI}."
      },
      "transferFrom(address,address,uint256)": {
        "details": "See {IERC721-transferFrom}."
      },
      "transferOwnership(address)": {
        "details": "Transfers ownership of the contract to a new account (`newOwner`). Can only be called by the current owner."
      }
    },
    "version": 1
  },
  "userdoc": {
    "kind": "user",
    "methods": {},
    "version": 1
  }
}