{
  "contractName": "KulfyV3",
  "abi": [
    {
      "inputs": [],
      "stateMutability": "nonpayable",
      "type": "constructor"
    },
    {
      "anonymous": false,
      "inputs": [
        {
          "indexed": true,
          "internalType": "address",
          "name": "owner",
          "type": "address"
        },
        {
          "indexed": true,
          "internalType": "address",
          "name": "approved",
          "type": "address"
        },
        {
          "indexed": true,
          "internalType": "uint256",
          "name": "tokenId",
          "type": "uint256"
        }
      ],
      "name": "Approval",
      "type": "event"
    },
    {
      "anonymous": false,
      "inputs": [
        {
          "indexed": true,
          "internalType": "address",
          "name": "owner",
          "type": "address"
        },
        {
          "indexed": true,
          "internalType": "address",
          "name": "operator",
          "type": "address"
        },
        {
          "indexed": false,
          "internalType": "bool",
          "name": "approved",
          "type": "bool"
        }
      ],
      "name": "ApprovalForAll",
      "type": "event"
    },
    {
      "anonymous": false,
      "inputs": [
        {
          "indexed": false,
          "internalType": "uint256",
          "name": "id",
          "type": "uint256"
        },
        {
          "indexed": false,
          "internalType": "string",
          "name": "tokenURI",
          "type": "string"
        },
        {
          "indexed": false,
          "internalType": "string",
          "name": "assetURI",
          "type": "string"
        },
        {
          "indexed": false,
          "internalType": "string",
          "name": "kid",
          "type": "string"
        },
        {
          "indexed": false,
          "internalType": "address payable",
          "name": "author",
          "type": "address"
        }
      ],
      "name": "KulfyCreated",
      "type": "event"
    },
    {
      "anonymous": false,
      "inputs": [
        {
          "indexed": false,
          "internalType": "uint256",
          "name": "id",
          "type": "uint256"
        },
        {
          "indexed": false,
          "internalType": "string",
          "name": "hash",
          "type": "string"
        },
        {
          "indexed": false,
          "internalType": "string",
          "name": "kid",
          "type": "string"
        },
        {
          "indexed": false,
          "internalType": "uint256",
          "name": "tipAmount",
          "type": "uint256"
        },
        {
          "indexed": false,
          "internalType": "address payable",
          "name": "author",
          "type": "address"
        },
        {
          "indexed": false,
          "internalType": "address",
          "name": "tipper",
          "type": "address"
        }
      ],
      "name": "KulfyTipped",
      "type": "event"
    },
    {
      "anonymous": false,
      "inputs": [
        {
          "indexed": true,
          "internalType": "address",
          "name": "previousOwner",
          "type": "address"
        },
        {
          "indexed": true,
          "internalType": "address",
          "name": "newOwner",
          "type": "address"
        }
      ],
      "name": "OwnershipTransferred",
      "type": "event"
    },
    {
      "anonymous": false,
      "inputs": [
        {
          "indexed": true,
          "internalType": "address",
          "name": "from",
          "type": "address"
        },
        {
          "indexed": true,
          "internalType": "address",
          "name": "to",
          "type": "address"
        },
        {
          "indexed": true,
          "internalType": "uint256",
          "name": "tokenId",
          "type": "uint256"
        }
      ],
      "name": "Transfer",
      "type": "event"
    },
    {
      "inputs": [
        {
          "internalType": "address",
          "name": "to",
          "type": "address"
        },
        {
          "internalType": "uint256",
          "name": "tokenId",
          "type": "uint256"
        }
      ],
      "name": "approve",
      "outputs": [],
      "stateMutability": "nonpayable",
      "type": "function"
    },
    {
      "inputs": [
        {
          "internalType": "address",
          "name": "owner",
          "type": "address"
        }
      ],
      "name": "balanceOf",
      "outputs": [
        {
          "internalType": "uint256",
          "name": "",
          "type": "uint256"
        }
      ],
      "stateMutability": "view",
      "type": "function",
      "constant": true
    },
    {
      "inputs": [],
      "name": "gasLimit",
      "outputs": [
        {
          "internalType": "uint256",
          "name": "",
          "type": "uint256"
        }
      ],
      "stateMutability": "view",
      "type": "function",
      "constant": true
    },
    {
      "inputs": [
        {
          "internalType": "uint256",
          "name": "tokenId",
          "type": "uint256"
        }
      ],
      "name": "getApproved",
      "outputs": [
        {
          "internalType": "address",
          "name": "",
          "type": "address"
        }
      ],
      "stateMutability": "view",
      "type": "function",
      "constant": true
    },
    {
      "inputs": [
        {
          "internalType": "address",
          "name": "owner",
          "type": "address"
        },
        {
          "internalType": "address",
          "name": "operator",
          "type": "address"
        }
      ],
      "name": "isApprovedForAll",
      "outputs": [
        {
          "internalType": "bool",
          "name": "",
          "type": "bool"
        }
      ],
      "stateMutability": "view",
      "type": "function",
      "constant": true
    },
    {
      "inputs": [
        {
          "internalType": "uint256",
          "name": "",
          "type": "uint256"
        }
      ],
      "name": "kulfys",
      "outputs": [
        {
          "internalType": "uint256",
          "name": "id",
          "type": "uint256"
        },
        {
          "internalType": "string",
          "name": "kid",
          "type": "string"
        },
        {
          "internalType": "string",
          "name": "tokenURI",
          "type": "string"
        },
        {
          "internalType": "string",
          "name": "assetURI",
          "type": "string"
        },
        {
          "internalType": "uint256",
          "name": "tipAmount",
          "type": "uint256"
        },
        {
          "internalType": "address payable",
          "name": "author",
          "type": "address"
        }
      ],
      "stateMutability": "view",
      "type": "function",
      "constant": true
    },
    {
      "inputs": [],
      "name": "name",
      "outputs": [
        {
          "internalType": "string",
          "name": "",
          "type": "string"
        }
      ],
      "stateMutability": "view",
      "type": "function",
      "constant": true
    },
    {
      "inputs": [],
      "name": "owner",
      "outputs": [
        {
          "internalType": "address",
          "name": "",
          "type": "address"
        }
      ],
      "stateMutability": "view",
      "type": "function",
      "constant": true
    },
    {
      "inputs": [
        {
          "internalType": "uint256",
          "name": "tokenId",
          "type": "uint256"
        }
      ],
      "name": "ownerOf",
      "outputs": [
        {
          "internalType": "address",
          "name": "",
          "type": "address"
        }
      ],
      "stateMutability": "view",
      "type": "function",
      "constant": true
    },
    {
      "inputs": [],
      "name": "renounceOwnership",
      "outputs": [],
      "stateMutability": "nonpayable",
      "type": "function"
    },
    {
      "inputs": [
        {
          "internalType": "address",
          "name": "from",
          "type": "address"
        },
        {
          "internalType": "address",
          "name": "to",
          "type": "address"
        },
        {
          "internalType": "uint256",
          "name": "tokenId",
          "type": "uint256"
        }
      ],
      "name": "safeTransferFrom",
      "outputs": [],
      "stateMutability": "nonpayable",
      "type": "function"
    },
    {
      "inputs": [
        {
          "internalType": "address",
          "name": "from",
          "type": "address"
        },
        {
          "internalType": "address",
          "name": "to",
          "type": "address"
        },
        {
          "internalType": "uint256",
          "name": "tokenId",
          "type": "uint256"
        },
        {
          "internalType": "bytes",
          "name": "_data",
          "type": "bytes"
        }
      ],
      "name": "safeTransferFrom",
      "outputs": [],
      "stateMutability": "nonpayable",
      "type": "function"
    },
    {
      "inputs": [
        {
          "internalType": "address",
          "name": "operator",
          "type": "address"
        },
        {
          "internalType": "bool",
          "name": "approved",
          "type": "bool"
        }
      ],
      "name": "setApprovalForAll",
      "outputs": [],
      "stateMutability": "nonpayable",
      "type": "function"
    },
    {
      "inputs": [
        {
          "internalType": "bytes4",
          "name": "interfaceId",
          "type": "bytes4"
        }
      ],
      "name": "supportsInterface",
      "outputs": [
        {
          "internalType": "bool",
          "name": "",
          "type": "bool"
        }
      ],
      "stateMutability": "view",
      "type": "function",
      "constant": true
    },
    {
      "inputs": [],
      "name": "symbol",
      "outputs": [
        {
          "internalType": "string",
          "name": "",
          "type": "string"
        }
      ],
      "stateMutability": "view",
      "type": "function",
      "constant": true
    },
    {
      "inputs": [],
      "name": "tokenIds",
      "outputs": [
        {
          "internalType": "uint256",
          "name": "_value",
          "type": "uint256"
        }
      ],
      "stateMutability": "view",
      "type": "function",
      "constant": true
    },
    {
      "inputs": [
        {
          "internalType": "uint256",
          "name": "tokenId",
          "type": "uint256"
        }
      ],
      "name": "tokenURI",
      "outputs": [
        {
          "internalType": "string",
          "name": "",
          "type": "string"
        }
      ],
      "stateMutability": "view",
      "type": "function",
      "constant": true
    },
    {
      "inputs": [
        {
          "internalType": "address",
          "name": "from",
          "type": "address"
        },
        {
          "internalType": "address",
          "name": "to",
          "type": "address"
        },
        {
          "internalType": "uint256",
          "name": "tokenId",
          "type": "uint256"
        }
      ],
      "name": "transferFrom",
      "outputs": [],
      "stateMutability": "nonpayable",
      "type": "function"
    },
    {
      "inputs": [
        {
          "internalType": "address",
          "name": "newOwner",
          "type": "address"
        }
      ],
      "name": "transferOwnership",
      "outputs": [],
      "stateMutability": "nonpayable",
      "type": "function"
    },
    {
      "inputs": [
        {
          "internalType": "address payable",
          "name": "author",
          "type": "address"
        },
        {
          "internalType": "string",
          "name": "_tokenURI",
          "type": "string"
        },
        {
          "internalType": "string",
          "name": "_assetURI",
          "type": "string"
        },
        {
          "internalType": "string",
          "name": "_kid",
          "type": "string"
        }
      ],
      "name": "mintNFT",
      "outputs": [
        {
          "internalType": "uint256",
          "name": "",
          "type": "uint256"
        }
      ],
      "stateMutability": "nonpayable",
      "type": "function"
    },
    {
      "inputs": [
        {
          "internalType": "uint256",
          "name": "_id",
          "type": "uint256"
        },
        {
          "internalType": "uint256",
          "name": "_gas",
          "type": "uint256"
        }
      ],
      "name": "tipKulfyAuthor",
      "outputs": [],
      "stateMutability": "payable",
      "type": "function",
      "payable": true
    },
    {
      "inputs": [
        {
          "internalType": "uint256",
          "name": "newGasLimit",
          "type": "uint256"
        }
      ],
      "name": "changeGasLimit",
      "outputs": [],
      "stateMutability": "nonpayable",
      "type": "function"
    }
  ],
  "bytecode": "0x6080604052611388600b553480156200001757600080fd5b506040518060400160405280600581526020017f4b554c46590000000000000000000000000000000000000000000000000000008152506040518060400160405280600381526020017f4b554c000000000000000000000000000000000000000000000000000000000081525081600090805190602001906200009c929190620001b4565b508060019080519060200190620000b5929190620001b4565b505050620000d8620000cc620000e660201b60201c565b620000ee60201b60201c565b6001600881905550620002c9565b600033905090565b6000600760009054906101000a900473ffffffffffffffffffffffffffffffffffffffff16905081600760006101000a81548173ffffffffffffffffffffffffffffffffffffffff021916908373ffffffffffffffffffffffffffffffffffffffff1602179055508173ffffffffffffffffffffffffffffffffffffffff168173ffffffffffffffffffffffffffffffffffffffff167f8be0079c531659141344cd1fd0a4f28419497f9722a3daafe3b4186f6b6457e060405160405180910390a35050565b828054620001c29062000264565b90600052602060002090601f016020900481019282620001e6576000855562000232565b82601f106200020157805160ff191683800117855562000232565b8280016001018555821562000232579182015b828111156200023157825182559160200191906001019062000214565b5b50905062000241919062000245565b5090565b5b808211156200026057600081600090555060010162000246565b5090565b600060028204905060018216806200027d57607f821691505b602082108114156200029457620002936200029a565b5b50919050565b7f4e487b7100000000000000000000000000000000000000000000000000000000600052602260045260246000fd5b613e1480620002d96000396000f3fe6080604052600436106101355760003560e01c80637791d3f3116100ab578063b88d4fde1161006f578063b88d4fde14610430578063baf539ee14610459578063c87b56dd14610482578063e985e9c5146104bf578063f2fde38b146104fc578063f68016b71461052557610135565b80637791d3f3146103585780637da7492e146103955780638da5cb5b146103b157806395d89b41146103dc578063a22cb4651461040757610135565b80633617b8a9116100fd5780633617b8a91461023157806342842e0e146102735780636352211e1461029c57806370a08231146102d9578063714cff5614610316578063715018a61461034157610135565b806301ffc9a71461013a57806306fdde0314610177578063081812fc146101a2578063095ea7b3146101df57806323b872dd14610208575b600080fd5b34801561014657600080fd5b50610161600480360381019061015c9190612a25565b610550565b60405161016e9190612f6d565b60405180910390f35b34801561018357600080fd5b5061018c610632565b6040516101999190612f88565b60405180910390f35b3480156101ae57600080fd5b506101c960048036038101906101c49190612a7f565b6106c4565b6040516101d69190612f06565b60405180910390f35b3480156101eb57600080fd5b50610206600480360381019061020191906129e5565b610749565b005b34801561021457600080fd5b5061022f600480360381019061022a91906128cf565b610861565b005b34801561023d57600080fd5b5061025860048036038101906102539190612a7f565b6108c1565b60405161026a969594939291906132cd565b60405180910390f35b34801561027f57600080fd5b5061029a600480360381019061029591906128cf565b610ab5565b005b3480156102a857600080fd5b506102c360048036038101906102be9190612a7f565b610ad5565b6040516102d09190612f06565b60405180910390f35b3480156102e557600080fd5b5061030060048036038101906102fb91906127a7565b610b87565b60405161030d919061324a565b60405180910390f35b34801561032257600080fd5b5061032b610c3f565b604051610338919061324a565b60405180910390f35b34801561034d57600080fd5b50610356610c4b565b005b34801561036457600080fd5b5061037f600480360381019061037a91906127d4565b610cd3565b60405161038c919061324a565b60405180910390f35b6103af60048036038101906103aa9190612aac565b610e58565b005b3480156103bd57600080fd5b506103c6611348565b6040516103d39190612f06565b60405180910390f35b3480156103e857600080fd5b506103f1611372565b6040516103fe9190612f88565b60405180910390f35b34801561041357600080fd5b5061042e600480360381019061042991906129a5565b611404565b005b34801561043c57600080fd5b5061045760048036038101906104529190612922565b61141a565b005b34801561046557600080fd5b50610480600480360381019061047b9190612a7f565b61147c565b005b34801561048e57600080fd5b506104a960048036038101906104a49190612a7f565b611502565b6040516104b69190612f88565b60405180910390f35b3480156104cb57600080fd5b506104e660048036038101906104e1919061288f565b611654565b6040516104f39190612f6d565b60405180910390f35b34801561050857600080fd5b50610523600480360381019061051e91906127a7565b6116e8565b005b34801561053157600080fd5b5061053a6117e0565b604051610547919061324a565b60405180910390f35b60007f80ac58cd000000000000000000000000000000000000000000000000000000007bffffffffffffffffffffffffffffffffffffffffffffffffffffffff1916827bffffffffffffffffffffffffffffffffffffffffffffffffffffffff1916148061061b57507f5b5e139f000000000000000000000000000000000000000000000000000000007bffffffffffffffffffffffffffffffffffffffffffffffffffffffff1916827bffffffffffffffffffffffffffffffffffffffffffffffffffffffff1916145b8061062b575061062a826117e6565b5b9050919050565b6060600080546106419061360a565b80601f016020809104026020016040519081016040528092919081815260200182805461066d9061360a565b80156106ba5780601f1061068f576101008083540402835291602001916106ba565b820191906000526020600020905b81548152906001019060200180831161069d57829003601f168201915b5050505050905090565b60006106cf82611850565b61070e576040517f08c379a00000000000000000000000000000000000000000000000000000000081526004016107059061316a565b60405180910390fd5b6004600083815260200190815260200160002060009054906101000a900473ffffffffffffffffffffffffffffffffffffffff169050919050565b600061075482610ad5565b90508073ffffffffffffffffffffffffffffffffffffffff168373ffffffffffffffffffffffffffffffffffffffff1614156107c5576040517f08c379a00000000000000000000000000000000000000000000000000000000081526004016107bc906131ea565b60405180910390fd5b8073ffffffffffffffffffffffffffffffffffffffff166107e46118bc565b73ffffffffffffffffffffffffffffffffffffffff16148061081357506108128161080d6118bc565b611654565b5b610852576040517f08c379a0000000000000000000000000000000000000000000000000000000008152600401610849906130aa565b60405180910390fd5b61085c83836118c4565b505050565b61087261086c6118bc565b8261197d565b6108b1576040517f08c379a00000000000000000000000000000000000000000000000000000000081526004016108a89061320a565b60405180910390fd5b6108bc838383611a5b565b505050565b60096020528060005260406000206000915090508060000154908060010180546108ea9061360a565b80601f01602080910402602001604051908101604052809291908181526020018280546109169061360a565b80156109635780601f1061093857610100808354040283529160200191610963565b820191906000526020600020905b81548152906001019060200180831161094657829003601f168201915b5050505050908060020180546109789061360a565b80601f01602080910402602001604051908101604052809291908181526020018280546109a49061360a565b80156109f15780601f106109c6576101008083540402835291602001916109f1565b820191906000526020600020905b8154815290600101906020018083116109d457829003601f168201915b505050505090806003018054610a069061360a565b80601f0160208091040260200160405190810160405280929190818152602001828054610a329061360a565b8015610a7f5780601f10610a5457610100808354040283529160200191610a7f565b820191906000526020600020905b815481529060010190602001808311610a6257829003601f168201915b5050505050908060040154908060050160009054906101000a900473ffffffffffffffffffffffffffffffffffffffff16905086565b610ad08383836040518060200160405280600081525061141a565b505050565b6000806002600084815260200190815260200160002060009054906101000a900473ffffffffffffffffffffffffffffffffffffffff169050600073ffffffffffffffffffffffffffffffffffffffff168173ffffffffffffffffffffffffffffffffffffffff161415610b7e576040517f08c379a0000000000000000000000000000000000000000000000000000000008152600401610b75906130ea565b60405180910390fd5b80915050919050565b60008073ffffffffffffffffffffffffffffffffffffffff168273ffffffffffffffffffffffffffffffffffffffff161415610bf8576040517f08c379a0000000000000000000000000000000000000000000000000000000008152600401610bef906130ca565b60405180910390fd5b600360008373ffffffffffffffffffffffffffffffffffffffff1673ffffffffffffffffffffffffffffffffffffffff168152602001908152602001600020549050919050565b600a8060000154905081565b610c536118bc565b73ffffffffffffffffffffffffffffffffffffffff16610c71611348565b73ffffffffffffffffffffffffffffffffffffffff1614610cc7576040517f08c379a0000000000000000000000000000000000000000000000000000000008152600401610cbe9061318a565b60405180910390fd5b610cd16000611cc2565b565b6000610cdf600a611d88565b6000610ceb600a611d9e565b9050610cf78682611dac565b610d018186611f86565b6040518060c00160405280828152602001848152602001868152602001858152602001600081526020018773ffffffffffffffffffffffffffffffffffffffff1681525060096000838152602001908152602001600020600082015181600001556020820151816001019080519060200190610d7e9291906125a6565b506040820151816002019080519060200190610d9b9291906125a6565b506060820151816003019080519060200190610db89291906125a6565b506080820151816004015560a08201518160050160006101000a81548173ffffffffffffffffffffffffffffffffffffffff021916908373ffffffffffffffffffffffffffffffffffffffff1602179055509050507fcfba13f74bc958f8f8d425c1da5c0c0d1fb2231ddffed937e6b5848e521a021f818686868a604051610e44959493929190613265565b60405180910390a180915050949350505050565b60026008541415610e9e576040517f08c379a0000000000000000000000000000000000000000000000000000000008152600401610e959061322a565b60405180910390fd5b6002600881905550600082118015610ebf5750610ebb600a611d9e565b8211155b610efe576040517f08c379a0000000000000000000000000000000000000000000000000000000008152600401610ef5906131ca565b60405180910390fd5b600b54811115610f0d57600080fd5b6000600960008481526020019081526020016000206040518060c001604052908160008201548152602001600182018054610f479061360a565b80601f0160208091040260200160405190810160405280929190818152602001828054610f739061360a565b8015610fc05780601f10610f9557610100808354040283529160200191610fc0565b820191906000526020600020905b815481529060010190602001808311610fa357829003601f168201915b50505050508152602001600282018054610fd99061360a565b80601f01602080910402602001604051908101604052809291908181526020018280546110059061360a565b80156110525780601f1061102757610100808354040283529160200191611052565b820191906000526020600020905b81548152906001019060200180831161103557829003601f168201915b5050505050815260200160038201805461106b9061360a565b80601f01602080910402602001604051908101604052809291908181526020018280546110979061360a565b80156110e45780601f106110b9576101008083540402835291602001916110e4565b820191906000526020600020905b8154815290600101906020018083116110c757829003601f168201915b50505050508152602001600482015481526020016005820160009054906101000a900473ffffffffffffffffffffffffffffffffffffffff1673ffffffffffffffffffffffffffffffffffffffff1673ffffffffffffffffffffffffffffffffffffffff1681525050905060008160a0015190506000808273ffffffffffffffffffffffffffffffffffffffff1634869060405161118190612ef1565b600060405180830381858888f193505050503d80600081146111bf576040519150601f19603f3d011682016040523d82523d6000602084013e6111c4565b606091505b509150915081611209576040517f08c379a00000000000000000000000000000000000000000000000000000000081526004016112009061302a565b60405180910390fd5b3484608001516112199190613487565b846080018181525050836009600088815260200190815260200160002060008201518160000155602082015181600101908051906020019061125c9291906125a6565b5060408201518160020190805190602001906112799291906125a6565b5060608201518160030190805190602001906112969291906125a6565b506080820151816004015560a08201518160050160006101000a81548173ffffffffffffffffffffffffffffffffffffffff021916908373ffffffffffffffffffffffffffffffffffffffff1602179055509050507ffaf4ce3c97680022e76284ce8b5c5692f4ef12d5b18ebf3eeafa34d90698281886856040015186602001518760800151873360405161133096959493929190613343565b60405180910390a15050505060016008819055505050565b6000600760009054906101000a900473ffffffffffffffffffffffffffffffffffffffff16905090565b6060600180546113819061360a565b80601f01602080910402602001604051908101604052809291908181526020018280546113ad9061360a565b80156113fa5780601f106113cf576101008083540402835291602001916113fa565b820191906000526020600020905b8154815290600101906020018083116113dd57829003601f168201915b5050505050905090565b61141661140f6118bc565b8383611ffa565b5050565b61142b6114256118bc565b8361197d565b61146a576040517f08c379a00000000000000000000000000000000000000000000000000000000081526004016114619061320a565b60405180910390fd5b61147684848484612167565b50505050565b6114846118bc565b73ffffffffffffffffffffffffffffffffffffffff166114a2611348565b73ffffffffffffffffffffffffffffffffffffffff16146114f8576040517f08c379a00000000000000000000000000000000000000000000000000000000081526004016114ef9061318a565b60405180910390fd5b80600b8190555050565b606061150d82611850565b61154c576040517f08c379a00000000000000000000000000000000000000000000000000000000081526004016115439061314a565b60405180910390fd5b600060066000848152602001908152602001600020805461156c9061360a565b80601f01602080910402602001604051908101604052809291908181526020018280546115989061360a565b80156115e55780601f106115ba576101008083540402835291602001916115e5565b820191906000526020600020905b8154815290600101906020018083116115c857829003601f168201915b5050505050905060006115f66121c3565b905060008151141561160c57819250505061164f565b600082511115611641578082604051602001611629929190612ecd565b6040516020818303038152906040529250505061164f565b61164a846121da565b925050505b919050565b6000600560008473ffffffffffffffffffffffffffffffffffffffff1673ffffffffffffffffffffffffffffffffffffffff16815260200190815260200160002060008373ffffffffffffffffffffffffffffffffffffffff1673ffffffffffffffffffffffffffffffffffffffff16815260200190815260200160002060009054906101000a900460ff16905092915050565b6116f06118bc565b73ffffffffffffffffffffffffffffffffffffffff1661170e611348565b73ffffffffffffffffffffffffffffffffffffffff1614611764576040517f08c379a000000000000000000000000000000000000000000000000000000000815260040161175b9061318a565b60405180910390fd5b600073ffffffffffffffffffffffffffffffffffffffff168173ffffffffffffffffffffffffffffffffffffffff1614156117d4576040517f08c379a00000000000000000000000000000000000000000000000000000000081526004016117cb90612fca565b60405180910390fd5b6117dd81611cc2565b50565b600b5481565b60007f01ffc9a7000000000000000000000000000000000000000000000000000000007bffffffffffffffffffffffffffffffffffffffffffffffffffffffff1916827bffffffffffffffffffffffffffffffffffffffffffffffffffffffff1916149050919050565b60008073ffffffffffffffffffffffffffffffffffffffff166002600084815260200190815260200160002060009054906101000a900473ffffffffffffffffffffffffffffffffffffffff1673ffffffffffffffffffffffffffffffffffffffff1614159050919050565b600033905090565b816004600083815260200190815260200160002060006101000a81548173ffffffffffffffffffffffffffffffffffffffff021916908373ffffffffffffffffffffffffffffffffffffffff160217905550808273ffffffffffffffffffffffffffffffffffffffff1661193783610ad5565b73ffffffffffffffffffffffffffffffffffffffff167f8c5be1e5ebec7d5bd14f71427d1e84f3dd0314c0f7b2291e5b200ac8c7c3b92560405160405180910390a45050565b600061198882611850565b6119c7576040517f08c379a00000000000000000000000000000000000000000000000000000000081526004016119be9061308a565b60405180910390fd5b60006119d283610ad5565b90508073ffffffffffffffffffffffffffffffffffffffff168473ffffffffffffffffffffffffffffffffffffffff161480611a4157508373ffffffffffffffffffffffffffffffffffffffff16611a29846106c4565b73ffffffffffffffffffffffffffffffffffffffff16145b80611a525750611a518185611654565b5b91505092915050565b8273ffffffffffffffffffffffffffffffffffffffff16611a7b82610ad5565b73ffffffffffffffffffffffffffffffffffffffff1614611ad1576040517f08c379a0000000000000000000000000000000000000000000000000000000008152600401611ac890612fea565b60405180910390fd5b600073ffffffffffffffffffffffffffffffffffffffff168273ffffffffffffffffffffffffffffffffffffffff161415611b41576040517f08c379a0000000000000000000000000000000000000000000000000000000008152600401611b389061304a565b60405180910390fd5b611b4c838383612281565b611b576000826118c4565b6001600360008573ffffffffffffffffffffffffffffffffffffffff1673ffffffffffffffffffffffffffffffffffffffff1681526020019081526020016000206000828254611ba7919061350e565b925050819055506001600360008473ffffffffffffffffffffffffffffffffffffffff1673ffffffffffffffffffffffffffffffffffffffff1681526020019081526020016000206000828254611bfe9190613487565b92505081905550816002600083815260200190815260200160002060006101000a81548173ffffffffffffffffffffffffffffffffffffffff021916908373ffffffffffffffffffffffffffffffffffffffff160217905550808273ffffffffffffffffffffffffffffffffffffffff168473ffffffffffffffffffffffffffffffffffffffff167fddf252ad1be2c89b69c2b068fc378daa952ba7f163c4a11628f55a4df523b3ef60405160405180910390a4611cbd838383612286565b505050565b6000600760009054906101000a900473ffffffffffffffffffffffffffffffffffffffff16905081600760006101000a81548173ffffffffffffffffffffffffffffffffffffffff021916908373ffffffffffffffffffffffffffffffffffffffff1602179055508173ffffffffffffffffffffffffffffffffffffffff168173ffffffffffffffffffffffffffffffffffffffff167f8be0079c531659141344cd1fd0a4f28419497f9722a3daafe3b4186f6b6457e060405160405180910390a35050565b6001816000016000828254019250508190555050565b600081600001549050919050565b600073ffffffffffffffffffffffffffffffffffffffff168273ffffffffffffffffffffffffffffffffffffffff161415611e1c576040517f08c379a0000000000000000000000000000000000000000000000000000000008152600401611e139061312a565b60405180910390fd5b611e2581611850565b15611e65576040517f08c379a0000000000000000000000000000000000000000000000000000000008152600401611e5c9061300a565b60405180910390fd5b611e7160008383612281565b6001600360008473ffffffffffffffffffffffffffffffffffffffff1673ffffffffffffffffffffffffffffffffffffffff1681526020019081526020016000206000828254611ec19190613487565b92505081905550816002600083815260200190815260200160002060006101000a81548173ffffffffffffffffffffffffffffffffffffffff021916908373ffffffffffffffffffffffffffffffffffffffff160217905550808273ffffffffffffffffffffffffffffffffffffffff16600073ffffffffffffffffffffffffffffffffffffffff167fddf252ad1be2c89b69c2b068fc378daa952ba7f163c4a11628f55a4df523b3ef60405160405180910390a4611f8260008383612286565b5050565b611f8f82611850565b611fce576040517f08c379a0000000000000000000000000000000000000000000000000000000008152600401611fc59061310a565b60405180910390fd5b80600660008481526020019081526020016000209080519060200190611ff59291906125a6565b505050565b8173ffffffffffffffffffffffffffffffffffffffff168373ffffffffffffffffffffffffffffffffffffffff161415612069576040517f08c379a00000000000000000000000000000000000000000000000000000000081526004016120609061306a565b60405180910390fd5b80600560008573ffffffffffffffffffffffffffffffffffffffff1673ffffffffffffffffffffffffffffffffffffffff16815260200190815260200160002060008473ffffffffffffffffffffffffffffffffffffffff1673ffffffffffffffffffffffffffffffffffffffff16815260200190815260200160002060006101000a81548160ff0219169083151502179055508173ffffffffffffffffffffffffffffffffffffffff168373ffffffffffffffffffffffffffffffffffffffff167f17307eab39ab6107e8899845ad3d59bd9653f200f220920489ca2b5937696c318360405161215a9190612f6d565b60405180910390a3505050565b612172848484611a5b565b61217e8484848461228b565b6121bd576040517f08c379a00000000000000000000000000000000000000000000000000000000081526004016121b490612faa565b60405180910390fd5b50505050565b606060405180602001604052806000815250905090565b60606121e582611850565b612224576040517f08c379a000000000000000000000000000000000000000000000000000000000815260040161221b906131aa565b60405180910390fd5b600061222e6121c3565b9050600081511161224e5760405180602001604052806000815250612279565b8061225884612422565b604051602001612269929190612ecd565b6040516020818303038152906040525b915050919050565b505050565b505050565b60006122ac8473ffffffffffffffffffffffffffffffffffffffff16612583565b15612415578373ffffffffffffffffffffffffffffffffffffffff1663150b7a026122d56118bc565b8786866040518563ffffffff1660e01b81526004016122f79493929190612f21565b602060405180830381600087803b15801561231157600080fd5b505af192505050801561234257506040513d601f19601f8201168201806040525081019061233f9190612a52565b60015b6123c5573d8060008114612372576040519150601f19603f3d011682016040523d82523d6000602084013e612377565b606091505b506000815114156123bd576040517f08c379a00000000000000000000000000000000000000000000000000000000081526004016123b490612faa565b60405180910390fd5b805181602001fd5b63150b7a0260e01b7bffffffffffffffffffffffffffffffffffffffffffffffffffffffff1916817bffffffffffffffffffffffffffffffffffffffffffffffffffffffff19161491505061241a565b600190505b949350505050565b6060600082141561246a576040518060400160405280600181526020017f3000000000000000000000000000000000000000000000000000000000000000815250905061257e565b600082905060005b6000821461249c5780806124859061366d565b915050600a8261249591906134dd565b9150612472565b60008167ffffffffffffffff8111156124b8576124b76137a3565b5b6040519080825280601f01601f1916602001820160405280156124ea5781602001600182028036833780820191505090505b5090505b6000851461257757600182612503919061350e565b9150600a8561251291906136b6565b603061251e9190613487565b60f81b81838151811061253457612533613774565b5b60200101907effffffffffffffffffffffffffffffffffffffffffffffffffffffffffffff1916908160001a905350600a8561257091906134dd565b94506124ee565b8093505050505b919050565b6000808273ffffffffffffffffffffffffffffffffffffffff163b119050919050565b8280546125b29061360a565b90600052602060002090601f0160209004810192826125d4576000855561261b565b82601f106125ed57805160ff191683800117855561261b565b8280016001018555821561261b579182015b8281111561261a5782518255916020019190600101906125ff565b5b509050612628919061262c565b5090565b5b8082111561264557600081600090555060010161262d565b5090565b600061265c612657846133d7565b6133b2565b905082815260208101848484011115612678576126776137d7565b5b6126838482856135c8565b509392505050565b600061269e61269984613408565b6133b2565b9050828152602081018484840111156126ba576126b96137d7565b5b6126c58482856135c8565b509392505050565b6000813590506126dc81613d6b565b92915050565b6000813590506126f181613d82565b92915050565b60008135905061270681613d99565b92915050565b60008135905061271b81613db0565b92915050565b60008151905061273081613db0565b92915050565b600082601f83011261274b5761274a6137d2565b5b813561275b848260208601612649565b91505092915050565b600082601f830112612779576127786137d2565b5b813561278984826020860161268b565b91505092915050565b6000813590506127a181613dc7565b92915050565b6000602082840312156127bd576127bc6137e1565b5b60006127cb848285016126cd565b91505092915050565b600080600080608085870312156127ee576127ed6137e1565b5b60006127fc878288016126e2565b945050602085013567ffffffffffffffff81111561281d5761281c6137dc565b5b61282987828801612764565b935050604085013567ffffffffffffffff81111561284a576128496137dc565b5b61285687828801612764565b925050606085013567ffffffffffffffff811115612877576128766137dc565b5b61288387828801612764565b91505092959194509250565b600080604083850312156128a6576128a56137e1565b5b60006128b4858286016126cd565b92505060206128c5858286016126cd565b9150509250929050565b6000806000606084860312156128e8576128e76137e1565b5b60006128f6868287016126cd565b9350506020612907868287016126cd565b925050604061291886828701612792565b9150509250925092565b6000806000806080858703121561293c5761293b6137e1565b5b600061294a878288016126cd565b945050602061295b878288016126cd565b935050604061296c87828801612792565b925050606085013567ffffffffffffffff81111561298d5761298c6137dc565b5b61299987828801612736565b91505092959194509250565b600080604083850312156129bc576129bb6137e1565b5b60006129ca858286016126cd565b92505060206129db858286016126f7565b9150509250929050565b600080604083850312156129fc576129fb6137e1565b5b6000612a0a858286016126cd565b9250506020612a1b85828601612792565b9150509250929050565b600060208284031215612a3b57612a3a6137e1565b5b6000612a498482850161270c565b91505092915050565b600060208284031215612a6857612a676137e1565b5b6000612a7684828501612721565b91505092915050565b600060208284031215612a9557612a946137e1565b5b6000612aa384828501612792565b91505092915050565b60008060408385031215612ac357612ac26137e1565b5b6000612ad185828601612792565b9250506020612ae285828601612792565b9150509250929050565b612af581613554565b82525050565b612b0481613542565b82525050565b612b1381613566565b82525050565b6000612b2482613439565b612b2e818561344f565b9350612b3e8185602086016135d7565b612b47816137e6565b840191505092915050565b6000612b5d82613444565b612b67818561346b565b9350612b778185602086016135d7565b612b80816137e6565b840191505092915050565b6000612b9682613444565b612ba0818561347c565b9350612bb08185602086016135d7565b80840191505092915050565b6000612bc960328361346b565b9150612bd4826137f7565b604082019050919050565b6000612bec60268361346b565b9150612bf782613846565b604082019050919050565b6000612c0f60258361346b565b9150612c1a82613895565b604082019050919050565b6000612c32601c8361346b565b9150612c3d826138e4565b602082019050919050565b6000612c5560148361346b565b9150612c608261390d565b602082019050919050565b6000612c7860248361346b565b9150612c8382613936565b604082019050919050565b6000612c9b60198361346b565b9150612ca682613985565b602082019050919050565b6000612cbe602c8361346b565b9150612cc9826139ae565b604082019050919050565b6000612ce160388361346b565b9150612cec826139fd565b604082019050919050565b6000612d04602a8361346b565b9150612d0f82613a4c565b604082019050919050565b6000612d2760298361346b565b9150612d3282613a9b565b604082019050919050565b6000612d4a602e8361346b565b9150612d5582613aea565b604082019050919050565b6000612d6d60208361346b565b9150612d7882613b39565b602082019050919050565b6000612d9060318361346b565b9150612d9b82613b62565b604082019050919050565b6000612db3602c8361346b565b9150612dbe82613bb1565b604082019050919050565b6000612dd660208361346b565b9150612de182613c00565b602082019050919050565b6000612df9602f8361346b565b9150612e0482613c29565b604082019050919050565b6000612e1c60108361346b565b9150612e2782613c78565b602082019050919050565b6000612e3f60218361346b565b9150612e4a82613ca1565b604082019050919050565b6000612e62600083613460565b9150612e6d82613cf0565b600082019050919050565b6000612e8560318361346b565b9150612e9082613cf3565b604082019050919050565b6000612ea8601f8361346b565b9150612eb382613d42565b602082019050919050565b612ec7816135be565b82525050565b6000612ed98285612b8b565b9150612ee58284612b8b565b91508190509392505050565b6000612efc82612e55565b9150819050919050565b6000602082019050612f1b6000830184612afb565b92915050565b6000608082019050612f366000830187612afb565b612f436020830186612afb565b612f506040830185612ebe565b8181036060830152612f628184612b19565b905095945050505050565b6000602082019050612f826000830184612b0a565b92915050565b60006020820190508181036000830152612fa28184612b52565b905092915050565b60006020820190508181036000830152612fc381612bbc565b9050919050565b60006020820190508181036000830152612fe381612bdf565b9050919050565b6000602082019050818103600083015261300381612c02565b9050919050565b6000602082019050818103600083015261302381612c25565b9050919050565b6000602082019050818103600083015261304381612c48565b9050919050565b6000602082019050818103600083015261306381612c6b565b9050919050565b6000602082019050818103600083015261308381612c8e565b9050919050565b600060208201905081810360008301526130a381612cb1565b9050919050565b600060208201905081810360008301526130c381612cd4565b9050919050565b600060208201905081810360008301526130e381612cf7565b9050919050565b6000602082019050818103600083015261310381612d1a565b9050919050565b6000602082019050818103600083015261312381612d3d565b9050919050565b6000602082019050818103600083015261314381612d60565b9050919050565b6000602082019050818103600083015261316381612d83565b9050919050565b6000602082019050818103600083015261318381612da6565b9050919050565b600060208201905081810360008301526131a381612dc9565b9050919050565b600060208201905081810360008301526131c381612dec565b9050919050565b600060208201905081810360008301526131e381612e0f565b9050919050565b6000602082019050818103600083015261320381612e32565b9050919050565b6000602082019050818103600083015261322381612e78565b9050919050565b6000602082019050818103600083015261324381612e9b565b9050919050565b600060208201905061325f6000830184612ebe565b92915050565b600060a08201905061327a6000830188612ebe565b818103602083015261328c8187612b52565b905081810360408301526132a08186612b52565b905081810360608301526132b48185612b52565b90506132c36080830184612aec565b9695505050505050565b600060c0820190506132e26000830189612ebe565b81810360208301526132f48188612b52565b905081810360408301526133088187612b52565b9050818103606083015261331c8186612b52565b905061332b6080830185612ebe565b61333860a0830184612aec565b979650505050505050565b600060c0820190506133586000830189612ebe565b818103602083015261336a8188612b52565b9050818103604083015261337e8187612b52565b905061338d6060830186612ebe565b61339a6080830185612aec565b6133a760a0830184612afb565b979650505050505050565b60006133bc6133cd565b90506133c8828261363c565b919050565b6000604051905090565b600067ffffffffffffffff8211156133f2576133f16137a3565b5b6133fb826137e6565b9050602081019050919050565b600067ffffffffffffffff821115613423576134226137a3565b5b61342c826137e6565b9050602081019050919050565b600081519050919050565b600081519050919050565b600082825260208201905092915050565b600081905092915050565b600082825260208201905092915050565b600081905092915050565b6000613492826135be565b915061349d836135be565b9250827fffffffffffffffffffffffffffffffffffffffffffffffffffffffffffffffff038211156134d2576134d16136e7565b5b828201905092915050565b60006134e8826135be565b91506134f3836135be565b92508261350357613502613716565b5b828204905092915050565b6000613519826135be565b9150613524836135be565b925082821015613537576135366136e7565b5b828203905092915050565b600061354d8261359e565b9050919050565b600061355f8261359e565b9050919050565b60008115159050919050565b60007fffffffff0000000000000000000000000000000000000000000000000000000082169050919050565b600073ffffffffffffffffffffffffffffffffffffffff82169050919050565b6000819050919050565b82818337600083830152505050565b60005b838110156135f55780820151818401526020810190506135da565b83811115613604576000848401525b50505050565b6000600282049050600182168061362257607f821691505b6020821081141561363657613635613745565b5b50919050565b613645826137e6565b810181811067ffffffffffffffff82111715613664576136636137a3565b5b80604052505050565b6000613678826135be565b91507fffffffffffffffffffffffffffffffffffffffffffffffffffffffffffffffff8214156136ab576136aa6136e7565b5b600182019050919050565b60006136c1826135be565b91506136cc836135be565b9250826136dc576136db613716565b5b828206905092915050565b7f4e487b7100000000000000000000000000000000000000000000000000000000600052601160045260246000fd5b7f4e487b7100000000000000000000000000000000000000000000000000000000600052601260045260246000fd5b7f4e487b7100000000000000000000000000000000000000000000000000000000600052602260045260246000fd5b7f4e487b7100000000000000000000000000000000000000000000000000000000600052603260045260246000fd5b7f4e487b7100000000000000000000000000000000000000000000000000000000600052604160045260246000fd5b600080fd5b600080fd5b600080fd5b600080fd5b6000601f19601f8301169050919050565b7f4552433732313a207472616e7366657220746f206e6f6e20455243373231526560008201527f63656976657220696d706c656d656e7465720000000000000000000000000000602082015250565b7f4f776e61626c653a206e6577206f776e657220697320746865207a65726f206160008201527f6464726573730000000000000000000000000000000000000000000000000000602082015250565b7f4552433732313a207472616e736665722066726f6d20696e636f72726563742060008201527f6f776e6572000000000000000000000000000000000000000000000000000000602082015250565b7f4552433732313a20746f6b656e20616c7265616479206d696e74656400000000600082015250565b7f4661696c656420746f2073656e64204574686572000000000000000000000000600082015250565b7f4552433732313a207472616e7366657220746f20746865207a65726f2061646460008201527f7265737300000000000000000000000000000000000000000000000000000000602082015250565b7f4552433732313a20617070726f766520746f2063616c6c657200000000000000600082015250565b7f4552433732313a206f70657261746f7220717565727920666f72206e6f6e657860008201527f697374656e7420746f6b656e0000000000000000000000000000000000000000602082015250565b7f4552433732313a20617070726f76652063616c6c6572206973206e6f74206f7760008201527f6e6572206e6f7220617070726f76656420666f7220616c6c0000000000000000602082015250565b7f4552433732313a2062616c616e636520717565727920666f7220746865207a6560008201527f726f206164647265737300000000000000000000000000000000000000000000602082015250565b7f4552433732313a206f776e657220717565727920666f72206e6f6e657869737460008201527f656e7420746f6b656e0000000000000000000000000000000000000000000000602082015250565b7f45524337323155524953746f726167653a2055524920736574206f66206e6f6e60008201527f6578697374656e7420746f6b656e000000000000000000000000000000000000602082015250565b7f4552433732313a206d696e7420746f20746865207a65726f2061646472657373600082015250565b7f45524337323155524953746f726167653a2055524920717565727920666f722060008201527f6e6f6e6578697374656e7420746f6b656e000000000000000000000000000000602082015250565b7f4552433732313a20617070726f76656420717565727920666f72206e6f6e657860008201527f697374656e7420746f6b656e0000000000000000000000000000000000000000602082015250565b7f4f776e61626c653a2063616c6c6572206973206e6f7420746865206f776e6572600082015250565b7f4552433732314d657461646174613a2055524920717565727920666f72206e6f60008201527f6e6578697374656e7420746f6b656e0000000000000000000000000000000000602082015250565b7f496e76616c696420746f6b656e20494400000000000000000000000000000000600082015250565b7f4552433732313a20617070726f76616c20746f2063757272656e74206f776e6560008201527f7200000000000000000000000000000000000000000000000000000000000000602082015250565b50565b7f4552433732313a207472616e736665722063616c6c6572206973206e6f74206f60008201527f776e6572206e6f7220617070726f766564000000000000000000000000000000602082015250565b7f5265656e7472616e637947756172643a207265656e7472616e742063616c6c00600082015250565b613d7481613542565b8114613d7f57600080fd5b50565b613d8b81613554565b8114613d9657600080fd5b50565b613da281613566565b8114613dad57600080fd5b50565b613db981613572565b8114613dc457600080fd5b50565b613dd0816135be565b8114613ddb57600080fd5b5056fea264697066735822122050afdb373921efd6f9acdba111f5b2d63005e9b039b086c269ebd44ee010178264736f6c63430008070033",
  "immutableReferences": {},
  "source": "//Contract based on [https://docs.openzeppelin.com/contracts/4.x/erc721](https://docs.openzeppelin.com/contracts/4.x/erc721)\r\n// SPDX-License-Identifier: MIT\r\npragma solidity 0.8.7;\r\n\r\n/// @title Kulfy Minting and Tipping Contract\r\n/// @notice You can use this contract for Minting GIFs & Video Clips as NFTs with Tips functionality.\r\n/// @dev All function calls are currently implemented without side effects\r\n\r\nimport \"@openzeppelin/contracts/utils/Counters.sol\";\r\nimport \"@openzeppelin/contracts/access/Ownable.sol\";\r\nimport \"@openzeppelin/contracts/token/ERC721/extensions/ERC721URIStorage.sol\";\r\nimport \"@openzeppelin/contracts/security/ReentrancyGuard.sol\";\r\n\r\ncontract KulfyV3 is ERC721URIStorage, Ownable, ReentrancyGuard {\r\n    /// Mapping to store Kulfys\r\n    mapping(uint256 => Kulfy) public kulfys;\r\n\r\n    // Auto Counter for Token Ids\r\n    using Counters for Counters.Counter;\r\n    Counters.Counter public tokenIds;\r\n\r\n    // gas limit for transactions\r\n    uint256 public gasLimit = 5000;\r\n\r\n    constructor() public ERC721(\"KULFY\", \"KUL\") {}\r\n\r\n    /// Structure of hold Kulfys\r\n    struct Kulfy {\r\n        uint256 id;\r\n        string kid;\r\n        string tokenURI;\r\n        string assetURI;\r\n        uint256 tipAmount;\r\n        address payable author;\r\n    }\r\n\r\n    /// This event is emmited when new Kulfy is created\r\n    event KulfyCreated(\r\n        uint256 id,\r\n        string tokenURI,\r\n        string assetURI,\r\n        string kid,\r\n        address payable author\r\n    );\r\n\r\n    /// This event is emmited when Tip is made\r\n    event KulfyTipped(\r\n        uint256 id,\r\n        string hash,\r\n        string kid,\r\n        uint256 tipAmount,\r\n        address payable author,\r\n        address tipper\r\n    );\r\n\r\n    /*\r\n     * This function is to Mint Kulfy as a NFT and setting the TokenURI\r\n     * @param  {[type]} address payable       author [Address of the Kulfy creator]\r\n     * @param  {[type]} string  memory        _tokenURI [IPFS URL of medadata of the Kulfy]\r\n     * @param  {[type]} string  memory        _assetURI [IPFS URL of the actual binary asset]\r\n     * @param  {[type]} string  memory        _kid      [KID is the unique id of Kulfy])\r\n     * @return {[type]} uint256     [tokenID of the NFT in contract]\r\n     */\r\n    function mintNFT(\r\n        address payable author,\r\n        string memory _tokenURI,\r\n        string memory _assetURI,\r\n        string memory _kid\r\n    ) external returns (uint256) {\r\n        /// Increment tokenId\r\n        tokenIds.increment();\r\n        uint256 newItemId = tokenIds.current();\r\n\r\n        /// calling mint function ERC 721\r\n        _mint(author, newItemId);\r\n\r\n        /// calling setTokenURI from ERC721URIStorage\r\n        _setTokenURI(newItemId, _tokenURI);\r\n\r\n        /// update mapping with new Kulfy\r\n        kulfys[newItemId] = Kulfy(\r\n            newItemId,\r\n            _kid,\r\n            _tokenURI,\r\n            _assetURI,\r\n            0,\r\n            author\r\n        );\r\n\r\n        /// emit Kulfy minted event\r\n        emit KulfyCreated(newItemId, _tokenURI, _assetURI, _kid, author);\r\n\r\n        return newItemId;\r\n    }\r\n\r\n    /*\r\n     * This function is to transfer desired Tip amount from Tipper to Kulfy author\r\n     * @param  {[type]} uint256 _id           [tokenID of the NFT in the contract ]\r\n     *\r\n     * @return {[type]}                       [Transer Tip amount to creator via Internal Transfers]\r\n     */\r\n    function tipKulfyAuthor(uint256 _id, uint256 _gas)\r\n        public\r\n        payable\r\n        nonReentrant\r\n    {\r\n        /// Check valid tokenId\r\n        require(_id > 0 && _id <= tokenIds.current(), \"Invalid token ID\");\r\n        /// Check that gas doesn't exceed limit\r\n        require(_gas <= gasLimit);\r\n\r\n        /// Load specific Kulfy based on tokenId\r\n        Kulfy memory _kulfy = kulfys[_id];\r\n\r\n        /// Get author/creator address\r\n        address payable _author = _kulfy.author;\r\n\r\n        /// Transfer Tip amount to the creator\r\n        (bool sent, bytes memory data) = _author.call{\r\n            value: msg.value,\r\n            gas: _gas\r\n        }(\"\");\r\n        require(sent, \"Failed to send Ether\");\r\n\r\n        /// Add new tip to the Kulfy's total tip amount\r\n        _kulfy.tipAmount = _kulfy.tipAmount + msg.value;\r\n\r\n        /// Update Kulfy record\r\n        kulfys[_id] = _kulfy;\r\n\r\n        /// Emit Tip Event\r\n        emit KulfyTipped(\r\n            _id,\r\n            _kulfy.tokenURI,\r\n            _kulfy.kid,\r\n            _kulfy.tipAmount,\r\n            _author,\r\n            msg.sender\r\n        );\r\n    }\r\n\r\n    function changeGasLimit(uint256 newGasLimit) public onlyOwner {\r\n        //change gas limit, depending on changes to the EVM\r\n        gasLimit = newGasLimit;\r\n    }\r\n}\r\n",
  "sourcePath": "D:\\Learning\\blockchain\\Kulfy3-mainnet\\kulfy3\\src\\contracts\\KulfyV3.sol",
  "compiler": {
    "name": "solc",
    "version": "0.8.7+commit.e28d00a7.Emscripten.clang"
  },
  "schemaVersion": "3.4.4",
  "updatedAt": "2022-03-18T12:24:05.979Z",
  "networkType": "ethereum",
  "devdoc": {
    "kind": "dev",
    "methods": {
      "approve(address,uint256)": {
        "details": "See {IERC721-approve}."
      },
      "balanceOf(address)": {
        "details": "See {IERC721-balanceOf}."
      },
      "getApproved(uint256)": {
        "details": "See {IERC721-getApproved}."
      },
      "isApprovedForAll(address,address)": {
        "details": "See {IERC721-isApprovedForAll}."
      },
      "name()": {
        "details": "See {IERC721Metadata-name}."
      },
      "owner()": {
        "details": "Returns the address of the current owner."
      },
      "ownerOf(uint256)": {
        "details": "See {IERC721-ownerOf}."
      },
      "renounceOwnership()": {
        "details": "Leaves the contract without owner. It will not be possible to call `onlyOwner` functions anymore. Can only be called by the current owner. NOTE: Renouncing ownership will leave the contract without an owner, thereby removing any functionality that is only available to the owner."
      },
      "safeTransferFrom(address,address,uint256)": {
        "details": "See {IERC721-safeTransferFrom}."
      },
      "safeTransferFrom(address,address,uint256,bytes)": {
        "details": "See {IERC721-safeTransferFrom}."
      },
      "setApprovalForAll(address,bool)": {
        "details": "See {IERC721-setApprovalForAll}."
      },
      "supportsInterface(bytes4)": {
        "details": "See {IERC165-supportsInterface}."
      },
      "symbol()": {
        "details": "See {IERC721Metadata-symbol}."
      },
      "tokenURI(uint256)": {
        "details": "See {IERC721Metadata-tokenURI}."
      },
      "transferFrom(address,address,uint256)": {
        "details": "See {IERC721-transferFrom}."
      },
      "transferOwnership(address)": {
        "details": "Transfers ownership of the contract to a new account (`newOwner`). Can only be called by the current owner."
      }
    },
    "version": 1
  },
  "userdoc": {
    "events": {
      "KulfyCreated(uint256,string,string,string,address)": {
        "notice": "This event is emmited when new Kulfy is created"
      },
      "KulfyTipped(uint256,string,string,uint256,address,address)": {
        "notice": "This event is emmited when Tip is made"
      }
    },
    "kind": "user",
    "methods": {
      "kulfys(uint256)": {
        "notice": "Mapping to store Kulfys"
      }
    },
    "version": 1
  }
}