{
  "contractName": "KulfyV3",
  "abi": [
    {
      "inputs": [],
      "stateMutability": "nonpayable",
      "type": "constructor"
    },
    {
      "anonymous": false,
      "inputs": [
        {
          "indexed": true,
          "internalType": "address",
          "name": "owner",
          "type": "address"
        },
        {
          "indexed": true,
          "internalType": "address",
          "name": "approved",
          "type": "address"
        },
        {
          "indexed": true,
          "internalType": "uint256",
          "name": "tokenId",
          "type": "uint256"
        }
      ],
      "name": "Approval",
      "type": "event"
    },
    {
      "anonymous": false,
      "inputs": [
        {
          "indexed": true,
          "internalType": "address",
          "name": "owner",
          "type": "address"
        },
        {
          "indexed": true,
          "internalType": "address",
          "name": "operator",
          "type": "address"
        },
        {
          "indexed": false,
          "internalType": "bool",
          "name": "approved",
          "type": "bool"
        }
      ],
      "name": "ApprovalForAll",
      "type": "event"
    },
    {
      "anonymous": false,
      "inputs": [
        {
          "indexed": false,
          "internalType": "uint256",
          "name": "id",
          "type": "uint256"
        },
        {
          "indexed": false,
          "internalType": "string",
          "name": "tokenURI",
          "type": "string"
        },
        {
          "indexed": false,
          "internalType": "string",
          "name": "assetURI",
          "type": "string"
        },
        {
          "indexed": false,
          "internalType": "string",
          "name": "kid",
          "type": "string"
        },
        {
          "indexed": false,
          "internalType": "address payable",
          "name": "author",
          "type": "address"
        }
      ],
      "name": "KulfyCreated",
      "type": "event"
    },
    {
      "anonymous": false,
      "inputs": [
        {
          "indexed": false,
          "internalType": "uint256",
          "name": "id",
          "type": "uint256"
        },
        {
          "indexed": false,
          "internalType": "string",
          "name": "hash",
          "type": "string"
        },
        {
          "indexed": false,
          "internalType": "string",
          "name": "kid",
          "type": "string"
        },
        {
          "indexed": false,
          "internalType": "uint256",
          "name": "tipAmount",
          "type": "uint256"
        },
        {
          "indexed": false,
          "internalType": "address payable",
          "name": "author",
          "type": "address"
        },
        {
          "indexed": false,
          "internalType": "address",
          "name": "tipper",
          "type": "address"
        }
      ],
      "name": "KulfyTipped",
      "type": "event"
    },
    {
      "anonymous": false,
      "inputs": [
        {
          "indexed": true,
          "internalType": "address",
          "name": "previousOwner",
          "type": "address"
        },
        {
          "indexed": true,
          "internalType": "address",
          "name": "newOwner",
          "type": "address"
        }
      ],
      "name": "OwnershipTransferred",
      "type": "event"
    },
    {
      "anonymous": false,
      "inputs": [
        {
          "indexed": true,
          "internalType": "address",
          "name": "from",
          "type": "address"
        },
        {
          "indexed": true,
          "internalType": "address",
          "name": "to",
          "type": "address"
        },
        {
          "indexed": true,
          "internalType": "uint256",
          "name": "tokenId",
          "type": "uint256"
        }
      ],
      "name": "Transfer",
      "type": "event"
    },
    {
      "inputs": [
        {
          "internalType": "address",
          "name": "to",
          "type": "address"
        },
        {
          "internalType": "uint256",
          "name": "tokenId",
          "type": "uint256"
        }
      ],
      "name": "approve",
      "outputs": [],
      "stateMutability": "nonpayable",
      "type": "function"
    },
    {
      "inputs": [
        {
          "internalType": "address",
          "name": "owner",
          "type": "address"
        }
      ],
      "name": "balanceOf",
      "outputs": [
        {
          "internalType": "uint256",
          "name": "",
          "type": "uint256"
        }
      ],
      "stateMutability": "view",
      "type": "function",
      "constant": true
    },
    {
      "inputs": [
        {
          "internalType": "uint256",
          "name": "tokenId",
          "type": "uint256"
        }
      ],
      "name": "getApproved",
      "outputs": [
        {
          "internalType": "address",
          "name": "",
          "type": "address"
        }
      ],
      "stateMutability": "view",
      "type": "function",
      "constant": true
    },
    {
      "inputs": [
        {
          "internalType": "address",
          "name": "owner",
          "type": "address"
        },
        {
          "internalType": "address",
          "name": "operator",
          "type": "address"
        }
      ],
      "name": "isApprovedForAll",
      "outputs": [
        {
          "internalType": "bool",
          "name": "",
          "type": "bool"
        }
      ],
      "stateMutability": "view",
      "type": "function",
      "constant": true
    },
    {
      "inputs": [
        {
          "internalType": "uint256",
          "name": "",
          "type": "uint256"
        }
      ],
      "name": "kulfys",
      "outputs": [
        {
          "internalType": "uint256",
          "name": "id",
          "type": "uint256"
        },
        {
          "internalType": "string",
          "name": "kid",
          "type": "string"
        },
        {
          "internalType": "string",
          "name": "tokenURI",
          "type": "string"
        },
        {
          "internalType": "string",
          "name": "assetURI",
          "type": "string"
        },
        {
          "internalType": "uint256",
          "name": "tipAmount",
          "type": "uint256"
        },
        {
          "internalType": "address payable",
          "name": "author",
          "type": "address"
        }
      ],
      "stateMutability": "view",
      "type": "function",
      "constant": true
    },
    {
      "inputs": [],
      "name": "name",
      "outputs": [
        {
          "internalType": "string",
          "name": "",
          "type": "string"
        }
      ],
      "stateMutability": "view",
      "type": "function",
      "constant": true
    },
    {
      "inputs": [],
      "name": "owner",
      "outputs": [
        {
          "internalType": "address",
          "name": "",
          "type": "address"
        }
      ],
      "stateMutability": "view",
      "type": "function",
      "constant": true
    },
    {
      "inputs": [
        {
          "internalType": "uint256",
          "name": "tokenId",
          "type": "uint256"
        }
      ],
      "name": "ownerOf",
      "outputs": [
        {
          "internalType": "address",
          "name": "",
          "type": "address"
        }
      ],
      "stateMutability": "view",
      "type": "function",
      "constant": true
    },
    {
      "inputs": [],
      "name": "renounceOwnership",
      "outputs": [],
      "stateMutability": "nonpayable",
      "type": "function"
    },
    {
      "inputs": [
        {
          "internalType": "address",
          "name": "from",
          "type": "address"
        },
        {
          "internalType": "address",
          "name": "to",
          "type": "address"
        },
        {
          "internalType": "uint256",
          "name": "tokenId",
          "type": "uint256"
        }
      ],
      "name": "safeTransferFrom",
      "outputs": [],
      "stateMutability": "nonpayable",
      "type": "function"
    },
    {
      "inputs": [
        {
          "internalType": "address",
          "name": "from",
          "type": "address"
        },
        {
          "internalType": "address",
          "name": "to",
          "type": "address"
        },
        {
          "internalType": "uint256",
          "name": "tokenId",
          "type": "uint256"
        },
        {
          "internalType": "bytes",
          "name": "_data",
          "type": "bytes"
        }
      ],
      "name": "safeTransferFrom",
      "outputs": [],
      "stateMutability": "nonpayable",
      "type": "function"
    },
    {
      "inputs": [
        {
          "internalType": "address",
          "name": "operator",
          "type": "address"
        },
        {
          "internalType": "bool",
          "name": "approved",
          "type": "bool"
        }
      ],
      "name": "setApprovalForAll",
      "outputs": [],
      "stateMutability": "nonpayable",
      "type": "function"
    },
    {
      "inputs": [
        {
          "internalType": "bytes4",
          "name": "interfaceId",
          "type": "bytes4"
        }
      ],
      "name": "supportsInterface",
      "outputs": [
        {
          "internalType": "bool",
          "name": "",
          "type": "bool"
        }
      ],
      "stateMutability": "view",
      "type": "function",
      "constant": true
    },
    {
      "inputs": [],
      "name": "symbol",
      "outputs": [
        {
          "internalType": "string",
          "name": "",
          "type": "string"
        }
      ],
      "stateMutability": "view",
      "type": "function",
      "constant": true
    },
    {
      "inputs": [],
      "name": "tokenIds",
      "outputs": [
        {
          "internalType": "uint256",
          "name": "_value",
          "type": "uint256"
        }
      ],
      "stateMutability": "view",
      "type": "function",
      "constant": true
    },
    {
      "inputs": [
        {
          "internalType": "uint256",
          "name": "tokenId",
          "type": "uint256"
        }
      ],
      "name": "tokenURI",
      "outputs": [
        {
          "internalType": "string",
          "name": "",
          "type": "string"
        }
      ],
      "stateMutability": "view",
      "type": "function",
      "constant": true
    },
    {
      "inputs": [
        {
          "internalType": "address",
          "name": "from",
          "type": "address"
        },
        {
          "internalType": "address",
          "name": "to",
          "type": "address"
        },
        {
          "internalType": "uint256",
          "name": "tokenId",
          "type": "uint256"
        }
      ],
      "name": "transferFrom",
      "outputs": [],
      "stateMutability": "nonpayable",
      "type": "function"
    },
    {
      "inputs": [
        {
          "internalType": "address",
          "name": "newOwner",
          "type": "address"
        }
      ],
      "name": "transferOwnership",
      "outputs": [],
      "stateMutability": "nonpayable",
      "type": "function"
    },
    {
      "inputs": [
        {
          "internalType": "address payable",
          "name": "author",
          "type": "address"
        },
        {
          "internalType": "string",
          "name": "_tokenURI",
          "type": "string"
        },
        {
          "internalType": "string",
          "name": "_assetURI",
          "type": "string"
        },
        {
          "internalType": "string",
          "name": "_kid",
          "type": "string"
        }
      ],
      "name": "mintNFT",
      "outputs": [
        {
          "internalType": "uint256",
          "name": "",
          "type": "uint256"
        }
      ],
      "stateMutability": "nonpayable",
      "type": "function"
    },
    {
      "inputs": [
        {
          "internalType": "uint256",
          "name": "_id",
          "type": "uint256"
        }
      ],
      "name": "tipKulfyAuthor",
      "outputs": [],
      "stateMutability": "payable",
      "type": "function",
      "payable": true
    }
  ],
  "bytecode": "0x60806040523480156200001157600080fd5b506040518060400160405280600581526020017f4b554c46590000000000000000000000000000000000000000000000000000008152506040518060400160405280600381526020017f4b554c0000000000000000000000000000000000000000000000000000000000815250816000908051906020019062000096929190620001a6565b508060019080519060200190620000af929190620001a6565b505050620000d2620000c6620000d860201b60201c565b620000e060201b60201c565b620002bb565b600033905090565b6000600760009054906101000a900473ffffffffffffffffffffffffffffffffffffffff16905081600760006101000a81548173ffffffffffffffffffffffffffffffffffffffff021916908373ffffffffffffffffffffffffffffffffffffffff1602179055508173ffffffffffffffffffffffffffffffffffffffff168173ffffffffffffffffffffffffffffffffffffffff167f8be0079c531659141344cd1fd0a4f28419497f9722a3daafe3b4186f6b6457e060405160405180910390a35050565b828054620001b49062000256565b90600052602060002090601f016020900481019282620001d8576000855562000224565b82601f10620001f357805160ff191683800117855562000224565b8280016001018555821562000224579182015b828111156200022357825182559160200191906001019062000206565b5b50905062000233919062000237565b5090565b5b808211156200025257600081600090555060010162000238565b5090565b600060028204905060018216806200026f57607f821691505b602082108114156200028657620002856200028c565b5b50919050565b7f4e487b7100000000000000000000000000000000000000000000000000000000600052602260045260246000fd5b613a2080620002cb6000396000f3fe60806040526004361061011f5760003560e01c8063715018a6116100a0578063a22cb46511610064578063a22cb465146103f1578063b88d4fde1461041a578063c87b56dd14610443578063e985e9c514610480578063f2fde38b146104bd5761011f565b8063715018a61461032b5780637791d3f3146103425780638da5cb5b1461037f57806392b9a665146103aa57806395d89b41146103c65761011f565b80633617b8a9116100e75780633617b8a91461021b57806342842e0e1461025d5780636352211e1461028657806370a08231146102c3578063714cff56146103005761011f565b806301ffc9a71461012457806306fdde0314610161578063081812fc1461018c578063095ea7b3146101c957806323b872dd146101f2575b600080fd5b34801561013057600080fd5b5061014b600480360381019061014691906127fb565b6104e6565b6040516101589190612c62565b60405180910390f35b34801561016d57600080fd5b506101766105c8565b6040516101839190612c7d565b60405180910390f35b34801561019857600080fd5b506101b360048036038101906101ae9190612855565b61065a565b6040516101c09190612bfb565b60405180910390f35b3480156101d557600080fd5b506101f060048036038101906101eb91906127bb565b6106df565b005b3480156101fe57600080fd5b50610219600480360381019061021491906126a5565b6107f7565b005b34801561022757600080fd5b50610242600480360381019061023d9190612855565b610857565b60405161025496959493929190612f62565b60405180910390f35b34801561026957600080fd5b50610284600480360381019061027f91906126a5565b610a4b565b005b34801561029257600080fd5b506102ad60048036038101906102a89190612855565b610a6b565b6040516102ba9190612bfb565b60405180910390f35b3480156102cf57600080fd5b506102ea60048036038101906102e5919061257d565b610b1d565b6040516102f79190612edf565b60405180910390f35b34801561030c57600080fd5b50610315610bd5565b6040516103229190612edf565b60405180910390f35b34801561033757600080fd5b50610340610be1565b005b34801561034e57600080fd5b50610369600480360381019061036491906125aa565b610c69565b6040516103769190612edf565b60405180910390f35b34801561038b57600080fd5b50610394610dee565b6040516103a19190612bfb565b60405180910390f35b6103c460048036038101906103bf9190612855565b610e18565b005b3480156103d257600080fd5b506103db611200565b6040516103e89190612c7d565b60405180910390f35b3480156103fd57600080fd5b506104186004803603810190610413919061277b565b611292565b005b34801561042657600080fd5b50610441600480360381019061043c91906126f8565b6112a8565b005b34801561044f57600080fd5b5061046a60048036038101906104659190612855565b61130a565b6040516104779190612c7d565b60405180910390f35b34801561048c57600080fd5b506104a760048036038101906104a29190612665565b61145c565b6040516104b49190612c62565b60405180910390f35b3480156104c957600080fd5b506104e460048036038101906104df919061257d565b6114f0565b005b60007f80ac58cd000000000000000000000000000000000000000000000000000000007bffffffffffffffffffffffffffffffffffffffffffffffffffffffff1916827bffffffffffffffffffffffffffffffffffffffffffffffffffffffff191614806105b157507f5b5e139f000000000000000000000000000000000000000000000000000000007bffffffffffffffffffffffffffffffffffffffffffffffffffffffff1916827bffffffffffffffffffffffffffffffffffffffffffffffffffffffff1916145b806105c157506105c0826115e8565b5b9050919050565b6060600080546105d790613294565b80601f016020809104026020016040519081016040528092919081815260200182805461060390613294565b80156106505780601f1061062557610100808354040283529160200191610650565b820191906000526020600020905b81548152906001019060200180831161063357829003601f168201915b5050505050905090565b600061066582611652565b6106a4576040517f08c379a000000000000000000000000000000000000000000000000000000000815260040161069b90612e1f565b60405180910390fd5b6004600083815260200190815260200160002060009054906101000a900473ffffffffffffffffffffffffffffffffffffffff169050919050565b60006106ea82610a6b565b90508073ffffffffffffffffffffffffffffffffffffffff168373ffffffffffffffffffffffffffffffffffffffff16141561075b576040517f08c379a000000000000000000000000000000000000000000000000000000000815260040161075290612e9f565b60405180910390fd5b8073ffffffffffffffffffffffffffffffffffffffff1661077a6116be565b73ffffffffffffffffffffffffffffffffffffffff1614806107a957506107a8816107a36116be565b61145c565b5b6107e8576040517f08c379a00000000000000000000000000000000000000000000000000000000081526004016107df90612d5f565b60405180910390fd5b6107f283836116c6565b505050565b6108086108026116be565b8261177f565b610847576040517f08c379a000000000000000000000000000000000000000000000000000000000815260040161083e90612ebf565b60405180910390fd5b61085283838361185d565b505050565b600860205280600052604060002060009150905080600001549080600101805461088090613294565b80601f01602080910402602001604051908101604052809291908181526020018280546108ac90613294565b80156108f95780601f106108ce576101008083540402835291602001916108f9565b820191906000526020600020905b8154815290600101906020018083116108dc57829003601f168201915b50505050509080600201805461090e90613294565b80601f016020809104026020016040519081016040528092919081815260200182805461093a90613294565b80156109875780601f1061095c57610100808354040283529160200191610987565b820191906000526020600020905b81548152906001019060200180831161096a57829003601f168201915b50505050509080600301805461099c90613294565b80601f01602080910402602001604051908101604052809291908181526020018280546109c890613294565b8015610a155780601f106109ea57610100808354040283529160200191610a15565b820191906000526020600020905b8154815290600101906020018083116109f857829003601f168201915b5050505050908060040154908060050160009054906101000a900473ffffffffffffffffffffffffffffffffffffffff16905086565b610a66838383604051806020016040528060008152506112a8565b505050565b6000806002600084815260200190815260200160002060009054906101000a900473ffffffffffffffffffffffffffffffffffffffff169050600073ffffffffffffffffffffffffffffffffffffffff168173ffffffffffffffffffffffffffffffffffffffff161415610b14576040517f08c379a0000000000000000000000000000000000000000000000000000000008152600401610b0b90612d9f565b60405180910390fd5b80915050919050565b60008073ffffffffffffffffffffffffffffffffffffffff168273ffffffffffffffffffffffffffffffffffffffff161415610b8e576040517f08c379a0000000000000000000000000000000000000000000000000000000008152600401610b8590612d7f565b60405180910390fd5b600360008373ffffffffffffffffffffffffffffffffffffffff1673ffffffffffffffffffffffffffffffffffffffff168152602001908152602001600020549050919050565b60098060000154905081565b610be96116be565b73ffffffffffffffffffffffffffffffffffffffff16610c07610dee565b73ffffffffffffffffffffffffffffffffffffffff1614610c5d576040517f08c379a0000000000000000000000000000000000000000000000000000000008152600401610c5490612e3f565b60405180910390fd5b610c676000611ab9565b565b6000610c756009611b7f565b6000610c816009611b95565b9050610c8d8682611ba3565b610c978186611d71565b6040518060c00160405280828152602001848152602001868152602001858152602001600081526020018773ffffffffffffffffffffffffffffffffffffffff1681525060086000838152602001908152602001600020600082015181600001556020820151816001019080519060200190610d1492919061237c565b506040820151816002019080519060200190610d3192919061237c565b506060820151816003019080519060200190610d4e92919061237c565b506080820151816004015560a08201518160050160006101000a81548173ffffffffffffffffffffffffffffffffffffffff021916908373ffffffffffffffffffffffffffffffffffffffff1602179055509050507fcfba13f74bc958f8f8d425c1da5c0c0d1fb2231ddffed937e6b5848e521a021f818686868a604051610dda959493929190612efa565b60405180910390a180915050949350505050565b6000600760009054906101000a900473ffffffffffffffffffffffffffffffffffffffff16905090565b600081118015610e315750610e2d6009611b95565b8111155b610e3a57600080fd5b6000600860008381526020019081526020016000206040518060c001604052908160008201548152602001600182018054610e7490613294565b80601f0160208091040260200160405190810160405280929190818152602001828054610ea090613294565b8015610eed5780601f10610ec257610100808354040283529160200191610eed565b820191906000526020600020905b815481529060010190602001808311610ed057829003601f168201915b50505050508152602001600282018054610f0690613294565b80601f0160208091040260200160405190810160405280929190818152602001828054610f3290613294565b8015610f7f5780601f10610f5457610100808354040283529160200191610f7f565b820191906000526020600020905b815481529060010190602001808311610f6257829003601f168201915b50505050508152602001600382018054610f9890613294565b80601f0160208091040260200160405190810160405280929190818152602001828054610fc490613294565b80156110115780601f10610fe657610100808354040283529160200191611011565b820191906000526020600020905b815481529060010190602001808311610ff457829003601f168201915b50505050508152602001600482015481526020016005820160009054906101000a900473ffffffffffffffffffffffffffffffffffffffff1673ffffffffffffffffffffffffffffffffffffffff1673ffffffffffffffffffffffffffffffffffffffff1681525050905060008160a0015190508073ffffffffffffffffffffffffffffffffffffffff166108fc349081150290604051600060405180830381858888f193505050501580156110cb573d6000803e3d6000fd5b503482608001516110dc9190613111565b826080018181525050816008600085815260200190815260200160002060008201518160000155602082015181600101908051906020019061111f92919061237c565b50604082015181600201908051906020019061113c92919061237c565b50606082015181600301908051906020019061115992919061237c565b506080820151816004015560a08201518160050160006101000a81548173ffffffffffffffffffffffffffffffffffffffff021916908373ffffffffffffffffffffffffffffffffffffffff1602179055509050507ffaf4ce3c97680022e76284ce8b5c5692f4ef12d5b18ebf3eeafa34d9069828188383604001518460200151856080015185336040516111f396959493929190612fd8565b60405180910390a1505050565b60606001805461120f90613294565b80601f016020809104026020016040519081016040528092919081815260200182805461123b90613294565b80156112885780601f1061125d57610100808354040283529160200191611288565b820191906000526020600020905b81548152906001019060200180831161126b57829003601f168201915b5050505050905090565b6112a461129d6116be565b8383611de5565b5050565b6112b96112b36116be565b8361177f565b6112f8576040517f08c379a00000000000000000000000000000000000000000000000000000000081526004016112ef90612ebf565b60405180910390fd5b61130484848484611f52565b50505050565b606061131582611652565b611354576040517f08c379a000000000000000000000000000000000000000000000000000000000815260040161134b90612dff565b60405180910390fd5b600060066000848152602001908152602001600020805461137490613294565b80601f01602080910402602001604051908101604052809291908181526020018280546113a090613294565b80156113ed5780601f106113c2576101008083540402835291602001916113ed565b820191906000526020600020905b8154815290600101906020018083116113d057829003601f168201915b5050505050905060006113fe611fae565b9050600081511415611414578192505050611457565b600082511115611449578082604051602001611431929190612bd7565b60405160208183030381529060405292505050611457565b61145284611fc5565b925050505b919050565b6000600560008473ffffffffffffffffffffffffffffffffffffffff1673ffffffffffffffffffffffffffffffffffffffff16815260200190815260200160002060008373ffffffffffffffffffffffffffffffffffffffff1673ffffffffffffffffffffffffffffffffffffffff16815260200190815260200160002060009054906101000a900460ff16905092915050565b6114f86116be565b73ffffffffffffffffffffffffffffffffffffffff16611516610dee565b73ffffffffffffffffffffffffffffffffffffffff161461156c576040517f08c379a000000000000000000000000000000000000000000000000000000000815260040161156390612e3f565b60405180910390fd5b600073ffffffffffffffffffffffffffffffffffffffff168173ffffffffffffffffffffffffffffffffffffffff1614156115dc576040517f08c379a00000000000000000000000000000000000000000000000000000000081526004016115d390612cbf565b60405180910390fd5b6115e581611ab9565b50565b60007f01ffc9a7000000000000000000000000000000000000000000000000000000007bffffffffffffffffffffffffffffffffffffffffffffffffffffffff1916827bffffffffffffffffffffffffffffffffffffffffffffffffffffffff1916149050919050565b60008073ffffffffffffffffffffffffffffffffffffffff166002600084815260200190815260200160002060009054906101000a900473ffffffffffffffffffffffffffffffffffffffff1673ffffffffffffffffffffffffffffffffffffffff1614159050919050565b600033905090565b816004600083815260200190815260200160002060006101000a81548173ffffffffffffffffffffffffffffffffffffffff021916908373ffffffffffffffffffffffffffffffffffffffff160217905550808273ffffffffffffffffffffffffffffffffffffffff1661173983610a6b565b73ffffffffffffffffffffffffffffffffffffffff167f8c5be1e5ebec7d5bd14f71427d1e84f3dd0314c0f7b2291e5b200ac8c7c3b92560405160405180910390a45050565b600061178a82611652565b6117c9576040517f08c379a00000000000000000000000000000000000000000000000000000000081526004016117c090612d3f565b60405180910390fd5b60006117d483610a6b565b90508073ffffffffffffffffffffffffffffffffffffffff168473ffffffffffffffffffffffffffffffffffffffff16148061184357508373ffffffffffffffffffffffffffffffffffffffff1661182b8461065a565b73ffffffffffffffffffffffffffffffffffffffff16145b806118545750611853818561145c565b5b91505092915050565b8273ffffffffffffffffffffffffffffffffffffffff1661187d82610a6b565b73ffffffffffffffffffffffffffffffffffffffff16146118d3576040517f08c379a00000000000000000000000000000000000000000000000000000000081526004016118ca90612e5f565b60405180910390fd5b600073ffffffffffffffffffffffffffffffffffffffff168273ffffffffffffffffffffffffffffffffffffffff161415611943576040517f08c379a000000000000000000000000000000000000000000000000000000000815260040161193a90612cff565b60405180910390fd5b61194e83838361206c565b6119596000826116c6565b6001600360008573ffffffffffffffffffffffffffffffffffffffff1673ffffffffffffffffffffffffffffffffffffffff16815260200190815260200160002060008282546119a99190613198565b925050819055506001600360008473ffffffffffffffffffffffffffffffffffffffff1673ffffffffffffffffffffffffffffffffffffffff1681526020019081526020016000206000828254611a009190613111565b92505081905550816002600083815260200190815260200160002060006101000a81548173ffffffffffffffffffffffffffffffffffffffff021916908373ffffffffffffffffffffffffffffffffffffffff160217905550808273ffffffffffffffffffffffffffffffffffffffff168473ffffffffffffffffffffffffffffffffffffffff167fddf252ad1be2c89b69c2b068fc378daa952ba7f163c4a11628f55a4df523b3ef60405160405180910390a4505050565b6000600760009054906101000a900473ffffffffffffffffffffffffffffffffffffffff16905081600760006101000a81548173ffffffffffffffffffffffffffffffffffffffff021916908373ffffffffffffffffffffffffffffffffffffffff1602179055508173ffffffffffffffffffffffffffffffffffffffff168173ffffffffffffffffffffffffffffffffffffffff167f8be0079c531659141344cd1fd0a4f28419497f9722a3daafe3b4186f6b6457e060405160405180910390a35050565b6001816000016000828254019250508190555050565b600081600001549050919050565b600073ffffffffffffffffffffffffffffffffffffffff168273ffffffffffffffffffffffffffffffffffffffff161415611c13576040517f08c379a0000000000000000000000000000000000000000000000000000000008152600401611c0a90612ddf565b60405180910390fd5b611c1c81611652565b15611c5c576040517f08c379a0000000000000000000000000000000000000000000000000000000008152600401611c5390612cdf565b60405180910390fd5b611c686000838361206c565b6001600360008473ffffffffffffffffffffffffffffffffffffffff1673ffffffffffffffffffffffffffffffffffffffff1681526020019081526020016000206000828254611cb89190613111565b92505081905550816002600083815260200190815260200160002060006101000a81548173ffffffffffffffffffffffffffffffffffffffff021916908373ffffffffffffffffffffffffffffffffffffffff160217905550808273ffffffffffffffffffffffffffffffffffffffff16600073ffffffffffffffffffffffffffffffffffffffff167fddf252ad1be2c89b69c2b068fc378daa952ba7f163c4a11628f55a4df523b3ef60405160405180910390a45050565b611d7a82611652565b611db9576040517f08c379a0000000000000000000000000000000000000000000000000000000008152600401611db090612dbf565b60405180910390fd5b80600660008481526020019081526020016000209080519060200190611de092919061237c565b505050565b8173ffffffffffffffffffffffffffffffffffffffff168373ffffffffffffffffffffffffffffffffffffffff161415611e54576040517f08c379a0000000000000000000000000000000000000000000000000000000008152600401611e4b90612d1f565b60405180910390fd5b80600560008573ffffffffffffffffffffffffffffffffffffffff1673ffffffffffffffffffffffffffffffffffffffff16815260200190815260200160002060008473ffffffffffffffffffffffffffffffffffffffff1673ffffffffffffffffffffffffffffffffffffffff16815260200190815260200160002060006101000a81548160ff0219169083151502179055508173ffffffffffffffffffffffffffffffffffffffff168373ffffffffffffffffffffffffffffffffffffffff167f17307eab39ab6107e8899845ad3d59bd9653f200f220920489ca2b5937696c3183604051611f459190612c62565b60405180910390a3505050565b611f5d84848461185d565b611f6984848484612071565b611fa8576040517f08c379a0000000000000000000000000000000000000000000000000000000008152600401611f9f90612c9f565b60405180910390fd5b50505050565b606060405180602001604052806000815250905090565b6060611fd082611652565b61200f576040517f08c379a000000000000000000000000000000000000000000000000000000000815260040161200690612e7f565b60405180910390fd5b6000612019611fae565b905060008151116120395760405180602001604052806000815250612064565b8061204384612208565b604051602001612054929190612bd7565b6040516020818303038152906040525b915050919050565b505050565b60006120928473ffffffffffffffffffffffffffffffffffffffff16612369565b156121fb578373ffffffffffffffffffffffffffffffffffffffff1663150b7a026120bb6116be565b8786866040518563ffffffff1660e01b81526004016120dd9493929190612c16565b602060405180830381600087803b1580156120f757600080fd5b505af192505050801561212857506040513d601f19601f820116820180604052508101906121259190612828565b60015b6121ab573d8060008114612158576040519150601f19603f3d011682016040523d82523d6000602084013e61215d565b606091505b506000815114156121a3576040517f08c379a000000000000000000000000000000000000000000000000000000000815260040161219a90612c9f565b60405180910390fd5b805181602001fd5b63150b7a0260e01b7bffffffffffffffffffffffffffffffffffffffffffffffffffffffff1916817bffffffffffffffffffffffffffffffffffffffffffffffffffffffff191614915050612200565b600190505b949350505050565b60606000821415612250576040518060400160405280600181526020017f30000000000000000000000000000000000000000000000000000000000000008152509050612364565b600082905060005b6000821461228257808061226b906132f7565b915050600a8261227b9190613167565b9150612258565b60008167ffffffffffffffff81111561229e5761229d61342d565b5b6040519080825280601f01601f1916602001820160405280156122d05781602001600182028036833780820191505090505b5090505b6000851461235d576001826122e99190613198565b9150600a856122f89190613340565b60306123049190613111565b60f81b81838151811061231a576123196133fe565b5b60200101907effffffffffffffffffffffffffffffffffffffffffffffffffffffffffffff1916908160001a905350600a856123569190613167565b94506122d4565b8093505050505b919050565b600080823b905060008111915050919050565b82805461238890613294565b90600052602060002090601f0160209004810192826123aa57600085556123f1565b82601f106123c357805160ff19168380011785556123f1565b828001600101855582156123f1579182015b828111156123f05782518255916020019190600101906123d5565b5b5090506123fe9190612402565b5090565b5b8082111561241b576000816000905550600101612403565b5090565b600061243261242d8461306c565b613047565b90508281526020810184848401111561244e5761244d613461565b5b612459848285613252565b509392505050565b600061247461246f8461309d565b613047565b9050828152602081018484840111156124905761248f613461565b5b61249b848285613252565b509392505050565b6000813590506124b281613977565b92915050565b6000813590506124c78161398e565b92915050565b6000813590506124dc816139a5565b92915050565b6000813590506124f1816139bc565b92915050565b600081519050612506816139bc565b92915050565b600082601f8301126125215761252061345c565b5b813561253184826020860161241f565b91505092915050565b600082601f83011261254f5761254e61345c565b5b813561255f848260208601612461565b91505092915050565b600081359050612577816139d3565b92915050565b6000602082840312156125935761259261346b565b5b60006125a1848285016124a3565b91505092915050565b600080600080608085870312156125c4576125c361346b565b5b60006125d2878288016124b8565b945050602085013567ffffffffffffffff8111156125f3576125f2613466565b5b6125ff8782880161253a565b935050604085013567ffffffffffffffff8111156126205761261f613466565b5b61262c8782880161253a565b925050606085013567ffffffffffffffff81111561264d5761264c613466565b5b6126598782880161253a565b91505092959194509250565b6000806040838503121561267c5761267b61346b565b5b600061268a858286016124a3565b925050602061269b858286016124a3565b9150509250929050565b6000806000606084860312156126be576126bd61346b565b5b60006126cc868287016124a3565b93505060206126dd868287016124a3565b92505060406126ee86828701612568565b9150509250925092565b600080600080608085870312156127125761271161346b565b5b6000612720878288016124a3565b9450506020612731878288016124a3565b935050604061274287828801612568565b925050606085013567ffffffffffffffff81111561276357612762613466565b5b61276f8782880161250c565b91505092959194509250565b600080604083850312156127925761279161346b565b5b60006127a0858286016124a3565b92505060206127b1858286016124cd565b9150509250929050565b600080604083850312156127d2576127d161346b565b5b60006127e0858286016124a3565b92505060206127f185828601612568565b9150509250929050565b6000602082840312156128115761281061346b565b5b600061281f848285016124e2565b91505092915050565b60006020828403121561283e5761283d61346b565b5b600061284c848285016124f7565b91505092915050565b60006020828403121561286b5761286a61346b565b5b600061287984828501612568565b91505092915050565b61288b816131de565b82525050565b61289a816131cc565b82525050565b6128a9816131f0565b82525050565b60006128ba826130ce565b6128c481856130e4565b93506128d4818560208601613261565b6128dd81613470565b840191505092915050565b60006128f3826130d9565b6128fd81856130f5565b935061290d818560208601613261565b61291681613470565b840191505092915050565b600061292c826130d9565b6129368185613106565b9350612946818560208601613261565b80840191505092915050565b600061295f6032836130f5565b915061296a82613481565b604082019050919050565b60006129826026836130f5565b915061298d826134d0565b604082019050919050565b60006129a5601c836130f5565b91506129b08261351f565b602082019050919050565b60006129c86024836130f5565b91506129d382613548565b604082019050919050565b60006129eb6019836130f5565b91506129f682613597565b602082019050919050565b6000612a0e602c836130f5565b9150612a19826135c0565b604082019050919050565b6000612a316038836130f5565b9150612a3c8261360f565b604082019050919050565b6000612a54602a836130f5565b9150612a5f8261365e565b604082019050919050565b6000612a776029836130f5565b9150612a82826136ad565b604082019050919050565b6000612a9a602e836130f5565b9150612aa5826136fc565b604082019050919050565b6000612abd6020836130f5565b9150612ac88261374b565b602082019050919050565b6000612ae06031836130f5565b9150612aeb82613774565b604082019050919050565b6000612b03602c836130f5565b9150612b0e826137c3565b604082019050919050565b6000612b266020836130f5565b9150612b3182613812565b602082019050919050565b6000612b496029836130f5565b9150612b548261383b565b604082019050919050565b6000612b6c602f836130f5565b9150612b778261388a565b604082019050919050565b6000612b8f6021836130f5565b9150612b9a826138d9565b604082019050919050565b6000612bb26031836130f5565b9150612bbd82613928565b604082019050919050565b612bd181613248565b82525050565b6000612be38285612921565b9150612bef8284612921565b91508190509392505050565b6000602082019050612c106000830184612891565b92915050565b6000608082019050612c2b6000830187612891565b612c386020830186612891565b612c456040830185612bc8565b8181036060830152612c5781846128af565b905095945050505050565b6000602082019050612c7760008301846128a0565b92915050565b60006020820190508181036000830152612c9781846128e8565b905092915050565b60006020820190508181036000830152612cb881612952565b9050919050565b60006020820190508181036000830152612cd881612975565b9050919050565b60006020820190508181036000830152612cf881612998565b9050919050565b60006020820190508181036000830152612d18816129bb565b9050919050565b60006020820190508181036000830152612d38816129de565b9050919050565b60006020820190508181036000830152612d5881612a01565b9050919050565b60006020820190508181036000830152612d7881612a24565b9050919050565b60006020820190508181036000830152612d9881612a47565b9050919050565b60006020820190508181036000830152612db881612a6a565b9050919050565b60006020820190508181036000830152612dd881612a8d565b9050919050565b60006020820190508181036000830152612df881612ab0565b9050919050565b60006020820190508181036000830152612e1881612ad3565b9050919050565b60006020820190508181036000830152612e3881612af6565b9050919050565b60006020820190508181036000830152612e5881612b19565b9050919050565b60006020820190508181036000830152612e7881612b3c565b9050919050565b60006020820190508181036000830152612e9881612b5f565b9050919050565b60006020820190508181036000830152612eb881612b82565b9050919050565b60006020820190508181036000830152612ed881612ba5565b9050919050565b6000602082019050612ef46000830184612bc8565b92915050565b600060a082019050612f0f6000830188612bc8565b8181036020830152612f2181876128e8565b90508181036040830152612f3581866128e8565b90508181036060830152612f4981856128e8565b9050612f586080830184612882565b9695505050505050565b600060c082019050612f776000830189612bc8565b8181036020830152612f8981886128e8565b90508181036040830152612f9d81876128e8565b90508181036060830152612fb181866128e8565b9050612fc06080830185612bc8565b612fcd60a0830184612882565b979650505050505050565b600060c082019050612fed6000830189612bc8565b8181036020830152612fff81886128e8565b9050818103604083015261301381876128e8565b90506130226060830186612bc8565b61302f6080830185612882565b61303c60a0830184612891565b979650505050505050565b6000613051613062565b905061305d82826132c6565b919050565b6000604051905090565b600067ffffffffffffffff8211156130875761308661342d565b5b61309082613470565b9050602081019050919050565b600067ffffffffffffffff8211156130b8576130b761342d565b5b6130c182613470565b9050602081019050919050565b600081519050919050565b600081519050919050565b600082825260208201905092915050565b600082825260208201905092915050565b600081905092915050565b600061311c82613248565b915061312783613248565b9250827fffffffffffffffffffffffffffffffffffffffffffffffffffffffffffffffff0382111561315c5761315b613371565b5b828201905092915050565b600061317282613248565b915061317d83613248565b92508261318d5761318c6133a0565b5b828204905092915050565b60006131a382613248565b91506131ae83613248565b9250828210156131c1576131c0613371565b5b828203905092915050565b60006131d782613228565b9050919050565b60006131e982613228565b9050919050565b60008115159050919050565b60007fffffffff0000000000000000000000000000000000000000000000000000000082169050919050565b600073ffffffffffffffffffffffffffffffffffffffff82169050919050565b6000819050919050565b82818337600083830152505050565b60005b8381101561327f578082015181840152602081019050613264565b8381111561328e576000848401525b50505050565b600060028204905060018216806132ac57607f821691505b602082108114156132c0576132bf6133cf565b5b50919050565b6132cf82613470565b810181811067ffffffffffffffff821117156132ee576132ed61342d565b5b80604052505050565b600061330282613248565b91507fffffffffffffffffffffffffffffffffffffffffffffffffffffffffffffffff82141561333557613334613371565b5b600182019050919050565b600061334b82613248565b915061335683613248565b925082613366576133656133a0565b5b828206905092915050565b7f4e487b7100000000000000000000000000000000000000000000000000000000600052601160045260246000fd5b7f4e487b7100000000000000000000000000000000000000000000000000000000600052601260045260246000fd5b7f4e487b7100000000000000000000000000000000000000000000000000000000600052602260045260246000fd5b7f4e487b7100000000000000000000000000000000000000000000000000000000600052603260045260246000fd5b7f4e487b7100000000000000000000000000000000000000000000000000000000600052604160045260246000fd5b600080fd5b600080fd5b600080fd5b600080fd5b6000601f19601f8301169050919050565b7f4552433732313a207472616e7366657220746f206e6f6e20455243373231526560008201527f63656976657220696d706c656d656e7465720000000000000000000000000000602082015250565b7f4f776e61626c653a206e6577206f776e657220697320746865207a65726f206160008201527f6464726573730000000000000000000000000000000000000000000000000000602082015250565b7f4552433732313a20746f6b656e20616c7265616479206d696e74656400000000600082015250565b7f4552433732313a207472616e7366657220746f20746865207a65726f2061646460008201527f7265737300000000000000000000000000000000000000000000000000000000602082015250565b7f4552433732313a20617070726f766520746f2063616c6c657200000000000000600082015250565b7f4552433732313a206f70657261746f7220717565727920666f72206e6f6e657860008201527f697374656e7420746f6b656e0000000000000000000000000000000000000000602082015250565b7f4552433732313a20617070726f76652063616c6c6572206973206e6f74206f7760008201527f6e6572206e6f7220617070726f76656420666f7220616c6c0000000000000000602082015250565b7f4552433732313a2062616c616e636520717565727920666f7220746865207a6560008201527f726f206164647265737300000000000000000000000000000000000000000000602082015250565b7f4552433732313a206f776e657220717565727920666f72206e6f6e657869737460008201527f656e7420746f6b656e0000000000000000000000000000000000000000000000602082015250565b7f45524337323155524953746f726167653a2055524920736574206f66206e6f6e60008201527f6578697374656e7420746f6b656e000000000000000000000000000000000000602082015250565b7f4552433732313a206d696e7420746f20746865207a65726f2061646472657373600082015250565b7f45524337323155524953746f726167653a2055524920717565727920666f722060008201527f6e6f6e6578697374656e7420746f6b656e000000000000000000000000000000602082015250565b7f4552433732313a20617070726f76656420717565727920666f72206e6f6e657860008201527f697374656e7420746f6b656e0000000000000000000000000000000000000000602082015250565b7f4f776e61626c653a2063616c6c6572206973206e6f7420746865206f776e6572600082015250565b7f4552433732313a207472616e73666572206f6620746f6b656e2074686174206960008201527f73206e6f74206f776e0000000000000000000000000000000000000000000000602082015250565b7f4552433732314d657461646174613a2055524920717565727920666f72206e6f60008201527f6e6578697374656e7420746f6b656e0000000000000000000000000000000000602082015250565b7f4552433732313a20617070726f76616c20746f2063757272656e74206f776e6560008201527f7200000000000000000000000000000000000000000000000000000000000000602082015250565b7f4552433732313a207472616e736665722063616c6c6572206973206e6f74206f60008201527f776e6572206e6f7220617070726f766564000000000000000000000000000000602082015250565b613980816131cc565b811461398b57600080fd5b50565b613997816131de565b81146139a257600080fd5b50565b6139ae816131f0565b81146139b957600080fd5b50565b6139c5816131fc565b81146139d057600080fd5b50565b6139dc81613248565b81146139e757600080fd5b5056fea264697066735822122028df9bb95c06a85fcc05cf842e529cc373be82aea08d46230e04f0d725d5321664736f6c63430008070033",
  "immutableReferences": {},
  "source": "//Contract based on [https://docs.openzeppelin.com/contracts/4.x/erc721](https://docs.openzeppelin.com/contracts/4.x/erc721)\n// SPDX-License-Identifier: MIT\npragma solidity ^0.8.7;\n\n/// @title Kulfy Minting and Tipping Contract\n/// @notice You can use this contract for Minting GIFs & Video Clips as NFTs with Tips functionality.\n/// @dev All function calls are currently implemented without side effects\n\nimport \"@openzeppelin/contracts/token/ERC721/ERC721.sol\";\nimport \"@openzeppelin/contracts/utils/Counters.sol\";\nimport \"@openzeppelin/contracts/access/Ownable.sol\";\nimport \"@openzeppelin/contracts/token/ERC721/extensions/ERC721URIStorage.sol\";\n\ncontract KulfyV3 is ERC721URIStorage, Ownable {\n  \n    /// Mapping to store Kulfys\n    mapping(uint256 => Kulfy) public kulfys;\n\n    // Auto Counter for Token Ids\n    using Counters for Counters.Counter;\n    Counters.Counter public tokenIds;\n\n    constructor() public ERC721(\"KULFY\", \"KUL\") {}\n\n    /// Structure of hold Kulfys\n    struct Kulfy {\n        uint256 id;\n        string kid;\n        string tokenURI;\n        string assetURI;\n        uint256 tipAmount;\n        address payable author;\n    }\n\n    /// This event is emmited when new Kulfy is created\n    event KulfyCreated(\n        uint256 id,\n        string tokenURI,\n        string assetURI,\n        string kid,\n        address payable author\n    );\n\n    /// This event is emmited when Tip is made\n    event KulfyTipped(\n        uint256 id,\n        string hash,\n        string kid,\n        uint256 tipAmount,\n        address payable author,\n        address tipper\n    );\n\n    /*\n     * This function is to Mint Kulfy as a NFT and setting the TokenURI\n     * @param  {[type]} address payable       author [Address of the Kulfy creator]\n     * @param  {[type]} string  memory        _tokenURI [IPFS URL of medadata of the Kulfy]\n     * @param  {[type]} string  memory        _assetURI [IPFS URL of the actual binary asset]\n     * @param  {[type]} string  memory        _kid      [KID is the unique id of Kulfy]) \n     * @return {[type]} uint256     [tokenID of the NFT in contract]\n     */\n    function mintNFT(\n        address payable author,\n        string memory _tokenURI,\n        string memory _assetURI,\n        string memory _kid\n    ) public returns (uint256) {\n\n        /// Increment tokenId\n        tokenIds.increment();\n        uint256 newItemId = tokenIds.current();\n\n        /// calling mint function ERC 721\n        _mint(author, newItemId);\n\n        /// calling setTokenURI from ERC721URIStorage\n        _setTokenURI(newItemId, _tokenURI);\n\n        /// update mapping with new Kulfy \n        kulfys[newItemId] = Kulfy(\n            newItemId,\n            _kid,\n            _tokenURI,\n            _assetURI,\n            0,\n            author\n        );\n\n        /// emit Kulfy minted event\n        emit KulfyCreated(newItemId,_tokenURI,_assetURI,_kid,author);\n\n        return newItemId;\n    }\n\n    /*\n     * This function is to transfer desired Tip amount from Tipper to Kulfy author\n     * @param  {[type]} uint256 _id           [tokenID of the NFT in the contract ]\n     * @return {[type]}                       [Transer Tip amount to creator via Internal Transfers]\n     */\n    function tipKulfyAuthor(uint256 _id) public payable {\n        /// Check valid tokenId\n        require(_id > 0 && _id <= tokenIds.current());\n\n        /// Load specific Kulfy based on tokenId\n        Kulfy memory _kulfy = kulfys[_id];\n\n        /// Get author/creator address\n        address payable _author = _kulfy.author;\n\n        /// Transfer Tip amount to the creator\n        _author.transfer(msg.value);\n\n        /// Add new tip to the Kulfy's total tip amount\n        _kulfy.tipAmount = _kulfy.tipAmount + msg.value;\n\n        /// Update Kulfy record\n        kulfys[_id] = _kulfy;\n\n        /// Emit Tip Event\n        emit KulfyTipped(\n            _id,\n            _kulfy.tokenURI,\n            _kulfy.kid,\n            _kulfy.tipAmount,\n            _author,\n            msg.sender\n        );\n    }\n}\n",
  "sourcePath": "/Users/gkolluri/Documents/blockchain/kulfy3/src/contracts/KulfyV3.sol",
  "compiler": {
    "name": "solc",
    "version": "0.8.7+commit.e28d00a7.Emscripten.clang"
  },
  "schemaVersion": "3.4.3",
  "updatedAt": "2022-01-05T20:16:22.191Z",
  "networkType": "ethereum",
  "devdoc": {
    "kind": "dev",
    "methods": {
      "approve(address,uint256)": {
        "details": "See {IERC721-approve}."
      },
      "balanceOf(address)": {
        "details": "See {IERC721-balanceOf}."
      },
      "getApproved(uint256)": {
        "details": "See {IERC721-getApproved}."
      },
      "isApprovedForAll(address,address)": {
        "details": "See {IERC721-isApprovedForAll}."
      },
      "name()": {
        "details": "See {IERC721Metadata-name}."
      },
      "owner()": {
        "details": "Returns the address of the current owner."
      },
      "ownerOf(uint256)": {
        "details": "See {IERC721-ownerOf}."
      },
      "renounceOwnership()": {
        "details": "Leaves the contract without owner. It will not be possible to call `onlyOwner` functions anymore. Can only be called by the current owner. NOTE: Renouncing ownership will leave the contract without an owner, thereby removing any functionality that is only available to the owner."
      },
      "safeTransferFrom(address,address,uint256)": {
        "details": "See {IERC721-safeTransferFrom}."
      },
      "safeTransferFrom(address,address,uint256,bytes)": {
        "details": "See {IERC721-safeTransferFrom}."
      },
      "setApprovalForAll(address,bool)": {
        "details": "See {IERC721-setApprovalForAll}."
      },
      "supportsInterface(bytes4)": {
        "details": "See {IERC165-supportsInterface}."
      },
      "symbol()": {
        "details": "See {IERC721Metadata-symbol}."
      },
      "tokenURI(uint256)": {
        "details": "See {IERC721Metadata-tokenURI}."
      },
      "transferFrom(address,address,uint256)": {
        "details": "See {IERC721-transferFrom}."
      },
      "transferOwnership(address)": {
        "details": "Transfers ownership of the contract to a new account (`newOwner`). Can only be called by the current owner."
      }
    },
    "version": 1
  },
  "userdoc": {
    "events": {
      "KulfyCreated(uint256,string,string,string,address)": {
        "notice": "This event is emmited when new Kulfy is created"
      },
      "KulfyTipped(uint256,string,string,uint256,address,address)": {
        "notice": "This event is emmited when Tip is made"
      }
    },
    "kind": "user",
    "methods": {
      "kulfys(uint256)": {
        "notice": "Mapping to store Kulfys"
      }
    },
    "version": 1
  }
}